{
  "_format": "hh-sol-artifact-1",
  "contractName": "Hackathon",
  "sourceName": "contracts/Hackathon.sol",
  "abi": [
    {
      "inputs": [],
      "stateMutability": "nonpayable",
      "type": "constructor"
    },
    {
      "anonymous": false,
      "inputs": [
        {
          "indexed": true,
          "internalType": "address",
          "name": "account",
          "type": "address"
        },
        {
          "indexed": true,
          "internalType": "address",
          "name": "operator",
          "type": "address"
        },
        {
          "indexed": false,
          "internalType": "bool",
          "name": "approved",
          "type": "bool"
        }
      ],
      "name": "ApprovalForAll",
      "type": "event"
    },
    {
      "anonymous": false,
      "inputs": [
        {
          "indexed": true,
          "internalType": "address",
          "name": "to",
          "type": "address"
        },
        {
          "indexed": true,
          "internalType": "uint256",
          "name": "id",
          "type": "uint256"
        },
        {
          "indexed": false,
          "internalType": "uint256",
          "name": "amount",
          "type": "uint256"
        }
      ],
      "name": "Sent",
      "type": "event"
    },
    {
      "anonymous": false,
      "inputs": [
        {
          "indexed": true,
          "internalType": "address",
          "name": "operator",
          "type": "address"
        },
        {
          "indexed": true,
          "internalType": "address",
          "name": "from",
          "type": "address"
        },
        {
          "indexed": true,
          "internalType": "address",
          "name": "to",
          "type": "address"
        },
        {
          "indexed": false,
          "internalType": "uint256[]",
          "name": "ids",
          "type": "uint256[]"
        },
        {
          "indexed": false,
          "internalType": "uint256[]",
          "name": "values",
          "type": "uint256[]"
        }
      ],
      "name": "TransferBatch",
      "type": "event"
    },
    {
      "anonymous": false,
      "inputs": [
        {
          "indexed": true,
          "internalType": "address",
          "name": "operator",
          "type": "address"
        },
        {
          "indexed": true,
          "internalType": "address",
          "name": "from",
          "type": "address"
        },
        {
          "indexed": true,
          "internalType": "address",
          "name": "to",
          "type": "address"
        },
        {
          "indexed": false,
          "internalType": "uint256",
          "name": "id",
          "type": "uint256"
        },
        {
          "indexed": false,
          "internalType": "uint256",
          "name": "value",
          "type": "uint256"
        }
      ],
      "name": "TransferSingle",
      "type": "event"
    },
    {
      "anonymous": false,
      "inputs": [
        {
          "indexed": false,
          "internalType": "string",
          "name": "value",
          "type": "string"
        },
        {
          "indexed": true,
          "internalType": "uint256",
          "name": "id",
          "type": "uint256"
        }
      ],
      "name": "URI",
      "type": "event"
    },
    {
      "inputs": [
        {
          "internalType": "address",
          "name": "account",
          "type": "address"
        },
        {
          "internalType": "uint256",
          "name": "id",
          "type": "uint256"
        }
      ],
      "name": "balanceOf",
      "outputs": [
        {
          "internalType": "uint256",
          "name": "",
          "type": "uint256"
        }
      ],
      "stateMutability": "view",
      "type": "function"
    },
    {
      "inputs": [
        {
          "internalType": "address[]",
          "name": "accounts",
          "type": "address[]"
        },
        {
          "internalType": "uint256[]",
          "name": "ids",
          "type": "uint256[]"
        }
      ],
      "name": "balanceOfBatch",
      "outputs": [
        {
          "internalType": "uint256[]",
          "name": "",
          "type": "uint256[]"
        }
      ],
      "stateMutability": "view",
      "type": "function"
    },
    {
      "inputs": [
        {
          "internalType": "address",
          "name": "account",
          "type": "address"
        },
        {
          "internalType": "address",
          "name": "operator",
          "type": "address"
        }
      ],
      "name": "isApprovedForAll",
      "outputs": [
        {
          "internalType": "bool",
          "name": "",
          "type": "bool"
        }
      ],
      "stateMutability": "view",
      "type": "function"
    },
    {
      "inputs": [
        {
          "internalType": "address",
          "name": "_owner",
          "type": "address"
        },
        {
          "internalType": "string",
          "name": "_ipfsLink",
          "type": "string"
        },
        {
          "internalType": "string",
          "name": "_taskId",
          "type": "string"
        },
        {
          "internalType": "string",
          "name": "_type",
          "type": "string"
        },
        {
          "internalType": "string",
          "name": "_team",
          "type": "string"
        }
      ],
      "name": "mint",
      "outputs": [],
      "stateMutability": "nonpayable",
      "type": "function"
    },
    {
      "inputs": [
        {
          "internalType": "address[]",
          "name": "_owners",
          "type": "address[]"
        },
        {
          "internalType": "string[]",
          "name": "_ipfsLinks",
          "type": "string[]"
        },
        {
          "internalType": "string[]",
          "name": "_taskIds",
          "type": "string[]"
        },
        {
          "internalType": "string[]",
          "name": "_types",
          "type": "string[]"
        },
        {
          "internalType": "string[]",
          "name": "_teams",
          "type": "string[]"
        }
      ],
      "name": "mintBatch",
      "outputs": [],
      "stateMutability": "nonpayable",
      "type": "function"
    },
    {
      "inputs": [],
      "name": "owner",
      "outputs": [
        {
          "internalType": "address",
          "name": "",
          "type": "address"
        }
      ],
      "stateMutability": "view",
      "type": "function"
    },
    {
      "inputs": [
        {
          "internalType": "address",
          "name": "from",
          "type": "address"
        },
        {
          "internalType": "address",
          "name": "to",
          "type": "address"
        },
        {
          "internalType": "uint256[]",
          "name": "ids",
          "type": "uint256[]"
        },
        {
          "internalType": "uint256[]",
          "name": "amounts",
          "type": "uint256[]"
        },
        {
          "internalType": "bytes",
          "name": "data",
          "type": "bytes"
        }
      ],
      "name": "safeBatchTransferFrom",
      "outputs": [],
      "stateMutability": "nonpayable",
      "type": "function"
    },
    {
      "inputs": [
        {
          "internalType": "address",
          "name": "from",
          "type": "address"
        },
        {
          "internalType": "address",
          "name": "to",
          "type": "address"
        },
        {
          "internalType": "uint256",
          "name": "id",
          "type": "uint256"
        },
        {
          "internalType": "uint256",
          "name": "amount",
          "type": "uint256"
        },
        {
          "internalType": "bytes",
          "name": "data",
          "type": "bytes"
        }
      ],
      "name": "safeTransferFrom",
      "outputs": [],
      "stateMutability": "nonpayable",
      "type": "function"
    },
    {
      "inputs": [
        {
          "internalType": "address",
          "name": "operator",
          "type": "address"
        },
        {
          "internalType": "bool",
          "name": "approved",
          "type": "bool"
        }
      ],
      "name": "setApprovalForAll",
      "outputs": [],
      "stateMutability": "nonpayable",
      "type": "function"
    },
    {
      "inputs": [
        {
          "internalType": "bytes4",
          "name": "interfaceId",
          "type": "bytes4"
        }
      ],
      "name": "supportsInterface",
      "outputs": [
        {
          "internalType": "bool",
          "name": "",
          "type": "bool"
        }
      ],
      "stateMutability": "view",
      "type": "function"
    },
    {
      "inputs": [
        {
          "internalType": "uint256",
          "name": "tokenId",
          "type": "uint256"
        }
      ],
      "name": "uri",
      "outputs": [
        {
          "internalType": "string",
          "name": "",
          "type": "string"
        }
      ],
      "stateMutability": "view",
      "type": "function"
    }
  ],
  "bytecode": "0x6080604052604051806020016040528060008152506003908162000024919062000356565b5060006005553480156200003757600080fd5b506040518060400160405280600a81526020017f556e797465546f6b656e000000000000000000000000000000000000000000008152506200007f81620000c760201b60201c565b5033600660006101000a81548173ffffffffffffffffffffffffffffffffffffffff021916908373ffffffffffffffffffffffffffffffffffffffff1602179055506200043d565b8060029081620000d8919062000356565b5050565b600081519050919050565b7f4e487b7100000000000000000000000000000000000000000000000000000000600052604160045260246000fd5b7f4e487b7100000000000000000000000000000000000000000000000000000000600052602260045260246000fd5b600060028204905060018216806200015e57607f821691505b60208210810362000174576200017362000116565b5b50919050565b60008190508160005260206000209050919050565b60006020601f8301049050919050565b600082821b905092915050565b600060088302620001de7fffffffffffffffffffffffffffffffffffffffffffffffffffffffffffffffff826200019f565b620001ea86836200019f565b95508019841693508086168417925050509392505050565b6000819050919050565b6000819050919050565b600062000237620002316200022b8462000202565b6200020c565b62000202565b9050919050565b6000819050919050565b620002538362000216565b6200026b62000262826200023e565b848454620001ac565b825550505050565b600090565b6200028262000273565b6200028f81848462000248565b505050565b5b81811015620002b757620002ab60008262000278565b60018101905062000295565b5050565b601f8211156200030657620002d0816200017a565b620002db846200018f565b81016020851015620002eb578190505b62000303620002fa856200018f565b83018262000294565b50505b505050565b600082821c905092915050565b60006200032b600019846008026200030b565b1980831691505092915050565b600062000346838362000318565b9150826002028217905092915050565b6200036182620000dc565b67ffffffffffffffff8111156200037d576200037c620000e7565b5b62000389825462000145565b62000396828285620002bb565b600060209050601f831160018114620003ce5760008415620003b9578287015190505b620003c5858262000338565b86555062000435565b601f198416620003de866200017a565b60005b828110156200040857848901518255600182019150602085019450602081019050620003e1565b8683101562000428578489015162000424601f89168262000318565b8355505b6001600288020188555050505b505050505050565b61427c806200044d6000396000f3fe608060405234801561001057600080fd5b50600436106100a85760003560e01c80638da5cb5b116100715780638da5cb5b14610189578063a05d459a146101a7578063a22cb465146101c3578063a40d1b10146101df578063e985e9c5146101fb578063f242432a1461022b576100a8565b8062fdd58e146100ad57806301ffc9a7146100dd5780630e89341c1461010d5780632eb2c2d61461013d5780634e1273f414610159575b600080fd5b6100c760048036038101906100c291906120a8565b610247565b6040516100d491906120f7565b60405180910390f35b6100f760048036038101906100f2919061216a565b61030f565b60405161010491906121b2565b60405180910390f35b610127600480360381019061012291906121cd565b6103f1565b604051610134919061228a565b60405180910390f35b610157600480360381019061015291906124a9565b6104d6565b005b610173600480360381019061016e919061263b565b610577565b6040516101809190612771565b60405180910390f35b610191610690565b60405161019e91906127a2565b60405180910390f35b6101c160048036038101906101bc919061293f565b6106b6565b005b6101dd60048036038101906101d89190612a72565b61085a565b005b6101f960048036038101906101f49190612ab2565b610870565b005b61021560048036038101906102109190612b9d565b610bb3565b60405161022291906121b2565b60405180910390f35b61024560048036038101906102409190612bdd565b610c47565b005b60008073ffffffffffffffffffffffffffffffffffffffff168373ffffffffffffffffffffffffffffffffffffffff16036102b7576040517f08c379a00000000000000000000000000000000000000000000000000000000081526004016102ae90612ce6565b60405180910390fd5b60008083815260200190815260200160002060008473ffffffffffffffffffffffffffffffffffffffff1673ffffffffffffffffffffffffffffffffffffffff16815260200190815260200160002054905092915050565b60007fd9b67a26000000000000000000000000000000000000000000000000000000007bffffffffffffffffffffffffffffffffffffffffffffffffffffffff1916827bffffffffffffffffffffffffffffffffffffffffffffffffffffffff191614806103da57507f0e89341c000000000000000000000000000000000000000000000000000000007bffffffffffffffffffffffffffffffffffffffffffffffffffffffff1916827bffffffffffffffffffffffffffffffffffffffffffffffffffffffff1916145b806103ea57506103e982610ce8565b5b9050919050565b6060600060046000848152602001908152602001600020805461041390612d35565b80601f016020809104026020016040519081016040528092919081815260200182805461043f90612d35565b801561048c5780601f106104615761010080835404028352916020019161048c565b820191906000526020600020905b81548152906001019060200180831161046f57829003601f168201915b5050505050905060008151116104aa576104a583610d52565b6104ce565b6003816040516020016104be929190612e3a565b6040516020818303038152906040525b915050919050565b6104de610de6565b73ffffffffffffffffffffffffffffffffffffffff168573ffffffffffffffffffffffffffffffffffffffff16148061052457506105238561051e610de6565b610bb3565b5b610563576040517f08c379a000000000000000000000000000000000000000000000000000000000815260040161055a90612ed0565b60405180910390fd5b6105708585858585610dee565b5050505050565b606081518351146105bd576040517f08c379a00000000000000000000000000000000000000000000000000000000081526004016105b490612f62565b60405180910390fd5b6000835167ffffffffffffffff8111156105da576105d96122b1565b5b6040519080825280602002602001820160405280156106085781602001602082028036833780820191505090505b50905060005b84518110156106855761065585828151811061062d5761062c612f82565b5b602002602001015185838151811061064857610647612f82565b5b6020026020010151610247565b82828151811061066857610667612f82565b5b6020026020010181815250508061067e90612fe0565b905061060e565b508091505092915050565b600660009054906101000a900473ffffffffffffffffffffffffffffffffffffffff1681565b835185511480156106c8575082518551145b80156106d5575081518551145b610714576040517f08c379a000000000000000000000000000000000000000000000000000000000815260040161070b9061309a565b60405180910390fd5b600660009054906101000a900473ffffffffffffffffffffffffffffffffffffffff1673ffffffffffffffffffffffffffffffffffffffff163373ffffffffffffffffffffffffffffffffffffffff16146107a4576040517f08c379a000000000000000000000000000000000000000000000000000000000815260040161079b90613106565b60405180910390fd5b60005b85518110156108525761083f8682815181106107c6576107c5612f82565b5b60200260200101518683815181106107e1576107e0612f82565b5b60200260200101518684815181106107fc576107fb612f82565b5b602002602001015186858151811061081757610816612f82565b5b602002602001015186868151811061083257610831612f82565b5b6020026020010151610870565b808061084a90612fe0565b9150506107a7565b505050505050565b61086c610865610de6565b838361110f565b5050565b600660009054906101000a900473ffffffffffffffffffffffffffffffffffffffff1673ffffffffffffffffffffffffffffffffffffffff163373ffffffffffffffffffffffffffffffffffffffff1614610900576040517f08c379a00000000000000000000000000000000000000000000000000000000081526004016108f790613106565b60405180910390fd5b6005600081548092919061091390612fe0565b919050555060608061092660055461127b565b90507f6868528ac7ceafbca1aecc9012d1057ccd95b2e4efd69b56f023757dcf69d9b48460405160200161095a9190613126565b604051602081830303815290604052805190602001200361099e5780836040516020016109889291906131d5565b6040516020818303038152906040529150610a11565b7f2d9fff2a7ab727ab3a0b82110e010fa1f0255381ea4e3bdfd2157c31836189ae846040516020016109d09190613126565b6040516020818303038152906040528051906020012003610a105780836040516020016109fe92919061325b565b60405160208183030381529060405291505b5b610a4f6040518060400160405280601181526020017f0a2d2d2d2d2d206e616d65202d2d2d2d2d000000000000000000000000000000815250611349565b610a5882611349565b610a6181611349565b610a9f6040518060400160405280601181526020017f2d2d2d2d2d2d2d2d2d2d2d2d2d2d2d2d0a000000000000000000000000000000815250611349565b6000610ad382878688878c604051602001610abf96959493929190613733565b6040516020818303038152906040526113e2565b9050610b136040518060400160405280601181526020017f0a2d2d2d2d2d204a534f4e202d2d2d2d2d000000000000000000000000000000815250611349565b610b1c81611349565b610b5a6040518060400160405280601181526020017f2d2d2d2d2d2d2d2d2d2d2d2d2d2d2d2d0a000000000000000000000000000000815250611349565b600081604051602001610b6d919061382f565b6040516020818303038152906040529050610b9c89600554600160405180602001604052806000815250611579565b610ba860055482611729565b505050505050505050565b6000600160008473ffffffffffffffffffffffffffffffffffffffff1673ffffffffffffffffffffffffffffffffffffffff16815260200190815260200160002060008373ffffffffffffffffffffffffffffffffffffffff1673ffffffffffffffffffffffffffffffffffffffff16815260200190815260200160002060009054906101000a900460ff16905092915050565b610c4f610de6565b73ffffffffffffffffffffffffffffffffffffffff168573ffffffffffffffffffffffffffffffffffffffff161480610c955750610c9485610c8f610de6565b610bb3565b5b610cd4576040517f08c379a0000000000000000000000000000000000000000000000000000000008152600401610ccb90612ed0565b60405180910390fd5b610ce1858585858561178e565b5050505050565b60007f01ffc9a7000000000000000000000000000000000000000000000000000000007bffffffffffffffffffffffffffffffffffffffffffffffffffffffff1916827bffffffffffffffffffffffffffffffffffffffffffffffffffffffff1916149050919050565b606060028054610d6190612d35565b80601f0160208091040260200160405190810160405280929190818152602001828054610d8d90612d35565b8015610dda5780601f10610daf57610100808354040283529160200191610dda565b820191906000526020600020905b815481529060010190602001808311610dbd57829003601f168201915b50505050509050919050565b600033905090565b8151835114610e32576040517f08c379a0000000000000000000000000000000000000000000000000000000008152600401610e29906138c3565b60405180910390fd5b600073ffffffffffffffffffffffffffffffffffffffff168473ffffffffffffffffffffffffffffffffffffffff1603610ea1576040517f08c379a0000000000000000000000000000000000000000000000000000000008152600401610e9890613955565b60405180910390fd5b6000610eab610de6565b9050610ebb818787878787611a29565b60005b845181101561106c576000858281518110610edc57610edb612f82565b5b602002602001015190506000858381518110610efb57610efa612f82565b5b60200260200101519050600080600084815260200190815260200160002060008b73ffffffffffffffffffffffffffffffffffffffff1673ffffffffffffffffffffffffffffffffffffffff16815260200190815260200160002054905081811015610f9c576040517f08c379a0000000000000000000000000000000000000000000000000000000008152600401610f93906139e7565b60405180910390fd5b81810360008085815260200190815260200160002060008c73ffffffffffffffffffffffffffffffffffffffff1673ffffffffffffffffffffffffffffffffffffffff168152602001908152602001600020819055508160008085815260200190815260200160002060008b73ffffffffffffffffffffffffffffffffffffffff1673ffffffffffffffffffffffffffffffffffffffff16815260200190815260200160002060008282546110519190613a07565b925050819055505050508061106590612fe0565b9050610ebe565b508473ffffffffffffffffffffffffffffffffffffffff168673ffffffffffffffffffffffffffffffffffffffff168273ffffffffffffffffffffffffffffffffffffffff167f4a39dc06d4c0dbc64b70af90fd698a233a518aa5d07e595d983b8c0526c8f7fb87876040516110e3929190613a3b565b60405180910390a46110f9818787878787611a31565b611107818787878787611a39565b505050505050565b8173ffffffffffffffffffffffffffffffffffffffff168373ffffffffffffffffffffffffffffffffffffffff160361117d576040517f08c379a000000000000000000000000000000000000000000000000000000000815260040161117490613ae4565b60405180910390fd5b80600160008573ffffffffffffffffffffffffffffffffffffffff1673ffffffffffffffffffffffffffffffffffffffff16815260200190815260200160002060008473ffffffffffffffffffffffffffffffffffffffff1673ffffffffffffffffffffffffffffffffffffffff16815260200190815260200160002060006101000a81548160ff0219169083151502179055508173ffffffffffffffffffffffffffffffffffffffff168373ffffffffffffffffffffffffffffffffffffffff167f17307eab39ab6107e8899845ad3d59bd9653f200f220920489ca2b5937696c318360405161126e91906121b2565b60405180910390a3505050565b60606000600161128a84611c10565b01905060008167ffffffffffffffff8111156112a9576112a86122b1565b5b6040519080825280601f01601f1916602001820160405280156112db5781602001600182028036833780820191505090505b509050600082602001820190505b60011561133e578080600190039150507f3031323334353637383961626364656600000000000000000000000000000000600a86061a8153600a858161133257611331613b04565b5b049450600085036112e9575b819350505050919050565b6113df8160405160240161135d919061228a565b6040516020818303038152906040527f41304fac000000000000000000000000000000000000000000000000000000007bffffffffffffffffffffffffffffffffffffffffffffffffffffffff19166020820180517bffffffffffffffffffffffffffffffffffffffffffffffffffffffff8381831617835250505050611d63565b50565b60606000825190506000810361140a5760405180602001604052806000815250915050611574565b6000600360028361141b9190613a07565b6114259190613b33565b60046114319190613b64565b905060006020826114429190613a07565b67ffffffffffffffff81111561145b5761145a6122b1565b5b6040519080825280601f01601f19166020018201604052801561148d5781602001600182028036833780820191505090505b5090506000604051806060016040528060408152602001614207604091399050600181016020830160005b868110156115315760038101905062ffffff818a015116603f8160121c168401518060081b905060ff603f83600c1c1686015116810190508060081b905060ff603f8360061c1686015116810190508060081b905060ff603f831686015116810190508060e01b905080845260048401935050506114b8565b50600386066001811461154b576002811461155b57611566565b613d3d60f01b6002830352611566565b603d60f81b60018303525b508484525050819450505050505b919050565b600073ffffffffffffffffffffffffffffffffffffffff168473ffffffffffffffffffffffffffffffffffffffff16036115e8576040517f08c379a00000000000000000000000000000000000000000000000000000000081526004016115df90613c18565b60405180910390fd5b60006115f2610de6565b905060006115ff85611d8c565b9050600061160c85611d8c565b905061161d83600089858589611a29565b8460008088815260200190815260200160002060008973ffffffffffffffffffffffffffffffffffffffff1673ffffffffffffffffffffffffffffffffffffffff168152602001908152602001600020600082825461167c9190613a07565b925050819055508673ffffffffffffffffffffffffffffffffffffffff16600073ffffffffffffffffffffffffffffffffffffffff168473ffffffffffffffffffffffffffffffffffffffff167fc3d58168c5ae7397731d063d5bbf3d657854427343f4c083240f7aacaa2d0f6289896040516116fa929190613c38565b60405180910390a461171183600089858589611a31565b61172083600089898989611e06565b50505050505050565b806004600084815260200190815260200160002090816117499190613df8565b50817f6bb7ff708619ba0610cba295a58592e0451dee2622938c8755667688daf3529b611775846103f1565b604051611782919061228a565b60405180910390a25050565b600073ffffffffffffffffffffffffffffffffffffffff168473ffffffffffffffffffffffffffffffffffffffff16036117fd576040517f08c379a00000000000000000000000000000000000000000000000000000000081526004016117f490613955565b60405180910390fd5b6000611807610de6565b9050600061181485611d8c565b9050600061182185611d8c565b9050611831838989858589611a29565b600080600088815260200190815260200160002060008a73ffffffffffffffffffffffffffffffffffffffff1673ffffffffffffffffffffffffffffffffffffffff168152602001908152602001600020549050858110156118c8576040517f08c379a00000000000000000000000000000000000000000000000000000000081526004016118bf906139e7565b60405180910390fd5b85810360008089815260200190815260200160002060008b73ffffffffffffffffffffffffffffffffffffffff1673ffffffffffffffffffffffffffffffffffffffff168152602001908152602001600020819055508560008089815260200190815260200160002060008a73ffffffffffffffffffffffffffffffffffffffff1673ffffffffffffffffffffffffffffffffffffffff168152602001908152602001600020600082825461197d9190613a07565b925050819055508773ffffffffffffffffffffffffffffffffffffffff168973ffffffffffffffffffffffffffffffffffffffff168573ffffffffffffffffffffffffffffffffffffffff167fc3d58168c5ae7397731d063d5bbf3d657854427343f4c083240f7aacaa2d0f628a8a6040516119fa929190613c38565b60405180910390a4611a10848a8a86868a611a31565b611a1e848a8a8a8a8a611e06565b505050505050505050565b505050505050565b505050505050565b611a588473ffffffffffffffffffffffffffffffffffffffff16611fdd565b15611c08578373ffffffffffffffffffffffffffffffffffffffff1663bc197c8187878686866040518663ffffffff1660e01b8152600401611a9e959493929190613f1f565b6020604051808303816000875af1925050508015611ada57506040513d601f19601f82011682018060405250810190611ad79190613f9c565b60015b611b7f57611ae6613fd6565b806308c379a003611b425750611afa613ff8565b80611b055750611b44565b806040517f08c379a0000000000000000000000000000000000000000000000000000000008152600401611b39919061228a565b60405180910390fd5b505b6040517f08c379a0000000000000000000000000000000000000000000000000000000008152600401611b76906140fa565b60405180910390fd5b63bc197c8160e01b7bffffffffffffffffffffffffffffffffffffffffffffffffffffffff1916817bffffffffffffffffffffffffffffffffffffffffffffffffffffffff191614611c06576040517f08c379a0000000000000000000000000000000000000000000000000000000008152600401611bfd9061418c565b60405180910390fd5b505b505050505050565b600080600090507a184f03e93ff9f4daa797ed6e38ed64bf6a1f0100000000000000008310611c6e577a184f03e93ff9f4daa797ed6e38ed64bf6a1f0100000000000000008381611c6457611c63613b04565b5b0492506040810190505b6d04ee2d6d415b85acef81000000008310611cab576d04ee2d6d415b85acef81000000008381611ca157611ca0613b04565b5b0492506020810190505b662386f26fc100008310611cda57662386f26fc100008381611cd057611ccf613b04565b5b0492506010810190505b6305f5e1008310611d03576305f5e1008381611cf957611cf8613b04565b5b0492506008810190505b6127108310611d28576127108381611d1e57611d1d613b04565b5b0492506004810190505b60648310611d4b5760648381611d4157611d40613b04565b5b0492506002810190505b600a8310611d5a576001810190505b80915050919050565b60008151905060006a636f6e736f6c652e6c6f679050602083016000808483855afa5050505050565b60606000600167ffffffffffffffff811115611dab57611daa6122b1565b5b604051908082528060200260200182016040528015611dd95781602001602082028036833780820191505090505b5090508281600081518110611df157611df0612f82565b5b60200260200101818152505080915050919050565b611e258473ffffffffffffffffffffffffffffffffffffffff16611fdd565b15611fd5578373ffffffffffffffffffffffffffffffffffffffff1663f23a6e6187878686866040518663ffffffff1660e01b8152600401611e6b9594939291906141ac565b6020604051808303816000875af1925050508015611ea757506040513d601f19601f82011682018060405250810190611ea49190613f9c565b60015b611f4c57611eb3613fd6565b806308c379a003611f0f5750611ec7613ff8565b80611ed25750611f11565b806040517f08c379a0000000000000000000000000000000000000000000000000000000008152600401611f06919061228a565b60405180910390fd5b505b6040517f08c379a0000000000000000000000000000000000000000000000000000000008152600401611f43906140fa565b60405180910390fd5b63f23a6e6160e01b7bffffffffffffffffffffffffffffffffffffffffffffffffffffffff1916817bffffffffffffffffffffffffffffffffffffffffffffffffffffffff191614611fd3576040517f08c379a0000000000000000000000000000000000000000000000000000000008152600401611fca9061418c565b60405180910390fd5b505b505050505050565b6000808273ffffffffffffffffffffffffffffffffffffffff163b119050919050565b6000604051905090565b600080fd5b600080fd5b600073ffffffffffffffffffffffffffffffffffffffff82169050919050565b600061203f82612014565b9050919050565b61204f81612034565b811461205a57600080fd5b50565b60008135905061206c81612046565b92915050565b6000819050919050565b61208581612072565b811461209057600080fd5b50565b6000813590506120a28161207c565b92915050565b600080604083850312156120bf576120be61200a565b5b60006120cd8582860161205d565b92505060206120de85828601612093565b9150509250929050565b6120f181612072565b82525050565b600060208201905061210c60008301846120e8565b92915050565b60007fffffffff0000000000000000000000000000000000000000000000000000000082169050919050565b61214781612112565b811461215257600080fd5b50565b6000813590506121648161213e565b92915050565b6000602082840312156121805761217f61200a565b5b600061218e84828501612155565b91505092915050565b60008115159050919050565b6121ac81612197565b82525050565b60006020820190506121c760008301846121a3565b92915050565b6000602082840312156121e3576121e261200a565b5b60006121f184828501612093565b91505092915050565b600081519050919050565b600082825260208201905092915050565b60005b83811015612234578082015181840152602081019050612219565b60008484015250505050565b6000601f19601f8301169050919050565b600061225c826121fa565b6122668185612205565b9350612276818560208601612216565b61227f81612240565b840191505092915050565b600060208201905081810360008301526122a48184612251565b905092915050565b600080fd5b7f4e487b7100000000000000000000000000000000000000000000000000000000600052604160045260246000fd5b6122e982612240565b810181811067ffffffffffffffff82111715612308576123076122b1565b5b80604052505050565b600061231b612000565b905061232782826122e0565b919050565b600067ffffffffffffffff821115612347576123466122b1565b5b602082029050602081019050919050565b600080fd5b600061237061236b8461232c565b612311565b9050808382526020820190506020840283018581111561239357612392612358565b5b835b818110156123bc57806123a88882612093565b845260208401935050602081019050612395565b5050509392505050565b600082601f8301126123db576123da6122ac565b5b81356123eb84826020860161235d565b91505092915050565b600080fd5b600067ffffffffffffffff821115612414576124136122b1565b5b61241d82612240565b9050602081019050919050565b82818337600083830152505050565b600061244c612447846123f9565b612311565b905082815260208101848484011115612468576124676123f4565b5b61247384828561242a565b509392505050565b600082601f8301126124905761248f6122ac565b5b81356124a0848260208601612439565b91505092915050565b600080600080600060a086880312156124c5576124c461200a565b5b60006124d38882890161205d565b95505060206124e48882890161205d565b945050604086013567ffffffffffffffff8111156125055761250461200f565b5b612511888289016123c6565b935050606086013567ffffffffffffffff8111156125325761253161200f565b5b61253e888289016123c6565b925050608086013567ffffffffffffffff81111561255f5761255e61200f565b5b61256b8882890161247b565b9150509295509295909350565b600067ffffffffffffffff821115612593576125926122b1565b5b602082029050602081019050919050565b60006125b76125b284612578565b612311565b905080838252602082019050602084028301858111156125da576125d9612358565b5b835b8181101561260357806125ef888261205d565b8452602084019350506020810190506125dc565b5050509392505050565b600082601f830112612622576126216122ac565b5b81356126328482602086016125a4565b91505092915050565b600080604083850312156126525761265161200a565b5b600083013567ffffffffffffffff8111156126705761266f61200f565b5b61267c8582860161260d565b925050602083013567ffffffffffffffff81111561269d5761269c61200f565b5b6126a9858286016123c6565b9150509250929050565b600081519050919050565b600082825260208201905092915050565b6000819050602082019050919050565b6126e881612072565b82525050565b60006126fa83836126df565b60208301905092915050565b6000602082019050919050565b600061271e826126b3565b61272881856126be565b9350612733836126cf565b8060005b8381101561276457815161274b88826126ee565b975061275683612706565b925050600181019050612737565b5085935050505092915050565b6000602082019050818103600083015261278b8184612713565b905092915050565b61279c81612034565b82525050565b60006020820190506127b76000830184612793565b92915050565b600067ffffffffffffffff8211156127d8576127d76122b1565b5b602082029050602081019050919050565b600067ffffffffffffffff821115612804576128036122b1565b5b61280d82612240565b9050602081019050919050565b600061282d612828846127e9565b612311565b905082815260208101848484011115612849576128486123f4565b5b61285484828561242a565b509392505050565b600082601f830112612871576128706122ac565b5b813561288184826020860161281a565b91505092915050565b600061289d612898846127bd565b612311565b905080838252602082019050602084028301858111156128c0576128bf612358565b5b835b8181101561290757803567ffffffffffffffff8111156128e5576128e46122ac565b5b8086016128f2898261285c565b855260208501945050506020810190506128c2565b5050509392505050565b600082601f830112612926576129256122ac565b5b813561293684826020860161288a565b91505092915050565b600080600080600060a0868803121561295b5761295a61200a565b5b600086013567ffffffffffffffff8111156129795761297861200f565b5b6129858882890161260d565b955050602086013567ffffffffffffffff8111156129a6576129a561200f565b5b6129b288828901612911565b945050604086013567ffffffffffffffff8111156129d3576129d261200f565b5b6129df88828901612911565b935050606086013567ffffffffffffffff811115612a00576129ff61200f565b5b612a0c88828901612911565b925050608086013567ffffffffffffffff811115612a2d57612a2c61200f565b5b612a3988828901612911565b9150509295509295909350565b612a4f81612197565b8114612a5a57600080fd5b50565b600081359050612a6c81612a46565b92915050565b60008060408385031215612a8957612a8861200a565b5b6000612a978582860161205d565b9250506020612aa885828601612a5d565b9150509250929050565b600080600080600060a08688031215612ace57612acd61200a565b5b6000612adc8882890161205d565b955050602086013567ffffffffffffffff811115612afd57612afc61200f565b5b612b098882890161285c565b945050604086013567ffffffffffffffff811115612b2a57612b2961200f565b5b612b368882890161285c565b935050606086013567ffffffffffffffff811115612b5757612b5661200f565b5b612b638882890161285c565b925050608086013567ffffffffffffffff811115612b8457612b8361200f565b5b612b908882890161285c565b9150509295509295909350565b60008060408385031215612bb457612bb361200a565b5b6000612bc28582860161205d565b9250506020612bd38582860161205d565b9150509250929050565b600080600080600060a08688031215612bf957612bf861200a565b5b6000612c078882890161205d565b9550506020612c188882890161205d565b9450506040612c2988828901612093565b9350506060612c3a88828901612093565b925050608086013567ffffffffffffffff811115612c5b57612c5a61200f565b5b612c678882890161247b565b9150509295509295909350565b7f455243313135353a2061646472657373207a65726f206973206e6f742061207660008201527f616c6964206f776e657200000000000000000000000000000000000000000000602082015250565b6000612cd0602a83612205565b9150612cdb82612c74565b604082019050919050565b60006020820190508181036000830152612cff81612cc3565b9050919050565b7f4e487b7100000000000000000000000000000000000000000000000000000000600052602260045260246000fd5b60006002820490506001821680612d4d57607f821691505b602082108103612d6057612d5f612d06565b5b50919050565b600081905092915050565b60008190508160005260206000209050919050565b60008154612d9381612d35565b612d9d8186612d66565b94506001821660008114612db85760018114612dcd57612e00565b60ff1983168652811515820286019350612e00565b612dd685612d71565b60005b83811015612df857815481890152600182019150602081019050612dd9565b838801955050505b50505092915050565b6000612e14826121fa565b612e1e8185612d66565b9350612e2e818560208601612216565b80840191505092915050565b6000612e468285612d86565b9150612e528284612e09565b91508190509392505050565b7f455243313135353a2063616c6c6572206973206e6f7420746f6b656e206f776e60008201527f6572206f7220617070726f766564000000000000000000000000000000000000602082015250565b6000612eba602e83612205565b9150612ec582612e5e565b604082019050919050565b60006020820190508181036000830152612ee981612ead565b9050919050565b7f455243313135353a206163636f756e747320616e6420696473206c656e67746860008201527f206d69736d617463680000000000000000000000000000000000000000000000602082015250565b6000612f4c602983612205565b9150612f5782612ef0565b604082019050919050565b60006020820190508181036000830152612f7b81612f3f565b9050919050565b7f4e487b7100000000000000000000000000000000000000000000000000000000600052603260045260246000fd5b7f4e487b7100000000000000000000000000000000000000000000000000000000600052601160045260246000fd5b6000612feb82612072565b91507fffffffffffffffffffffffffffffffffffffffffffffffffffffffffffffffff820361301d5761301c612fb1565b5b600182019050919050565b7f416c6c20617272617973206d7573742068617665207468652073616d65206c6560008201527f6e67746800000000000000000000000000000000000000000000000000000000602082015250565b6000613084602483612205565b915061308f82613028565b604082019050919050565b600060208201905081810360008301526130b381613077565b9050919050565b7f4f6e6c79206f776e65722063616e206d696e7400000000000000000000000000600082015250565b60006130f0601383612205565b91506130fb826130ba565b602082019050919050565b6000602082019050818103600083015261311f816130e3565b9050919050565b60006131328284612e09565b915081905092915050565b7f41737369676e204e465420230000000000000000000000000000000000000000600082015250565b6000613173600c83612d66565b915061317e8261313d565b600c82019050919050565b7f205465616d2d0000000000000000000000000000000000000000000000000000600082015250565b60006131bf600683612d66565b91506131ca82613189565b600682019050919050565b60006131e082613166565b91506131ec8285612e09565b91506131f7826131b2565b91506132038284612e09565b91508190509392505050565b7f436f6d706c657465204e46542023000000000000000000000000000000000000600082015250565b6000613245600e83612d66565b91506132508261320f565b600e82019050919050565b600061326682613238565b91506132728285612e09565b915061327d826131b2565b91506132898284612e09565b91508190509392505050565b7f7b2261747472696275746573223a5b7b22646973706c61795f74797065223a2260008201527f6e756d626572222c2274726169745f74797065223a224944222c2276616c756560208201527f223a000000000000000000000000000000000000000000000000000000000000604082015250565b6000613317604283612d66565b915061332282613295565b604282019050919050565b7f7d2c7b2274726169745f74797065223a225461736b4944222c2276616c75652260008201527f3a22000000000000000000000000000000000000000000000000000000000000602082015250565b6000613389602283612d66565b91506133948261332d565b602282019050919050565b7f227d2c207b2274726169745f74797065223a225465616d222c2276616c75652260008201527f3a22000000000000000000000000000000000000000000000000000000000000602082015250565b60006133fb602283612d66565b91506134068261339f565b602282019050919050565b7f227d2c207b2274726169745f74797065223a2254797065222c2276616c75652260008201527f3a22000000000000000000000000000000000000000000000000000000000000602082015250565b600061346d602283612d66565b915061347882613411565b602282019050919050565b7f227d5d2c20226e616d65223a2200000000000000000000000000000000000000600082015250565b60006134b9600d83612d66565b91506134c482613483565b600d82019050919050565b7f222c2273796d626f6c223a22554e595445000000000000000000000000000000600082015250565b6000613505601183612d66565b9150613510826134cf565b601182019050919050565b7f222c226465736372697074696f6e223a224e46547320617474657374696e672060008201527f746f20746865697220636f6e747269627574696f6e20696e207468652044414f60208201527f73207265636f7264656420627920556e7974652e205769746820556e7974652c60408201527f206d656d626572732063616e20656173696c79207265636f72642070726f706f60608201527f73616c732c20636f6e747269627574696f6e7320616e6420707261697365206360808201527f6f6d6d656e7473207573696e6720736c61736820636f6d6d616e64732e20576560a08201527f2063616e20616c736f2073656e6420455243323020746f6b656e732c204e465460c08201527f206f7220574c20646570656e64696e67206f6e2077686174206973206265696e60e08201527f67207265636f726465642e204d6f726520696e666f3a2068747470733a2f2f756101008201527f6e7974652e7465616d2f222c22696d616765223a20220000000000000000000061012082015250565b60006136aa61013683612d66565b91506136b58261351b565b61013682019050919050565b7f222c2265787465726e616c5f75726c223a202268747470733a2f2f626574612e60008201527f756e7974652e7465616d2f227d00000000000000000000000000000000000000602082015250565b600061371d602d83612d66565b9150613728826136c1565b602d82019050919050565b600061373e8261330a565b915061374a8289612e09565b91506137558261337c565b91506137618288612e09565b915061376c826133ee565b91506137788287612e09565b915061378382613460565b915061378f8286612e09565b915061379a826134ac565b91506137a68285612e09565b91506137b1826134f8565b91506137bc8261369c565b91506137c88284612e09565b91506137d382613710565b9150819050979650505050505050565b7f646174613a6170706c69636174696f6e2f6a736f6e3b6261736536342c000000600082015250565b6000613819601d83612d66565b9150613824826137e3565b601d82019050919050565b600061383a8261380c565b91506138468284612e09565b915081905092915050565b7f455243313135353a2069647320616e6420616d6f756e7473206c656e6774682060008201527f6d69736d61746368000000000000000000000000000000000000000000000000602082015250565b60006138ad602883612205565b91506138b882613851565b604082019050919050565b600060208201905081810360008301526138dc816138a0565b9050919050565b7f455243313135353a207472616e7366657220746f20746865207a65726f20616460008201527f6472657373000000000000000000000000000000000000000000000000000000602082015250565b600061393f602583612205565b915061394a826138e3565b604082019050919050565b6000602082019050818103600083015261396e81613932565b9050919050565b7f455243313135353a20696e73756666696369656e742062616c616e636520666f60008201527f72207472616e7366657200000000000000000000000000000000000000000000602082015250565b60006139d1602a83612205565b91506139dc82613975565b604082019050919050565b60006020820190508181036000830152613a00816139c4565b9050919050565b6000613a1282612072565b9150613a1d83612072565b9250828201905080821115613a3557613a34612fb1565b5b92915050565b60006040820190508181036000830152613a558185612713565b90508181036020830152613a698184612713565b90509392505050565b7f455243313135353a2073657474696e6720617070726f76616c2073746174757360008201527f20666f722073656c660000000000000000000000000000000000000000000000602082015250565b6000613ace602983612205565b9150613ad982613a72565b604082019050919050565b60006020820190508181036000830152613afd81613ac1565b9050919050565b7f4e487b7100000000000000000000000000000000000000000000000000000000600052601260045260246000fd5b6000613b3e82612072565b9150613b4983612072565b925082613b5957613b58613b04565b5b828204905092915050565b6000613b6f82612072565b9150613b7a83612072565b9250828202613b8881612072565b91508282048414831517613b9f57613b9e612fb1565b5b5092915050565b7f455243313135353a206d696e7420746f20746865207a65726f2061646472657360008201527f7300000000000000000000000000000000000000000000000000000000000000602082015250565b6000613c02602183612205565b9150613c0d82613ba6565b604082019050919050565b60006020820190508181036000830152613c3181613bf5565b9050919050565b6000604082019050613c4d60008301856120e8565b613c5a60208301846120e8565b9392505050565b60006020601f8301049050919050565b600082821b905092915050565b600060088302613cae7fffffffffffffffffffffffffffffffffffffffffffffffffffffffffffffffff82613c71565b613cb88683613c71565b95508019841693508086168417925050509392505050565b6000819050919050565b6000613cf5613cf0613ceb84612072565b613cd0565b612072565b9050919050565b6000819050919050565b613d0f83613cda565b613d23613d1b82613cfc565b848454613c7e565b825550505050565b600090565b613d38613d2b565b613d43818484613d06565b505050565b5b81811015613d6757613d5c600082613d30565b600181019050613d49565b5050565b601f821115613dac57613d7d81612d71565b613d8684613c61565b81016020851015613d95578190505b613da9613da185613c61565b830182613d48565b50505b505050565b600082821c905092915050565b6000613dcf60001984600802613db1565b1980831691505092915050565b6000613de88383613dbe565b9150826002028217905092915050565b613e01826121fa565b67ffffffffffffffff811115613e1a57613e196122b1565b5b613e248254612d35565b613e2f828285613d6b565b600060209050601f831160018114613e625760008415613e50578287015190505b613e5a8582613ddc565b865550613ec2565b601f198416613e7086612d71565b60005b82811015613e9857848901518255600182019150602085019450602081019050613e73565b86831015613eb55784890151613eb1601f891682613dbe565b8355505b6001600288020188555050505b505050505050565b600081519050919050565b600082825260208201905092915050565b6000613ef182613eca565b613efb8185613ed5565b9350613f0b818560208601612216565b613f1481612240565b840191505092915050565b600060a082019050613f346000830188612793565b613f416020830187612793565b8181036040830152613f538186612713565b90508181036060830152613f678185612713565b90508181036080830152613f7b8184613ee6565b90509695505050505050565b600081519050613f968161213e565b92915050565b600060208284031215613fb257613fb161200a565b5b6000613fc084828501613f87565b91505092915050565b60008160e01c9050919050565b600060033d1115613ff55760046000803e613ff2600051613fc9565b90505b90565b600060443d106140855761400a612000565b60043d036004823e80513d602482011167ffffffffffffffff82111715614032575050614085565b808201805167ffffffffffffffff8111156140505750505050614085565b80602083010160043d03850181111561406d575050505050614085565b61407c826020018501866122e0565b82955050505050505b90565b7f455243313135353a207472616e7366657220746f206e6f6e2d4552433131353560008201527f526563656976657220696d706c656d656e746572000000000000000000000000602082015250565b60006140e4603483612205565b91506140ef82614088565b604082019050919050565b60006020820190508181036000830152614113816140d7565b9050919050565b7f455243313135353a204552433131353552656365697665722072656a6563746560008201527f6420746f6b656e73000000000000000000000000000000000000000000000000602082015250565b6000614176602883612205565b91506141818261411a565b604082019050919050565b600060208201905081810360008301526141a581614169565b9050919050565b600060a0820190506141c16000830188612793565b6141ce6020830187612793565b6141db60408301866120e8565b6141e860608301856120e8565b81810360808301526141fa8184613ee6565b9050969550505050505056fe4142434445464748494a4b4c4d4e4f505152535455565758595a6162636465666768696a6b6c6d6e6f707172737475767778797a303132333435363738392b2fa26469706673582212200b071a36f1b981410c7407ee21509fc1ab36f2a7d2681cb9119c872b871f7b6364736f6c63430008120033",
  "linkReferences": {},
  "deployedLinkReferences": {}
}