{
  "_format": "hh-sol-artifact-1",
  "contractName": "Hackathon",
  "sourceName": "contracts/Hackathon.sol",
  "abi": [
    {
      "inputs": [],
      "stateMutability": "nonpayable",
      "type": "constructor"
    },
    {
      "anonymous": false,
      "inputs": [
        {
          "indexed": true,
          "internalType": "address",
          "name": "account",
          "type": "address"
        },
        {
          "indexed": true,
          "internalType": "address",
          "name": "operator",
          "type": "address"
        },
        {
          "indexed": false,
          "internalType": "bool",
          "name": "approved",
          "type": "bool"
        }
      ],
      "name": "ApprovalForAll",
      "type": "event"
    },
    {
      "anonymous": false,
      "inputs": [
        {
          "indexed": true,
          "internalType": "address",
          "name": "to",
          "type": "address"
        },
        {
          "indexed": true,
          "internalType": "string",
          "name": "documentId",
          "type": "string"
        },
        {
          "indexed": false,
          "internalType": "string",
          "name": "taskId",
          "type": "string"
        }
      ],
      "name": "Mint",
      "type": "event"
    },
    {
      "anonymous": false,
      "inputs": [
        {
          "indexed": true,
          "internalType": "address",
          "name": "operator",
          "type": "address"
        },
        {
          "indexed": true,
          "internalType": "address",
          "name": "from",
          "type": "address"
        },
        {
          "indexed": true,
          "internalType": "address",
          "name": "to",
          "type": "address"
        },
        {
          "indexed": false,
          "internalType": "uint256[]",
          "name": "ids",
          "type": "uint256[]"
        },
        {
          "indexed": false,
          "internalType": "uint256[]",
          "name": "values",
          "type": "uint256[]"
        }
      ],
      "name": "TransferBatch",
      "type": "event"
    },
    {
      "anonymous": false,
      "inputs": [
        {
          "indexed": true,
          "internalType": "address",
          "name": "operator",
          "type": "address"
        },
        {
          "indexed": true,
          "internalType": "address",
          "name": "from",
          "type": "address"
        },
        {
          "indexed": true,
          "internalType": "address",
          "name": "to",
          "type": "address"
        },
        {
          "indexed": false,
          "internalType": "uint256",
          "name": "id",
          "type": "uint256"
        },
        {
          "indexed": false,
          "internalType": "uint256",
          "name": "value",
          "type": "uint256"
        }
      ],
      "name": "TransferSingle",
      "type": "event"
    },
    {
      "anonymous": false,
      "inputs": [
        {
          "indexed": false,
          "internalType": "string",
          "name": "value",
          "type": "string"
        },
        {
          "indexed": true,
          "internalType": "uint256",
          "name": "id",
          "type": "uint256"
        }
      ],
      "name": "URI",
      "type": "event"
    },
    {
      "inputs": [
        {
          "internalType": "address",
          "name": "account",
          "type": "address"
        },
        {
          "internalType": "uint256",
          "name": "id",
          "type": "uint256"
        }
      ],
      "name": "balanceOf",
      "outputs": [
        {
          "internalType": "uint256",
          "name": "",
          "type": "uint256"
        }
      ],
      "stateMutability": "view",
      "type": "function"
    },
    {
      "inputs": [
        {
          "internalType": "address[]",
          "name": "accounts",
          "type": "address[]"
        },
        {
          "internalType": "uint256[]",
          "name": "ids",
          "type": "uint256[]"
        }
      ],
      "name": "balanceOfBatch",
      "outputs": [
        {
          "internalType": "uint256[]",
          "name": "",
          "type": "uint256[]"
        }
      ],
      "stateMutability": "view",
      "type": "function"
    },
    {
      "inputs": [
        {
          "internalType": "address",
          "name": "account",
          "type": "address"
        },
        {
          "internalType": "address",
          "name": "operator",
          "type": "address"
        }
      ],
      "name": "isApprovedForAll",
      "outputs": [
        {
          "internalType": "bool",
          "name": "",
          "type": "bool"
        }
      ],
      "stateMutability": "view",
      "type": "function"
    },
    {
      "inputs": [
        {
          "internalType": "address",
          "name": "_owner",
          "type": "address"
        },
        {
          "internalType": "string",
          "name": "_ipfsLink",
          "type": "string"
        },
        {
          "internalType": "string",
          "name": "_type",
          "type": "string"
        },
        {
          "internalType": "string",
          "name": "_team",
          "type": "string"
        },
        {
          "internalType": "string",
          "name": "_taskId",
          "type": "string"
        },
        {
          "internalType": "string",
          "name": "_documentId",
          "type": "string"
        }
      ],
      "name": "mint",
      "outputs": [],
      "stateMutability": "nonpayable",
      "type": "function"
    },
    {
      "inputs": [
        {
          "internalType": "address[]",
          "name": "_owners",
          "type": "address[]"
        },
        {
          "internalType": "string[]",
          "name": "_ipfsLinks",
          "type": "string[]"
        },
        {
          "internalType": "string[]",
          "name": "_types",
          "type": "string[]"
        },
        {
          "internalType": "string[]",
          "name": "_teams",
          "type": "string[]"
        },
        {
          "internalType": "string[]",
          "name": "_taskIds",
          "type": "string[]"
        },
        {
          "internalType": "string[]",
          "name": "_documentIds",
          "type": "string[]"
        }
      ],
      "name": "mintBatch",
      "outputs": [],
      "stateMutability": "nonpayable",
      "type": "function"
    },
    {
      "inputs": [],
      "name": "owner",
      "outputs": [
        {
          "internalType": "address",
          "name": "",
          "type": "address"
        }
      ],
      "stateMutability": "view",
      "type": "function"
    },
    {
      "inputs": [
        {
          "internalType": "address",
          "name": "from",
          "type": "address"
        },
        {
          "internalType": "address",
          "name": "to",
          "type": "address"
        },
        {
          "internalType": "uint256[]",
          "name": "ids",
          "type": "uint256[]"
        },
        {
          "internalType": "uint256[]",
          "name": "amounts",
          "type": "uint256[]"
        },
        {
          "internalType": "bytes",
          "name": "data",
          "type": "bytes"
        }
      ],
      "name": "safeBatchTransferFrom",
      "outputs": [],
      "stateMutability": "nonpayable",
      "type": "function"
    },
    {
      "inputs": [
        {
          "internalType": "address",
          "name": "from",
          "type": "address"
        },
        {
          "internalType": "address",
          "name": "to",
          "type": "address"
        },
        {
          "internalType": "uint256",
          "name": "id",
          "type": "uint256"
        },
        {
          "internalType": "uint256",
          "name": "amount",
          "type": "uint256"
        },
        {
          "internalType": "bytes",
          "name": "data",
          "type": "bytes"
        }
      ],
      "name": "safeTransferFrom",
      "outputs": [],
      "stateMutability": "nonpayable",
      "type": "function"
    },
    {
      "inputs": [
        {
          "internalType": "address",
          "name": "operator",
          "type": "address"
        },
        {
          "internalType": "bool",
          "name": "approved",
          "type": "bool"
        }
      ],
      "name": "setApprovalForAll",
      "outputs": [],
      "stateMutability": "nonpayable",
      "type": "function"
    },
    {
      "inputs": [
        {
          "internalType": "bytes4",
          "name": "interfaceId",
          "type": "bytes4"
        }
      ],
      "name": "supportsInterface",
      "outputs": [
        {
          "internalType": "bool",
          "name": "",
          "type": "bool"
        }
      ],
      "stateMutability": "view",
      "type": "function"
    },
    {
      "inputs": [
        {
          "internalType": "uint256",
          "name": "tokenId",
          "type": "uint256"
        }
      ],
      "name": "uri",
      "outputs": [
        {
          "internalType": "string",
          "name": "",
          "type": "string"
        }
      ],
      "stateMutability": "view",
      "type": "function"
    }
  ],
  "bytecode": "0x6080604052604051806020016040528060008152506003908162000024919062000356565b5060006005553480156200003757600080fd5b506040518060400160405280600a81526020017f556e797465546f6b656e000000000000000000000000000000000000000000008152506200007f81620000c760201b60201c565b5033600660006101000a81548173ffffffffffffffffffffffffffffffffffffffff021916908373ffffffffffffffffffffffffffffffffffffffff1602179055506200043d565b8060029081620000d8919062000356565b5050565b600081519050919050565b7f4e487b7100000000000000000000000000000000000000000000000000000000600052604160045260246000fd5b7f4e487b7100000000000000000000000000000000000000000000000000000000600052602260045260246000fd5b600060028204905060018216806200015e57607f821691505b60208210810362000174576200017362000116565b5b50919050565b60008190508160005260206000209050919050565b60006020601f8301049050919050565b600082821b905092915050565b600060088302620001de7fffffffffffffffffffffffffffffffffffffffffffffffffffffffffffffffff826200019f565b620001ea86836200019f565b95508019841693508086168417925050509392505050565b6000819050919050565b6000819050919050565b600062000237620002316200022b8462000202565b6200020c565b62000202565b9050919050565b6000819050919050565b620002538362000216565b6200026b62000262826200023e565b848454620001ac565b825550505050565b600090565b6200028262000273565b6200028f81848462000248565b505050565b5b81811015620002b757620002ab60008262000278565b60018101905062000295565b5050565b601f8211156200030657620002d0816200017a565b620002db846200018f565b81016020851015620002eb578190505b62000303620002fa856200018f565b83018262000294565b50505b505050565b600082821c905092915050565b60006200032b600019846008026200030b565b1980831691505092915050565b600062000346838362000318565b9150826002028217905092915050565b6200036182620000dc565b67ffffffffffffffff8111156200037d576200037c620000e7565b5b62000389825462000145565b62000396828285620002bb565b600060209050601f831160018114620003ce5760008415620003b9578287015190505b620003c5858262000338565b86555062000435565b601f198416620003de866200017a565b60005b828110156200040857848901518255600182019150602085019450602081019050620003e1565b8683101562000428578489015162000424601f89168262000318565b8355505b6001600288020188555050505b505050505050565b614359806200044d6000396000f3fe608060405234801561001057600080fd5b50600436106100a85760003560e01c80634e1273f4116100715780634e1273f4146101755780638da5cb5b146101a5578063a01ffc78146101c3578063a22cb465146101df578063e985e9c5146101fb578063f242432a1461022b576100a8565b8062fdd58e146100ad57806301ffc9a7146100dd5780630d7c43f51461010d5780630e89341c146101295780632eb2c2d614610159575b600080fd5b6100c760048036038101906100c29190612129565b610247565b6040516100d49190612178565b60405180910390f35b6100f760048036038101906100f291906121eb565b61030f565b6040516101049190612233565b60405180910390f35b61012760048036038101906101229190612394565b6103f1565b005b610143600480360381019061013e91906124ad565b610799565b6040516101509190612559565b60405180910390f35b610173600480360381019061016e91906126e4565b61087e565b005b61018f600480360381019061018a9190612876565b61091f565b60405161019c91906129ac565b60405180910390f35b6101ad610a38565b6040516101ba91906129dd565b60405180910390f35b6101dd60048036038101906101d89190612ad9565b610a5e565b005b6101f960048036038101906101f49190612c3a565b610c1e565b005b61021560048036038101906102109190612c7a565b610c34565b6040516102229190612233565b60405180910390f35b61024560048036038101906102409190612cba565b610cc8565b005b60008073ffffffffffffffffffffffffffffffffffffffff168373ffffffffffffffffffffffffffffffffffffffff16036102b7576040517f08c379a00000000000000000000000000000000000000000000000000000000081526004016102ae90612dc3565b60405180910390fd5b60008083815260200190815260200160002060008473ffffffffffffffffffffffffffffffffffffffff1673ffffffffffffffffffffffffffffffffffffffff16815260200190815260200160002054905092915050565b60007fd9b67a26000000000000000000000000000000000000000000000000000000007bffffffffffffffffffffffffffffffffffffffffffffffffffffffff1916827bffffffffffffffffffffffffffffffffffffffffffffffffffffffff191614806103da57507f0e89341c000000000000000000000000000000000000000000000000000000007bffffffffffffffffffffffffffffffffffffffffffffffffffffffff1916827bffffffffffffffffffffffffffffffffffffffffffffffffffffffff1916145b806103ea57506103e982610d69565b5b9050919050565b600660009054906101000a900473ffffffffffffffffffffffffffffffffffffffff1673ffffffffffffffffffffffffffffffffffffffff163373ffffffffffffffffffffffffffffffffffffffff1614610481576040517f08c379a000000000000000000000000000000000000000000000000000000000815260040161047890612e2f565b60405180910390fd5b6005600081548092919061049490612e7e565b91905055506060806104a7600554610dd3565b90507f6868528ac7ceafbca1aecc9012d1057ccd95b2e4efd69b56f023757dcf69d9b4866040516020016104db9190612f02565b604051602081830303815290604052805190602001200361051f578085604051602001610509929190612fb1565b6040516020818303038152906040529150610592565b7f2d9fff2a7ab727ab3a0b82110e010fa1f0255381ea4e3bdfd2157c31836189ae866040516020016105519190612f02565b604051602081830303815290604052805190602001200361059157808560405160200161057f929190613037565b60405160208183030381529060405291505b5b6105d06040518060400160405280601181526020017f0a2d2d2d2d2d206e616d65202d2d2d2d2d000000000000000000000000000000815250610ea1565b6105d982610ea1565b6105e281610ea1565b6106206040518060400160405280601181526020017f2d2d2d2d2d2d2d2d2d2d2d2d2d2d2d2d0a000000000000000000000000000000815250610ea1565b60006106548286888a878d6040516020016106409695949392919061350f565b604051602081830303815290604052610f3a565b90506106946040518060400160405280601181526020017f0a2d2d2d2d2d204a534f4e202d2d2d2d2d000000000000000000000000000000815250610ea1565b61069d81610ea1565b6106db6040518060400160405280601181526020017f2d2d2d2d2d2d2d2d2d2d2d2d2d2d2d2d0a000000000000000000000000000000815250610ea1565b6000816040516020016106ee919061360b565b604051602081830303815290604052905061071d8a6005546001604051806020016040528060008152506110d1565b61072960055482611281565b846040516107379190612f02565b60405180910390208a73ffffffffffffffffffffffffffffffffffffffff167f35a0e34ee6c196b20f530d94282b96d57c4beda09ba5f603fe1baa387661d3c3886040516107859190612559565b60405180910390a350505050505050505050565b606060006004600084815260200190815260200160002080546107bb9061365c565b80601f01602080910402602001604051908101604052809291908181526020018280546107e79061365c565b80156108345780601f1061080957610100808354040283529160200191610834565b820191906000526020600020905b81548152906001019060200180831161081757829003601f168201915b5050505050905060008151116108525761084d836112e6565b610876565b600381604051602001610866929190613725565b6040516020818303038152906040525b915050919050565b61088661137a565b73ffffffffffffffffffffffffffffffffffffffff168573ffffffffffffffffffffffffffffffffffffffff1614806108cc57506108cb856108c661137a565b610c34565b5b61090b576040517f08c379a0000000000000000000000000000000000000000000000000000000008152600401610902906137bb565b60405180910390fd5b6109188585858585611382565b5050505050565b60608151835114610965576040517f08c379a000000000000000000000000000000000000000000000000000000000815260040161095c9061384d565b60405180910390fd5b6000835167ffffffffffffffff81111561098257610981612269565b5b6040519080825280602002602001820160405280156109b05781602001602082028036833780820191505090505b50905060005b8451811015610a2d576109fd8582815181106109d5576109d461386d565b5b60200260200101518583815181106109f0576109ef61386d565b5b6020026020010151610247565b828281518110610a1057610a0f61386d565b5b60200260200101818152505080610a2690612e7e565b90506109b6565b508091505092915050565b600660009054906101000a900473ffffffffffffffffffffffffffffffffffffffff1681565b84518651148015610a70575081518651145b8015610a7d575083518651145b610abc576040517f08c379a0000000000000000000000000000000000000000000000000000000008152600401610ab39061390e565b60405180910390fd5b600660009054906101000a900473ffffffffffffffffffffffffffffffffffffffff1673ffffffffffffffffffffffffffffffffffffffff163373ffffffffffffffffffffffffffffffffffffffff1614610b4c576040517f08c379a0000000000000000000000000000000000000000000000000000000008152600401610b4390612e2f565b60405180910390fd5b60005b8651811015610c1557610c02878281518110610b6e57610b6d61386d565b5b6020026020010151878381518110610b8957610b8861386d565b5b6020026020010151878481518110610ba457610ba361386d565b5b6020026020010151878581518110610bbf57610bbe61386d565b5b6020026020010151878681518110610bda57610bd961386d565b5b6020026020010151878781518110610bf557610bf461386d565b5b60200260200101516103f1565b8080610c0d90612e7e565b915050610b4f565b50505050505050565b610c30610c2961137a565b83836116a3565b5050565b6000600160008473ffffffffffffffffffffffffffffffffffffffff1673ffffffffffffffffffffffffffffffffffffffff16815260200190815260200160002060008373ffffffffffffffffffffffffffffffffffffffff1673ffffffffffffffffffffffffffffffffffffffff16815260200190815260200160002060009054906101000a900460ff16905092915050565b610cd061137a565b73ffffffffffffffffffffffffffffffffffffffff168573ffffffffffffffffffffffffffffffffffffffff161480610d165750610d1585610d1061137a565b610c34565b5b610d55576040517f08c379a0000000000000000000000000000000000000000000000000000000008152600401610d4c906137bb565b60405180910390fd5b610d62858585858561180f565b5050505050565b60007f01ffc9a7000000000000000000000000000000000000000000000000000000007bffffffffffffffffffffffffffffffffffffffffffffffffffffffff1916827bffffffffffffffffffffffffffffffffffffffffffffffffffffffff1916149050919050565b606060006001610de284611aaa565b01905060008167ffffffffffffffff811115610e0157610e00612269565b5b6040519080825280601f01601f191660200182016040528015610e335781602001600182028036833780820191505090505b509050600082602001820190505b600115610e96578080600190039150507f3031323334353637383961626364656600000000000000000000000000000000600a86061a8153600a8581610e8a57610e8961392e565b5b04945060008503610e41575b819350505050919050565b610f3781604051602401610eb59190612559565b6040516020818303038152906040527f41304fac000000000000000000000000000000000000000000000000000000007bffffffffffffffffffffffffffffffffffffffffffffffffffffffff19166020820180517bffffffffffffffffffffffffffffffffffffffffffffffffffffffff8381831617835250505050611bfd565b50565b606060008251905060008103610f6257604051806020016040528060008152509150506110cc565b60006003600283610f73919061395d565b610f7d9190613991565b6004610f8991906139c2565b90506000602082610f9a919061395d565b67ffffffffffffffff811115610fb357610fb2612269565b5b6040519080825280601f01601f191660200182016040528015610fe55781602001600182028036833780820191505090505b50905060006040518060600160405280604081526020016142e4604091399050600181016020830160005b868110156110895760038101905062ffffff818a015116603f8160121c168401518060081b905060ff603f83600c1c1686015116810190508060081b905060ff603f8360061c1686015116810190508060081b905060ff603f831686015116810190508060e01b90508084526004840193505050611010565b5060038606600181146110a357600281146110b3576110be565b613d3d60f01b60028303526110be565b603d60f81b60018303525b508484525050819450505050505b919050565b600073ffffffffffffffffffffffffffffffffffffffff168473ffffffffffffffffffffffffffffffffffffffff1603611140576040517f08c379a000000000000000000000000000000000000000000000000000000000815260040161113790613a76565b60405180910390fd5b600061114a61137a565b9050600061115785611c26565b9050600061116485611c26565b905061117583600089858589611ca0565b8460008088815260200190815260200160002060008973ffffffffffffffffffffffffffffffffffffffff1673ffffffffffffffffffffffffffffffffffffffff16815260200190815260200160002060008282546111d4919061395d565b925050819055508673ffffffffffffffffffffffffffffffffffffffff16600073ffffffffffffffffffffffffffffffffffffffff168473ffffffffffffffffffffffffffffffffffffffff167fc3d58168c5ae7397731d063d5bbf3d657854427343f4c083240f7aacaa2d0f628989604051611252929190613a96565b60405180910390a461126983600089858589611ca8565b61127883600089898989611cb0565b50505050505050565b806004600084815260200190815260200160002090816112a19190613c56565b50817f6bb7ff708619ba0610cba295a58592e0451dee2622938c8755667688daf3529b6112cd84610799565b6040516112da9190612559565b60405180910390a25050565b6060600280546112f59061365c565b80601f01602080910402602001604051908101604052809291908181526020018280546113219061365c565b801561136e5780601f106113435761010080835404028352916020019161136e565b820191906000526020600020905b81548152906001019060200180831161135157829003601f168201915b50505050509050919050565b600033905090565b81518351146113c6576040517f08c379a00000000000000000000000000000000000000000000000000000000081526004016113bd90613d9a565b60405180910390fd5b600073ffffffffffffffffffffffffffffffffffffffff168473ffffffffffffffffffffffffffffffffffffffff1603611435576040517f08c379a000000000000000000000000000000000000000000000000000000000815260040161142c90613e2c565b60405180910390fd5b600061143f61137a565b905061144f818787878787611ca0565b60005b84518110156116005760008582815181106114705761146f61386d565b5b60200260200101519050600085838151811061148f5761148e61386d565b5b60200260200101519050600080600084815260200190815260200160002060008b73ffffffffffffffffffffffffffffffffffffffff1673ffffffffffffffffffffffffffffffffffffffff16815260200190815260200160002054905081811015611530576040517f08c379a000000000000000000000000000000000000000000000000000000000815260040161152790613ebe565b60405180910390fd5b81810360008085815260200190815260200160002060008c73ffffffffffffffffffffffffffffffffffffffff1673ffffffffffffffffffffffffffffffffffffffff168152602001908152602001600020819055508160008085815260200190815260200160002060008b73ffffffffffffffffffffffffffffffffffffffff1673ffffffffffffffffffffffffffffffffffffffff16815260200190815260200160002060008282546115e5919061395d565b92505081905550505050806115f990612e7e565b9050611452565b508473ffffffffffffffffffffffffffffffffffffffff168673ffffffffffffffffffffffffffffffffffffffff168273ffffffffffffffffffffffffffffffffffffffff167f4a39dc06d4c0dbc64b70af90fd698a233a518aa5d07e595d983b8c0526c8f7fb8787604051611677929190613ede565b60405180910390a461168d818787878787611ca8565b61169b818787878787611e87565b505050505050565b8173ffffffffffffffffffffffffffffffffffffffff168373ffffffffffffffffffffffffffffffffffffffff1603611711576040517f08c379a000000000000000000000000000000000000000000000000000000000815260040161170890613f87565b60405180910390fd5b80600160008573ffffffffffffffffffffffffffffffffffffffff1673ffffffffffffffffffffffffffffffffffffffff16815260200190815260200160002060008473ffffffffffffffffffffffffffffffffffffffff1673ffffffffffffffffffffffffffffffffffffffff16815260200190815260200160002060006101000a81548160ff0219169083151502179055508173ffffffffffffffffffffffffffffffffffffffff168373ffffffffffffffffffffffffffffffffffffffff167f17307eab39ab6107e8899845ad3d59bd9653f200f220920489ca2b5937696c31836040516118029190612233565b60405180910390a3505050565b600073ffffffffffffffffffffffffffffffffffffffff168473ffffffffffffffffffffffffffffffffffffffff160361187e576040517f08c379a000000000000000000000000000000000000000000000000000000000815260040161187590613e2c565b60405180910390fd5b600061188861137a565b9050600061189585611c26565b905060006118a285611c26565b90506118b2838989858589611ca0565b600080600088815260200190815260200160002060008a73ffffffffffffffffffffffffffffffffffffffff1673ffffffffffffffffffffffffffffffffffffffff16815260200190815260200160002054905085811015611949576040517f08c379a000000000000000000000000000000000000000000000000000000000815260040161194090613ebe565b60405180910390fd5b85810360008089815260200190815260200160002060008b73ffffffffffffffffffffffffffffffffffffffff1673ffffffffffffffffffffffffffffffffffffffff168152602001908152602001600020819055508560008089815260200190815260200160002060008a73ffffffffffffffffffffffffffffffffffffffff1673ffffffffffffffffffffffffffffffffffffffff16815260200190815260200160002060008282546119fe919061395d565b925050819055508773ffffffffffffffffffffffffffffffffffffffff168973ffffffffffffffffffffffffffffffffffffffff168573ffffffffffffffffffffffffffffffffffffffff167fc3d58168c5ae7397731d063d5bbf3d657854427343f4c083240f7aacaa2d0f628a8a604051611a7b929190613a96565b60405180910390a4611a91848a8a86868a611ca8565b611a9f848a8a8a8a8a611cb0565b505050505050505050565b600080600090507a184f03e93ff9f4daa797ed6e38ed64bf6a1f0100000000000000008310611b08577a184f03e93ff9f4daa797ed6e38ed64bf6a1f0100000000000000008381611afe57611afd61392e565b5b0492506040810190505b6d04ee2d6d415b85acef81000000008310611b45576d04ee2d6d415b85acef81000000008381611b3b57611b3a61392e565b5b0492506020810190505b662386f26fc100008310611b7457662386f26fc100008381611b6a57611b6961392e565b5b0492506010810190505b6305f5e1008310611b9d576305f5e1008381611b9357611b9261392e565b5b0492506008810190505b6127108310611bc2576127108381611bb857611bb761392e565b5b0492506004810190505b60648310611be55760648381611bdb57611bda61392e565b5b0492506002810190505b600a8310611bf4576001810190505b80915050919050565b60008151905060006a636f6e736f6c652e6c6f679050602083016000808483855afa5050505050565b60606000600167ffffffffffffffff811115611c4557611c44612269565b5b604051908082528060200260200182016040528015611c735781602001602082028036833780820191505090505b5090508281600081518110611c8b57611c8a61386d565b5b60200260200101818152505080915050919050565b505050505050565b505050505050565b611ccf8473ffffffffffffffffffffffffffffffffffffffff1661205e565b15611e7f578373ffffffffffffffffffffffffffffffffffffffff1663f23a6e6187878686866040518663ffffffff1660e01b8152600401611d15959493929190613ffc565b6020604051808303816000875af1925050508015611d5157506040513d601f19601f82011682018060405250810190611d4e919061406b565b60015b611df657611d5d6140a5565b806308c379a003611db95750611d716140c7565b80611d7c5750611dbb565b806040517f08c379a0000000000000000000000000000000000000000000000000000000008152600401611db09190612559565b60405180910390fd5b505b6040517f08c379a0000000000000000000000000000000000000000000000000000000008152600401611ded906141c9565b60405180910390fd5b63f23a6e6160e01b7bffffffffffffffffffffffffffffffffffffffffffffffffffffffff1916817bffffffffffffffffffffffffffffffffffffffffffffffffffffffff191614611e7d576040517f08c379a0000000000000000000000000000000000000000000000000000000008152600401611e749061425b565b60405180910390fd5b505b505050505050565b611ea68473ffffffffffffffffffffffffffffffffffffffff1661205e565b15612056578373ffffffffffffffffffffffffffffffffffffffff1663bc197c8187878686866040518663ffffffff1660e01b8152600401611eec95949392919061427b565b6020604051808303816000875af1925050508015611f2857506040513d601f19601f82011682018060405250810190611f25919061406b565b60015b611fcd57611f346140a5565b806308c379a003611f905750611f486140c7565b80611f535750611f92565b806040517f08c379a0000000000000000000000000000000000000000000000000000000008152600401611f879190612559565b60405180910390fd5b505b6040517f08c379a0000000000000000000000000000000000000000000000000000000008152600401611fc4906141c9565b60405180910390fd5b63bc197c8160e01b7bffffffffffffffffffffffffffffffffffffffffffffffffffffffff1916817bffffffffffffffffffffffffffffffffffffffffffffffffffffffff191614612054576040517f08c379a000000000000000000000000000000000000000000000000000000000815260040161204b9061425b565b60405180910390fd5b505b505050505050565b6000808273ffffffffffffffffffffffffffffffffffffffff163b119050919050565b6000604051905090565b600080fd5b600080fd5b600073ffffffffffffffffffffffffffffffffffffffff82169050919050565b60006120c082612095565b9050919050565b6120d0816120b5565b81146120db57600080fd5b50565b6000813590506120ed816120c7565b92915050565b6000819050919050565b612106816120f3565b811461211157600080fd5b50565b600081359050612123816120fd565b92915050565b600080604083850312156121405761213f61208b565b5b600061214e858286016120de565b925050602061215f85828601612114565b9150509250929050565b612172816120f3565b82525050565b600060208201905061218d6000830184612169565b92915050565b60007fffffffff0000000000000000000000000000000000000000000000000000000082169050919050565b6121c881612193565b81146121d357600080fd5b50565b6000813590506121e5816121bf565b92915050565b6000602082840312156122015761220061208b565b5b600061220f848285016121d6565b91505092915050565b60008115159050919050565b61222d81612218565b82525050565b60006020820190506122486000830184612224565b92915050565b600080fd5b600080fd5b6000601f19601f8301169050919050565b7f4e487b7100000000000000000000000000000000000000000000000000000000600052604160045260246000fd5b6122a182612258565b810181811067ffffffffffffffff821117156122c0576122bf612269565b5b80604052505050565b60006122d3612081565b90506122df8282612298565b919050565b600067ffffffffffffffff8211156122ff576122fe612269565b5b61230882612258565b9050602081019050919050565b82818337600083830152505050565b6000612337612332846122e4565b6122c9565b90508281526020810184848401111561235357612352612253565b5b61235e848285612315565b509392505050565b600082601f83011261237b5761237a61224e565b5b813561238b848260208601612324565b91505092915050565b60008060008060008060c087890312156123b1576123b061208b565b5b60006123bf89828a016120de565b965050602087013567ffffffffffffffff8111156123e0576123df612090565b5b6123ec89828a01612366565b955050604087013567ffffffffffffffff81111561240d5761240c612090565b5b61241989828a01612366565b945050606087013567ffffffffffffffff81111561243a57612439612090565b5b61244689828a01612366565b935050608087013567ffffffffffffffff81111561246757612466612090565b5b61247389828a01612366565b92505060a087013567ffffffffffffffff81111561249457612493612090565b5b6124a089828a01612366565b9150509295509295509295565b6000602082840312156124c3576124c261208b565b5b60006124d184828501612114565b91505092915050565b600081519050919050565b600082825260208201905092915050565b60005b838110156125145780820151818401526020810190506124f9565b60008484015250505050565b600061252b826124da565b61253581856124e5565b93506125458185602086016124f6565b61254e81612258565b840191505092915050565b600060208201905081810360008301526125738184612520565b905092915050565b600067ffffffffffffffff82111561259657612595612269565b5b602082029050602081019050919050565b600080fd5b60006125bf6125ba8461257b565b6122c9565b905080838252602082019050602084028301858111156125e2576125e16125a7565b5b835b8181101561260b57806125f78882612114565b8452602084019350506020810190506125e4565b5050509392505050565b600082601f83011261262a5761262961224e565b5b813561263a8482602086016125ac565b91505092915050565b600067ffffffffffffffff82111561265e5761265d612269565b5b61266782612258565b9050602081019050919050565b600061268761268284612643565b6122c9565b9050828152602081018484840111156126a3576126a2612253565b5b6126ae848285612315565b509392505050565b600082601f8301126126cb576126ca61224e565b5b81356126db848260208601612674565b91505092915050565b600080600080600060a08688031215612700576126ff61208b565b5b600061270e888289016120de565b955050602061271f888289016120de565b945050604086013567ffffffffffffffff8111156127405761273f612090565b5b61274c88828901612615565b935050606086013567ffffffffffffffff81111561276d5761276c612090565b5b61277988828901612615565b925050608086013567ffffffffffffffff81111561279a57612799612090565b5b6127a6888289016126b6565b9150509295509295909350565b600067ffffffffffffffff8211156127ce576127cd612269565b5b602082029050602081019050919050565b60006127f26127ed846127b3565b6122c9565b90508083825260208201905060208402830185811115612815576128146125a7565b5b835b8181101561283e578061282a88826120de565b845260208401935050602081019050612817565b5050509392505050565b600082601f83011261285d5761285c61224e565b5b813561286d8482602086016127df565b91505092915050565b6000806040838503121561288d5761288c61208b565b5b600083013567ffffffffffffffff8111156128ab576128aa612090565b5b6128b785828601612848565b925050602083013567ffffffffffffffff8111156128d8576128d7612090565b5b6128e485828601612615565b9150509250929050565b600081519050919050565b600082825260208201905092915050565b6000819050602082019050919050565b612923816120f3565b82525050565b6000612935838361291a565b60208301905092915050565b6000602082019050919050565b6000612959826128ee565b61296381856128f9565b935061296e8361290a565b8060005b8381101561299f5781516129868882612929565b975061299183612941565b925050600181019050612972565b5085935050505092915050565b600060208201905081810360008301526129c6818461294e565b905092915050565b6129d7816120b5565b82525050565b60006020820190506129f260008301846129ce565b92915050565b600067ffffffffffffffff821115612a1357612a12612269565b5b602082029050602081019050919050565b6000612a37612a32846129f8565b6122c9565b90508083825260208201905060208402830185811115612a5a57612a596125a7565b5b835b81811015612aa157803567ffffffffffffffff811115612a7f57612a7e61224e565b5b808601612a8c8982612366565b85526020850194505050602081019050612a5c565b5050509392505050565b600082601f830112612ac057612abf61224e565b5b8135612ad0848260208601612a24565b91505092915050565b60008060008060008060c08789031215612af657612af561208b565b5b600087013567ffffffffffffffff811115612b1457612b13612090565b5b612b2089828a01612848565b965050602087013567ffffffffffffffff811115612b4157612b40612090565b5b612b4d89828a01612aab565b955050604087013567ffffffffffffffff811115612b6e57612b6d612090565b5b612b7a89828a01612aab565b945050606087013567ffffffffffffffff811115612b9b57612b9a612090565b5b612ba789828a01612aab565b935050608087013567ffffffffffffffff811115612bc857612bc7612090565b5b612bd489828a01612aab565b92505060a087013567ffffffffffffffff811115612bf557612bf4612090565b5b612c0189828a01612aab565b9150509295509295509295565b612c1781612218565b8114612c2257600080fd5b50565b600081359050612c3481612c0e565b92915050565b60008060408385031215612c5157612c5061208b565b5b6000612c5f858286016120de565b9250506020612c7085828601612c25565b9150509250929050565b60008060408385031215612c9157612c9061208b565b5b6000612c9f858286016120de565b9250506020612cb0858286016120de565b9150509250929050565b600080600080600060a08688031215612cd657612cd561208b565b5b6000612ce4888289016120de565b9550506020612cf5888289016120de565b9450506040612d0688828901612114565b9350506060612d1788828901612114565b925050608086013567ffffffffffffffff811115612d3857612d37612090565b5b612d44888289016126b6565b9150509295509295909350565b7f455243313135353a2061646472657373207a65726f206973206e6f742061207660008201527f616c6964206f776e657200000000000000000000000000000000000000000000602082015250565b6000612dad602a836124e5565b9150612db882612d51565b604082019050919050565b60006020820190508181036000830152612ddc81612da0565b9050919050565b7f4f6e6c79206f776e65722063616e206d696e7400000000000000000000000000600082015250565b6000612e196013836124e5565b9150612e2482612de3565b602082019050919050565b60006020820190508181036000830152612e4881612e0c565b9050919050565b7f4e487b7100000000000000000000000000000000000000000000000000000000600052601160045260246000fd5b6000612e89826120f3565b91507fffffffffffffffffffffffffffffffffffffffffffffffffffffffffffffffff8203612ebb57612eba612e4f565b5b600182019050919050565b600081905092915050565b6000612edc826124da565b612ee68185612ec6565b9350612ef68185602086016124f6565b80840191505092915050565b6000612f0e8284612ed1565b915081905092915050565b7f41737369676e204e465420230000000000000000000000000000000000000000600082015250565b6000612f4f600c83612ec6565b9150612f5a82612f19565b600c82019050919050565b7f205465616d2d0000000000000000000000000000000000000000000000000000600082015250565b6000612f9b600683612ec6565b9150612fa682612f65565b600682019050919050565b6000612fbc82612f42565b9150612fc88285612ed1565b9150612fd382612f8e565b9150612fdf8284612ed1565b91508190509392505050565b7f436f6d706c657465204e46542023000000000000000000000000000000000000600082015250565b6000613021600e83612ec6565b915061302c82612feb565b600e82019050919050565b600061304282613014565b915061304e8285612ed1565b915061305982612f8e565b91506130658284612ed1565b91508190509392505050565b7f7b2261747472696275746573223a5b7b22646973706c61795f74797065223a2260008201527f6e756d626572222c2274726169745f74797065223a224944222c2276616c756560208201527f223a000000000000000000000000000000000000000000000000000000000000604082015250565b60006130f3604283612ec6565b91506130fe82613071565b604282019050919050565b7f7d2c7b2274726169745f74797065223a225461736b4944222c2276616c75652260008201527f3a22000000000000000000000000000000000000000000000000000000000000602082015250565b6000613165602283612ec6565b915061317082613109565b602282019050919050565b7f227d2c207b2274726169745f74797065223a225465616d222c2276616c75652260008201527f3a22000000000000000000000000000000000000000000000000000000000000602082015250565b60006131d7602283612ec6565b91506131e28261317b565b602282019050919050565b7f227d2c207b2274726169745f74797065223a2254797065222c2276616c75652260008201527f3a22000000000000000000000000000000000000000000000000000000000000602082015250565b6000613249602283612ec6565b9150613254826131ed565b602282019050919050565b7f227d5d2c20226e616d65223a2200000000000000000000000000000000000000600082015250565b6000613295600d83612ec6565b91506132a08261325f565b600d82019050919050565b7f222c2273796d626f6c223a22554e595445000000000000000000000000000000600082015250565b60006132e1601183612ec6565b91506132ec826132ab565b601182019050919050565b7f222c226465736372697074696f6e223a224e46547320617474657374696e672060008201527f746f20746865697220636f6e747269627574696f6e20696e207468652044414f60208201527f73207265636f7264656420627920556e7974652e205769746820556e7974652c60408201527f206d656d626572732063616e20656173696c79207265636f72642070726f706f60608201527f73616c732c20636f6e747269627574696f6e7320616e6420707261697365206360808201527f6f6d6d656e7473207573696e6720736c61736820636f6d6d616e64732e20576560a08201527f2063616e20616c736f2073656e6420455243323020746f6b656e732c204e465460c08201527f206f7220574c20646570656e64696e67206f6e2077686174206973206265696e60e08201527f67207265636f726465642e204d6f726520696e666f3a2068747470733a2f2f756101008201527f6e7974652e7465616d2f222c22696d616765223a20220000000000000000000061012082015250565b600061348661013683612ec6565b9150613491826132f7565b61013682019050919050565b7f222c2265787465726e616c5f75726c223a202268747470733a2f2f626574612e60008201527f756e7974652e7465616d2f227d00000000000000000000000000000000000000602082015250565b60006134f9602d83612ec6565b91506135048261349d565b602d82019050919050565b600061351a826130e6565b91506135268289612ed1565b915061353182613158565b915061353d8288612ed1565b9150613548826131ca565b91506135548287612ed1565b915061355f8261323c565b915061356b8286612ed1565b915061357682613288565b91506135828285612ed1565b915061358d826132d4565b915061359882613478565b91506135a48284612ed1565b91506135af826134ec565b9150819050979650505050505050565b7f646174613a6170706c69636174696f6e2f6a736f6e3b6261736536342c000000600082015250565b60006135f5601d83612ec6565b9150613600826135bf565b601d82019050919050565b6000613616826135e8565b91506136228284612ed1565b915081905092915050565b7f4e487b7100000000000000000000000000000000000000000000000000000000600052602260045260246000fd5b6000600282049050600182168061367457607f821691505b6020821081036136875761368661362d565b5b50919050565b60008190508160005260206000209050919050565b600081546136af8161365c565b6136b98186612ec6565b945060018216600081146136d457600181146136e95761371c565b60ff198316865281151582028601935061371c565b6136f28561368d565b60005b83811015613714578154818901526001820191506020810190506136f5565b838801955050505b50505092915050565b600061373182856136a2565b915061373d8284612ed1565b91508190509392505050565b7f455243313135353a2063616c6c6572206973206e6f7420746f6b656e206f776e60008201527f6572206f7220617070726f766564000000000000000000000000000000000000602082015250565b60006137a5602e836124e5565b91506137b082613749565b604082019050919050565b600060208201905081810360008301526137d481613798565b9050919050565b7f455243313135353a206163636f756e747320616e6420696473206c656e67746860008201527f206d69736d617463680000000000000000000000000000000000000000000000602082015250565b60006138376029836124e5565b9150613842826137db565b604082019050919050565b600060208201905081810360008301526138668161382a565b9050919050565b7f4e487b7100000000000000000000000000000000000000000000000000000000600052603260045260246000fd5b7f416c6c20617272617973206d7573742068617665207468652073616d65206c6560008201527f6e67746800000000000000000000000000000000000000000000000000000000602082015250565b60006138f86024836124e5565b91506139038261389c565b604082019050919050565b60006020820190508181036000830152613927816138eb565b9050919050565b7f4e487b7100000000000000000000000000000000000000000000000000000000600052601260045260246000fd5b6000613968826120f3565b9150613973836120f3565b925082820190508082111561398b5761398a612e4f565b5b92915050565b600061399c826120f3565b91506139a7836120f3565b9250826139b7576139b661392e565b5b828204905092915050565b60006139cd826120f3565b91506139d8836120f3565b92508282026139e6816120f3565b915082820484148315176139fd576139fc612e4f565b5b5092915050565b7f455243313135353a206d696e7420746f20746865207a65726f2061646472657360008201527f7300000000000000000000000000000000000000000000000000000000000000602082015250565b6000613a606021836124e5565b9150613a6b82613a04565b604082019050919050565b60006020820190508181036000830152613a8f81613a53565b9050919050565b6000604082019050613aab6000830185612169565b613ab86020830184612169565b9392505050565b60006020601f8301049050919050565b600082821b905092915050565b600060088302613b0c7fffffffffffffffffffffffffffffffffffffffffffffffffffffffffffffffff82613acf565b613b168683613acf565b95508019841693508086168417925050509392505050565b6000819050919050565b6000613b53613b4e613b49846120f3565b613b2e565b6120f3565b9050919050565b6000819050919050565b613b6d83613b38565b613b81613b7982613b5a565b848454613adc565b825550505050565b600090565b613b96613b89565b613ba1818484613b64565b505050565b5b81811015613bc557613bba600082613b8e565b600181019050613ba7565b5050565b601f821115613c0a57613bdb8161368d565b613be484613abf565b81016020851015613bf3578190505b613c07613bff85613abf565b830182613ba6565b50505b505050565b600082821c905092915050565b6000613c2d60001984600802613c0f565b1980831691505092915050565b6000613c468383613c1c565b9150826002028217905092915050565b613c5f826124da565b67ffffffffffffffff811115613c7857613c77612269565b5b613c82825461365c565b613c8d828285613bc9565b600060209050601f831160018114613cc05760008415613cae578287015190505b613cb88582613c3a565b865550613d20565b601f198416613cce8661368d565b60005b82811015613cf657848901518255600182019150602085019450602081019050613cd1565b86831015613d135784890151613d0f601f891682613c1c565b8355505b6001600288020188555050505b505050505050565b7f455243313135353a2069647320616e6420616d6f756e7473206c656e6774682060008201527f6d69736d61746368000000000000000000000000000000000000000000000000602082015250565b6000613d846028836124e5565b9150613d8f82613d28565b604082019050919050565b60006020820190508181036000830152613db381613d77565b9050919050565b7f455243313135353a207472616e7366657220746f20746865207a65726f20616460008201527f6472657373000000000000000000000000000000000000000000000000000000602082015250565b6000613e166025836124e5565b9150613e2182613dba565b604082019050919050565b60006020820190508181036000830152613e4581613e09565b9050919050565b7f455243313135353a20696e73756666696369656e742062616c616e636520666f60008201527f72207472616e7366657200000000000000000000000000000000000000000000602082015250565b6000613ea8602a836124e5565b9150613eb382613e4c565b604082019050919050565b60006020820190508181036000830152613ed781613e9b565b9050919050565b60006040820190508181036000830152613ef8818561294e565b90508181036020830152613f0c818461294e565b90509392505050565b7f455243313135353a2073657474696e6720617070726f76616c2073746174757360008201527f20666f722073656c660000000000000000000000000000000000000000000000602082015250565b6000613f716029836124e5565b9150613f7c82613f15565b604082019050919050565b60006020820190508181036000830152613fa081613f64565b9050919050565b600081519050919050565b600082825260208201905092915050565b6000613fce82613fa7565b613fd88185613fb2565b9350613fe88185602086016124f6565b613ff181612258565b840191505092915050565b600060a08201905061401160008301886129ce565b61401e60208301876129ce565b61402b6040830186612169565b6140386060830185612169565b818103608083015261404a8184613fc3565b90509695505050505050565b600081519050614065816121bf565b92915050565b6000602082840312156140815761408061208b565b5b600061408f84828501614056565b91505092915050565b60008160e01c9050919050565b600060033d11156140c45760046000803e6140c1600051614098565b90505b90565b600060443d10614154576140d9612081565b60043d036004823e80513d602482011167ffffffffffffffff82111715614101575050614154565b808201805167ffffffffffffffff81111561411f5750505050614154565b80602083010160043d03850181111561413c575050505050614154565b61414b82602001850186612298565b82955050505050505b90565b7f455243313135353a207472616e7366657220746f206e6f6e2d4552433131353560008201527f526563656976657220696d706c656d656e746572000000000000000000000000602082015250565b60006141b36034836124e5565b91506141be82614157565b604082019050919050565b600060208201905081810360008301526141e2816141a6565b9050919050565b7f455243313135353a204552433131353552656365697665722072656a6563746560008201527f6420746f6b656e73000000000000000000000000000000000000000000000000602082015250565b60006142456028836124e5565b9150614250826141e9565b604082019050919050565b6000602082019050818103600083015261427481614238565b9050919050565b600060a08201905061429060008301886129ce565b61429d60208301876129ce565b81810360408301526142af818661294e565b905081810360608301526142c3818561294e565b905081810360808301526142d78184613fc3565b9050969550505050505056fe4142434445464748494a4b4c4d4e4f505152535455565758595a6162636465666768696a6b6c6d6e6f707172737475767778797a303132333435363738392b2fa26469706673582212206b71e7ba1e823088780a7f82c2c05c681c743c65d2cce01e0b5ff1ed3074af3664736f6c63430008120033",
  "linkReferences": {},
  "deployedLinkReferences": {}
}