{
  "_format": "hh-sol-artifact-1",
  "contractName": "Hackathon",
  "sourceName": "contracts/Hackathon.sol",
  "abi": [
    {
      "inputs": [],
      "stateMutability": "nonpayable",
      "type": "constructor"
    },
    {
      "anonymous": false,
      "inputs": [
        {
          "indexed": true,
          "internalType": "address",
          "name": "account",
          "type": "address"
        },
        {
          "indexed": true,
          "internalType": "address",
          "name": "operator",
          "type": "address"
        },
        {
          "indexed": false,
          "internalType": "bool",
          "name": "approved",
          "type": "bool"
        }
      ],
      "name": "ApprovalForAll",
      "type": "event"
    },
    {
      "anonymous": false,
      "inputs": [
        {
          "indexed": true,
          "internalType": "address",
          "name": "to",
          "type": "address"
        },
        {
          "indexed": true,
          "internalType": "string",
          "name": "documentId",
          "type": "string"
        },
        {
          "indexed": false,
          "internalType": "string",
          "name": "taskId",
          "type": "string"
        }
      ],
      "name": "Mint",
      "type": "event"
    },
    {
      "anonymous": false,
      "inputs": [
        {
          "indexed": true,
          "internalType": "address",
          "name": "operator",
          "type": "address"
        },
        {
          "indexed": true,
          "internalType": "address",
          "name": "from",
          "type": "address"
        },
        {
          "indexed": true,
          "internalType": "address",
          "name": "to",
          "type": "address"
        },
        {
          "indexed": false,
          "internalType": "uint256[]",
          "name": "ids",
          "type": "uint256[]"
        },
        {
          "indexed": false,
          "internalType": "uint256[]",
          "name": "values",
          "type": "uint256[]"
        }
      ],
      "name": "TransferBatch",
      "type": "event"
    },
    {
      "anonymous": false,
      "inputs": [
        {
          "indexed": true,
          "internalType": "address",
          "name": "operator",
          "type": "address"
        },
        {
          "indexed": true,
          "internalType": "address",
          "name": "from",
          "type": "address"
        },
        {
          "indexed": true,
          "internalType": "address",
          "name": "to",
          "type": "address"
        },
        {
          "indexed": false,
          "internalType": "uint256",
          "name": "id",
          "type": "uint256"
        },
        {
          "indexed": false,
          "internalType": "uint256",
          "name": "value",
          "type": "uint256"
        }
      ],
      "name": "TransferSingle",
      "type": "event"
    },
    {
      "anonymous": false,
      "inputs": [
        {
          "indexed": false,
          "internalType": "string",
          "name": "value",
          "type": "string"
        },
        {
          "indexed": true,
          "internalType": "uint256",
          "name": "id",
          "type": "uint256"
        }
      ],
      "name": "URI",
      "type": "event"
    },
    {
      "inputs": [
        {
          "internalType": "address",
          "name": "account",
          "type": "address"
        },
        {
          "internalType": "uint256",
          "name": "id",
          "type": "uint256"
        }
      ],
      "name": "balanceOf",
      "outputs": [
        {
          "internalType": "uint256",
          "name": "",
          "type": "uint256"
        }
      ],
      "stateMutability": "view",
      "type": "function"
    },
    {
      "inputs": [
        {
          "internalType": "address[]",
          "name": "accounts",
          "type": "address[]"
        },
        {
          "internalType": "uint256[]",
          "name": "ids",
          "type": "uint256[]"
        }
      ],
      "name": "balanceOfBatch",
      "outputs": [
        {
          "internalType": "uint256[]",
          "name": "",
          "type": "uint256[]"
        }
      ],
      "stateMutability": "view",
      "type": "function"
    },
    {
      "inputs": [
        {
          "internalType": "address",
          "name": "account",
          "type": "address"
        },
        {
          "internalType": "address",
          "name": "operator",
          "type": "address"
        }
      ],
      "name": "isApprovedForAll",
      "outputs": [
        {
          "internalType": "bool",
          "name": "",
          "type": "bool"
        }
      ],
      "stateMutability": "view",
      "type": "function"
    },
    {
      "inputs": [
        {
          "internalType": "address",
          "name": "_owner",
          "type": "address"
        },
        {
          "internalType": "string",
          "name": "_ipfsLink",
          "type": "string"
        },
        {
          "internalType": "string",
          "name": "_taskId",
          "type": "string"
        },
        {
          "internalType": "string",
          "name": "_documentId",
          "type": "string"
        }
      ],
      "name": "mint",
      "outputs": [],
      "stateMutability": "nonpayable",
      "type": "function"
    },
    {
      "inputs": [
        {
          "internalType": "address[]",
          "name": "_owners",
          "type": "address[]"
        },
        {
          "internalType": "string[]",
          "name": "_ipfsLinks",
          "type": "string[]"
        },
        {
          "internalType": "string[]",
          "name": "_taskIds",
          "type": "string[]"
        },
        {
          "internalType": "string[]",
          "name": "_documentIds",
          "type": "string[]"
        }
      ],
      "name": "mintBatch",
      "outputs": [],
      "stateMutability": "nonpayable",
      "type": "function"
    },
    {
      "inputs": [],
      "name": "owner",
      "outputs": [
        {
          "internalType": "address",
          "name": "",
          "type": "address"
        }
      ],
      "stateMutability": "view",
      "type": "function"
    },
    {
      "inputs": [
        {
          "internalType": "address",
          "name": "from",
          "type": "address"
        },
        {
          "internalType": "address",
          "name": "to",
          "type": "address"
        },
        {
          "internalType": "uint256[]",
          "name": "ids",
          "type": "uint256[]"
        },
        {
          "internalType": "uint256[]",
          "name": "amounts",
          "type": "uint256[]"
        },
        {
          "internalType": "bytes",
          "name": "data",
          "type": "bytes"
        }
      ],
      "name": "safeBatchTransferFrom",
      "outputs": [],
      "stateMutability": "nonpayable",
      "type": "function"
    },
    {
      "inputs": [
        {
          "internalType": "address",
          "name": "from",
          "type": "address"
        },
        {
          "internalType": "address",
          "name": "to",
          "type": "address"
        },
        {
          "internalType": "uint256",
          "name": "id",
          "type": "uint256"
        },
        {
          "internalType": "uint256",
          "name": "amount",
          "type": "uint256"
        },
        {
          "internalType": "bytes",
          "name": "data",
          "type": "bytes"
        }
      ],
      "name": "safeTransferFrom",
      "outputs": [],
      "stateMutability": "nonpayable",
      "type": "function"
    },
    {
      "inputs": [
        {
          "internalType": "address",
          "name": "operator",
          "type": "address"
        },
        {
          "internalType": "bool",
          "name": "approved",
          "type": "bool"
        }
      ],
      "name": "setApprovalForAll",
      "outputs": [],
      "stateMutability": "nonpayable",
      "type": "function"
    },
    {
      "inputs": [
        {
          "internalType": "bytes4",
          "name": "interfaceId",
          "type": "bytes4"
        }
      ],
      "name": "supportsInterface",
      "outputs": [
        {
          "internalType": "bool",
          "name": "",
          "type": "bool"
        }
      ],
      "stateMutability": "view",
      "type": "function"
    },
    {
      "inputs": [
        {
          "internalType": "uint256",
          "name": "tokenId",
          "type": "uint256"
        }
      ],
      "name": "uri",
      "outputs": [
        {
          "internalType": "string",
          "name": "",
          "type": "string"
        }
      ],
      "stateMutability": "view",
      "type": "function"
    }
  ],
  "bytecode": "0x6080604052604051806020016040528060008152506003908162000024919062000356565b5060006005553480156200003757600080fd5b506040518060400160405280600a81526020017f556e797465546f6b656e000000000000000000000000000000000000000000008152506200007f81620000c760201b60201c565b5033600660006101000a81548173ffffffffffffffffffffffffffffffffffffffff021916908373ffffffffffffffffffffffffffffffffffffffff1602179055506200043d565b8060029081620000d8919062000356565b5050565b600081519050919050565b7f4e487b7100000000000000000000000000000000000000000000000000000000600052604160045260246000fd5b7f4e487b7100000000000000000000000000000000000000000000000000000000600052602260045260246000fd5b600060028204905060018216806200015e57607f821691505b60208210810362000174576200017362000116565b5b50919050565b60008190508160005260206000209050919050565b60006020601f8301049050919050565b600082821b905092915050565b600060088302620001de7fffffffffffffffffffffffffffffffffffffffffffffffffffffffffffffffff826200019f565b620001ea86836200019f565b95508019841693508086168417925050509392505050565b6000819050919050565b6000819050919050565b600062000237620002316200022b8462000202565b6200020c565b62000202565b9050919050565b6000819050919050565b620002538362000216565b6200026b62000262826200023e565b848454620001ac565b825550505050565b600090565b6200028262000273565b6200028f81848462000248565b505050565b5b81811015620002b757620002ab60008262000278565b60018101905062000295565b5050565b601f8211156200030657620002d0816200017a565b620002db846200018f565b81016020851015620002eb578190505b62000303620002fa856200018f565b83018262000294565b50505b505050565b600082821c905092915050565b60006200032b600019846008026200030b565b1980831691505092915050565b600062000346838362000318565b9150826002028217905092915050565b6200036182620000dc565b67ffffffffffffffff8111156200037d576200037c620000e7565b5b62000389825462000145565b62000396828285620002bb565b600060209050601f831160018114620003ce5760008415620003b9578287015190505b620003c5858262000338565b86555062000435565b601f198416620003de866200017a565b60005b828110156200040857848901518255600182019150602085019450602081019050620003e1565b8683101562000428578489015162000424601f89168262000318565b8355505b6001600288020188555050505b505050505050565b61337c806200044d6000396000f3fe608060405234801561001057600080fd5b50600436106100a85760003560e01c80634e1273f4116100715780634e1273f4146101755780638da5cb5b146101a5578063a22cb465146101c3578063d3dd2ab7146101df578063e985e9c5146101fb578063f242432a1461022b576100a8565b8062fdd58e146100ad57806301ffc9a7146100dd5780630e89341c1461010d5780632eb2c2d61461013d5780634a0706be14610159575b600080fd5b6100c760048036038101906100c291906119fe565b610247565b6040516100d49190611a4d565b60405180910390f35b6100f760048036038101906100f29190611ac0565b61030f565b6040516101049190611b08565b60405180910390f35b61012760048036038101906101229190611b23565b6103f1565b6040516101349190611be0565b60405180910390f35b61015760048036038101906101529190611dff565b6104d6565b005b610173600480360381019061016e9190611f6f565b610577565b005b61018f600480360381019061018a91906120ed565b6106b3565b60405161019c9190612223565b60405180910390f35b6101ad6107cc565b6040516101ba9190612254565b60405180910390f35b6101dd60048036038101906101d8919061229b565b6107f2565b005b6101f960048036038101906101f491906123bc565b610808565b005b61021560048036038101906102109190612493565b610983565b6040516102229190611b08565b60405180910390f35b610245600480360381019061024091906124d3565b610a17565b005b60008073ffffffffffffffffffffffffffffffffffffffff168373ffffffffffffffffffffffffffffffffffffffff16036102b7576040517f08c379a00000000000000000000000000000000000000000000000000000000081526004016102ae906125dc565b60405180910390fd5b60008083815260200190815260200160002060008473ffffffffffffffffffffffffffffffffffffffff1673ffffffffffffffffffffffffffffffffffffffff16815260200190815260200160002054905092915050565b60007fd9b67a26000000000000000000000000000000000000000000000000000000007bffffffffffffffffffffffffffffffffffffffffffffffffffffffff1916827bffffffffffffffffffffffffffffffffffffffffffffffffffffffff191614806103da57507f0e89341c000000000000000000000000000000000000000000000000000000007bffffffffffffffffffffffffffffffffffffffffffffffffffffffff1916827bffffffffffffffffffffffffffffffffffffffffffffffffffffffff1916145b806103ea57506103e982610ab8565b5b9050919050565b606060006004600084815260200190815260200160002080546104139061262b565b80601f016020809104026020016040519081016040528092919081815260200182805461043f9061262b565b801561048c5780601f106104615761010080835404028352916020019161048c565b820191906000526020600020905b81548152906001019060200180831161046f57829003601f168201915b5050505050905060008151116104aa576104a583610b22565b6104ce565b6003816040516020016104be929190612730565b6040516020818303038152906040525b915050919050565b6104de610bb6565b73ffffffffffffffffffffffffffffffffffffffff168573ffffffffffffffffffffffffffffffffffffffff16148061052457506105238561051e610bb6565b610983565b5b610563576040517f08c379a000000000000000000000000000000000000000000000000000000000815260040161055a906127c6565b60405180910390fd5b6105708585858585610bbe565b5050505050565b600660009054906101000a900473ffffffffffffffffffffffffffffffffffffffff1673ffffffffffffffffffffffffffffffffffffffff163373ffffffffffffffffffffffffffffffffffffffff1614610607576040517f08c379a00000000000000000000000000000000000000000000000000000000081526004016105fe90612832565b60405180910390fd5b6005600081548092919061061a90612881565b919050555061063d84600554600160405180602001604052806000815250610edf565b6106496005548461108f565b8060405161065791906128c9565b60405180910390208473ffffffffffffffffffffffffffffffffffffffff167f35a0e34ee6c196b20f530d94282b96d57c4beda09ba5f603fe1baa387661d3c3846040516106a59190611be0565b60405180910390a350505050565b606081518351146106f9576040517f08c379a00000000000000000000000000000000000000000000000000000000081526004016106f090612952565b60405180910390fd5b6000835167ffffffffffffffff81111561071657610715611c07565b5b6040519080825280602002602001820160405280156107445781602001602082028036833780820191505090505b50905060005b84518110156107c15761079185828151811061076957610768612972565b5b602002602001015185838151811061078457610783612972565b5b6020026020010151610247565b8282815181106107a4576107a3612972565b5b602002602001018181525050806107ba90612881565b905061074a565b508091505092915050565b600660009054906101000a900473ffffffffffffffffffffffffffffffffffffffff1681565b6108046107fd610bb6565b83836110f4565b5050565b8251845114801561081a575081518451145b610859576040517f08c379a000000000000000000000000000000000000000000000000000000000815260040161085090612a13565b60405180910390fd5b600660009054906101000a900473ffffffffffffffffffffffffffffffffffffffff1673ffffffffffffffffffffffffffffffffffffffff163373ffffffffffffffffffffffffffffffffffffffff16146108e9576040517f08c379a00000000000000000000000000000000000000000000000000000000081526004016108e090612832565b60405180910390fd5b60005b845181101561097c5761096985828151811061090b5761090a612972565b5b602002602001015185838151811061092657610925612972565b5b602002602001015185848151811061094157610940612972565b5b602002602001015185858151811061095c5761095b612972565b5b6020026020010151610577565b808061097490612881565b9150506108ec565b5050505050565b6000600160008473ffffffffffffffffffffffffffffffffffffffff1673ffffffffffffffffffffffffffffffffffffffff16815260200190815260200160002060008373ffffffffffffffffffffffffffffffffffffffff1673ffffffffffffffffffffffffffffffffffffffff16815260200190815260200160002060009054906101000a900460ff16905092915050565b610a1f610bb6565b73ffffffffffffffffffffffffffffffffffffffff168573ffffffffffffffffffffffffffffffffffffffff161480610a655750610a6485610a5f610bb6565b610983565b5b610aa4576040517f08c379a0000000000000000000000000000000000000000000000000000000008152600401610a9b906127c6565b60405180910390fd5b610ab18585858585611260565b5050505050565b60007f01ffc9a7000000000000000000000000000000000000000000000000000000007bffffffffffffffffffffffffffffffffffffffffffffffffffffffff1916827bffffffffffffffffffffffffffffffffffffffffffffffffffffffff1916149050919050565b606060028054610b319061262b565b80601f0160208091040260200160405190810160405280929190818152602001828054610b5d9061262b565b8015610baa5780601f10610b7f57610100808354040283529160200191610baa565b820191906000526020600020905b815481529060010190602001808311610b8d57829003601f168201915b50505050509050919050565b600033905090565b8151835114610c02576040517f08c379a0000000000000000000000000000000000000000000000000000000008152600401610bf990612aa5565b60405180910390fd5b600073ffffffffffffffffffffffffffffffffffffffff168473ffffffffffffffffffffffffffffffffffffffff1603610c71576040517f08c379a0000000000000000000000000000000000000000000000000000000008152600401610c6890612b37565b60405180910390fd5b6000610c7b610bb6565b9050610c8b8187878787876114fb565b60005b8451811015610e3c576000858281518110610cac57610cab612972565b5b602002602001015190506000858381518110610ccb57610cca612972565b5b60200260200101519050600080600084815260200190815260200160002060008b73ffffffffffffffffffffffffffffffffffffffff1673ffffffffffffffffffffffffffffffffffffffff16815260200190815260200160002054905081811015610d6c576040517f08c379a0000000000000000000000000000000000000000000000000000000008152600401610d6390612bc9565b60405180910390fd5b81810360008085815260200190815260200160002060008c73ffffffffffffffffffffffffffffffffffffffff1673ffffffffffffffffffffffffffffffffffffffff168152602001908152602001600020819055508160008085815260200190815260200160002060008b73ffffffffffffffffffffffffffffffffffffffff1673ffffffffffffffffffffffffffffffffffffffff1681526020019081526020016000206000828254610e219190612be9565b9250508190555050505080610e3590612881565b9050610c8e565b508473ffffffffffffffffffffffffffffffffffffffff168673ffffffffffffffffffffffffffffffffffffffff168273ffffffffffffffffffffffffffffffffffffffff167f4a39dc06d4c0dbc64b70af90fd698a233a518aa5d07e595d983b8c0526c8f7fb8787604051610eb3929190612c1d565b60405180910390a4610ec9818787878787611503565b610ed781878787878761150b565b505050505050565b600073ffffffffffffffffffffffffffffffffffffffff168473ffffffffffffffffffffffffffffffffffffffff1603610f4e576040517f08c379a0000000000000000000000000000000000000000000000000000000008152600401610f4590612cc6565b60405180910390fd5b6000610f58610bb6565b90506000610f65856116e2565b90506000610f72856116e2565b9050610f83836000898585896114fb565b8460008088815260200190815260200160002060008973ffffffffffffffffffffffffffffffffffffffff1673ffffffffffffffffffffffffffffffffffffffff1681526020019081526020016000206000828254610fe29190612be9565b925050819055508673ffffffffffffffffffffffffffffffffffffffff16600073ffffffffffffffffffffffffffffffffffffffff168473ffffffffffffffffffffffffffffffffffffffff167fc3d58168c5ae7397731d063d5bbf3d657854427343f4c083240f7aacaa2d0f628989604051611060929190612ce6565b60405180910390a461107783600089858589611503565b6110868360008989898961175c565b50505050505050565b806004600084815260200190815260200160002090816110af9190612ea6565b50817f6bb7ff708619ba0610cba295a58592e0451dee2622938c8755667688daf3529b6110db846103f1565b6040516110e89190611be0565b60405180910390a25050565b8173ffffffffffffffffffffffffffffffffffffffff168373ffffffffffffffffffffffffffffffffffffffff1603611162576040517f08c379a000000000000000000000000000000000000000000000000000000000815260040161115990612fea565b60405180910390fd5b80600160008573ffffffffffffffffffffffffffffffffffffffff1673ffffffffffffffffffffffffffffffffffffffff16815260200190815260200160002060008473ffffffffffffffffffffffffffffffffffffffff1673ffffffffffffffffffffffffffffffffffffffff16815260200190815260200160002060006101000a81548160ff0219169083151502179055508173ffffffffffffffffffffffffffffffffffffffff168373ffffffffffffffffffffffffffffffffffffffff167f17307eab39ab6107e8899845ad3d59bd9653f200f220920489ca2b5937696c31836040516112539190611b08565b60405180910390a3505050565b600073ffffffffffffffffffffffffffffffffffffffff168473ffffffffffffffffffffffffffffffffffffffff16036112cf576040517f08c379a00000000000000000000000000000000000000000000000000000000081526004016112c690612b37565b60405180910390fd5b60006112d9610bb6565b905060006112e6856116e2565b905060006112f3856116e2565b90506113038389898585896114fb565b600080600088815260200190815260200160002060008a73ffffffffffffffffffffffffffffffffffffffff1673ffffffffffffffffffffffffffffffffffffffff1681526020019081526020016000205490508581101561139a576040517f08c379a000000000000000000000000000000000000000000000000000000000815260040161139190612bc9565b60405180910390fd5b85810360008089815260200190815260200160002060008b73ffffffffffffffffffffffffffffffffffffffff1673ffffffffffffffffffffffffffffffffffffffff168152602001908152602001600020819055508560008089815260200190815260200160002060008a73ffffffffffffffffffffffffffffffffffffffff1673ffffffffffffffffffffffffffffffffffffffff168152602001908152602001600020600082825461144f9190612be9565b925050819055508773ffffffffffffffffffffffffffffffffffffffff168973ffffffffffffffffffffffffffffffffffffffff168573ffffffffffffffffffffffffffffffffffffffff167fc3d58168c5ae7397731d063d5bbf3d657854427343f4c083240f7aacaa2d0f628a8a6040516114cc929190612ce6565b60405180910390a46114e2848a8a86868a611503565b6114f0848a8a8a8a8a61175c565b505050505050505050565b505050505050565b505050505050565b61152a8473ffffffffffffffffffffffffffffffffffffffff16611933565b156116da578373ffffffffffffffffffffffffffffffffffffffff1663bc197c8187878686866040518663ffffffff1660e01b815260040161157095949392919061305f565b6020604051808303816000875af19250505080156115ac57506040513d601f19601f820116820180604052508101906115a991906130dc565b60015b611651576115b8613116565b806308c379a00361161457506115cc613138565b806115d75750611616565b806040517f08c379a000000000000000000000000000000000000000000000000000000000815260040161160b9190611be0565b60405180910390fd5b505b6040517f08c379a00000000000000000000000000000000000000000000000000000000081526004016116489061323a565b60405180910390fd5b63bc197c8160e01b7bffffffffffffffffffffffffffffffffffffffffffffffffffffffff1916817bffffffffffffffffffffffffffffffffffffffffffffffffffffffff1916146116d8576040517f08c379a00000000000000000000000000000000000000000000000000000000081526004016116cf906132cc565b60405180910390fd5b505b505050505050565b60606000600167ffffffffffffffff81111561170157611700611c07565b5b60405190808252806020026020018201604052801561172f5781602001602082028036833780820191505090505b509050828160008151811061174757611746612972565b5b60200260200101818152505080915050919050565b61177b8473ffffffffffffffffffffffffffffffffffffffff16611933565b1561192b578373ffffffffffffffffffffffffffffffffffffffff1663f23a6e6187878686866040518663ffffffff1660e01b81526004016117c19594939291906132ec565b6020604051808303816000875af19250505080156117fd57506040513d601f19601f820116820180604052508101906117fa91906130dc565b60015b6118a257611809613116565b806308c379a003611865575061181d613138565b806118285750611867565b806040517f08c379a000000000000000000000000000000000000000000000000000000000815260040161185c9190611be0565b60405180910390fd5b505b6040517f08c379a00000000000000000000000000000000000000000000000000000000081526004016118999061323a565b60405180910390fd5b63f23a6e6160e01b7bffffffffffffffffffffffffffffffffffffffffffffffffffffffff1916817bffffffffffffffffffffffffffffffffffffffffffffffffffffffff191614611929576040517f08c379a0000000000000000000000000000000000000000000000000000000008152600401611920906132cc565b60405180910390fd5b505b505050505050565b6000808273ffffffffffffffffffffffffffffffffffffffff163b119050919050565b6000604051905090565b600080fd5b600080fd5b600073ffffffffffffffffffffffffffffffffffffffff82169050919050565b60006119958261196a565b9050919050565b6119a58161198a565b81146119b057600080fd5b50565b6000813590506119c28161199c565b92915050565b6000819050919050565b6119db816119c8565b81146119e657600080fd5b50565b6000813590506119f8816119d2565b92915050565b60008060408385031215611a1557611a14611960565b5b6000611a23858286016119b3565b9250506020611a34858286016119e9565b9150509250929050565b611a47816119c8565b82525050565b6000602082019050611a626000830184611a3e565b92915050565b60007fffffffff0000000000000000000000000000000000000000000000000000000082169050919050565b611a9d81611a68565b8114611aa857600080fd5b50565b600081359050611aba81611a94565b92915050565b600060208284031215611ad657611ad5611960565b5b6000611ae484828501611aab565b91505092915050565b60008115159050919050565b611b0281611aed565b82525050565b6000602082019050611b1d6000830184611af9565b92915050565b600060208284031215611b3957611b38611960565b5b6000611b47848285016119e9565b91505092915050565b600081519050919050565b600082825260208201905092915050565b60005b83811015611b8a578082015181840152602081019050611b6f565b60008484015250505050565b6000601f19601f8301169050919050565b6000611bb282611b50565b611bbc8185611b5b565b9350611bcc818560208601611b6c565b611bd581611b96565b840191505092915050565b60006020820190508181036000830152611bfa8184611ba7565b905092915050565b600080fd5b7f4e487b7100000000000000000000000000000000000000000000000000000000600052604160045260246000fd5b611c3f82611b96565b810181811067ffffffffffffffff82111715611c5e57611c5d611c07565b5b80604052505050565b6000611c71611956565b9050611c7d8282611c36565b919050565b600067ffffffffffffffff821115611c9d57611c9c611c07565b5b602082029050602081019050919050565b600080fd5b6000611cc6611cc184611c82565b611c67565b90508083825260208201905060208402830185811115611ce957611ce8611cae565b5b835b81811015611d125780611cfe88826119e9565b845260208401935050602081019050611ceb565b5050509392505050565b600082601f830112611d3157611d30611c02565b5b8135611d41848260208601611cb3565b91505092915050565b600080fd5b600067ffffffffffffffff821115611d6a57611d69611c07565b5b611d7382611b96565b9050602081019050919050565b82818337600083830152505050565b6000611da2611d9d84611d4f565b611c67565b905082815260208101848484011115611dbe57611dbd611d4a565b5b611dc9848285611d80565b509392505050565b600082601f830112611de657611de5611c02565b5b8135611df6848260208601611d8f565b91505092915050565b600080600080600060a08688031215611e1b57611e1a611960565b5b6000611e29888289016119b3565b9550506020611e3a888289016119b3565b945050604086013567ffffffffffffffff811115611e5b57611e5a611965565b5b611e6788828901611d1c565b935050606086013567ffffffffffffffff811115611e8857611e87611965565b5b611e9488828901611d1c565b925050608086013567ffffffffffffffff811115611eb557611eb4611965565b5b611ec188828901611dd1565b9150509295509295909350565b600067ffffffffffffffff821115611ee957611ee8611c07565b5b611ef282611b96565b9050602081019050919050565b6000611f12611f0d84611ece565b611c67565b905082815260208101848484011115611f2e57611f2d611d4a565b5b611f39848285611d80565b509392505050565b600082601f830112611f5657611f55611c02565b5b8135611f66848260208601611eff565b91505092915050565b60008060008060808587031215611f8957611f88611960565b5b6000611f97878288016119b3565b945050602085013567ffffffffffffffff811115611fb857611fb7611965565b5b611fc487828801611f41565b935050604085013567ffffffffffffffff811115611fe557611fe4611965565b5b611ff187828801611f41565b925050606085013567ffffffffffffffff81111561201257612011611965565b5b61201e87828801611f41565b91505092959194509250565b600067ffffffffffffffff82111561204557612044611c07565b5b602082029050602081019050919050565b60006120696120648461202a565b611c67565b9050808382526020820190506020840283018581111561208c5761208b611cae565b5b835b818110156120b557806120a188826119b3565b84526020840193505060208101905061208e565b5050509392505050565b600082601f8301126120d4576120d3611c02565b5b81356120e4848260208601612056565b91505092915050565b6000806040838503121561210457612103611960565b5b600083013567ffffffffffffffff81111561212257612121611965565b5b61212e858286016120bf565b925050602083013567ffffffffffffffff81111561214f5761214e611965565b5b61215b85828601611d1c565b9150509250929050565b600081519050919050565b600082825260208201905092915050565b6000819050602082019050919050565b61219a816119c8565b82525050565b60006121ac8383612191565b60208301905092915050565b6000602082019050919050565b60006121d082612165565b6121da8185612170565b93506121e583612181565b8060005b838110156122165781516121fd88826121a0565b9750612208836121b8565b9250506001810190506121e9565b5085935050505092915050565b6000602082019050818103600083015261223d81846121c5565b905092915050565b61224e8161198a565b82525050565b60006020820190506122696000830184612245565b92915050565b61227881611aed565b811461228357600080fd5b50565b6000813590506122958161226f565b92915050565b600080604083850312156122b2576122b1611960565b5b60006122c0858286016119b3565b92505060206122d185828601612286565b9150509250929050565b600067ffffffffffffffff8211156122f6576122f5611c07565b5b602082029050602081019050919050565b600061231a612315846122db565b611c67565b9050808382526020820190506020840283018581111561233d5761233c611cae565b5b835b8181101561238457803567ffffffffffffffff81111561236257612361611c02565b5b80860161236f8982611f41565b8552602085019450505060208101905061233f565b5050509392505050565b600082601f8301126123a3576123a2611c02565b5b81356123b3848260208601612307565b91505092915050565b600080600080608085870312156123d6576123d5611960565b5b600085013567ffffffffffffffff8111156123f4576123f3611965565b5b612400878288016120bf565b945050602085013567ffffffffffffffff81111561242157612420611965565b5b61242d8782880161238e565b935050604085013567ffffffffffffffff81111561244e5761244d611965565b5b61245a8782880161238e565b925050606085013567ffffffffffffffff81111561247b5761247a611965565b5b6124878782880161238e565b91505092959194509250565b600080604083850312156124aa576124a9611960565b5b60006124b8858286016119b3565b92505060206124c9858286016119b3565b9150509250929050565b600080600080600060a086880312156124ef576124ee611960565b5b60006124fd888289016119b3565b955050602061250e888289016119b3565b945050604061251f888289016119e9565b9350506060612530888289016119e9565b925050608086013567ffffffffffffffff81111561255157612550611965565b5b61255d88828901611dd1565b9150509295509295909350565b7f455243313135353a2061646472657373207a65726f206973206e6f742061207660008201527f616c6964206f776e657200000000000000000000000000000000000000000000602082015250565b60006125c6602a83611b5b565b91506125d18261256a565b604082019050919050565b600060208201905081810360008301526125f5816125b9565b9050919050565b7f4e487b7100000000000000000000000000000000000000000000000000000000600052602260045260246000fd5b6000600282049050600182168061264357607f821691505b602082108103612656576126556125fc565b5b50919050565b600081905092915050565b60008190508160005260206000209050919050565b600081546126898161262b565b612693818661265c565b945060018216600081146126ae57600181146126c3576126f6565b60ff19831686528115158202860193506126f6565b6126cc85612667565b60005b838110156126ee578154818901526001820191506020810190506126cf565b838801955050505b50505092915050565b600061270a82611b50565b612714818561265c565b9350612724818560208601611b6c565b80840191505092915050565b600061273c828561267c565b915061274882846126ff565b91508190509392505050565b7f455243313135353a2063616c6c6572206973206e6f7420746f6b656e206f776e60008201527f6572206f7220617070726f766564000000000000000000000000000000000000602082015250565b60006127b0602e83611b5b565b91506127bb82612754565b604082019050919050565b600060208201905081810360008301526127df816127a3565b9050919050565b7f4f6e6c79206f776e65722063616e206d696e7400000000000000000000000000600082015250565b600061281c601383611b5b565b9150612827826127e6565b602082019050919050565b6000602082019050818103600083015261284b8161280f565b9050919050565b7f4e487b7100000000000000000000000000000000000000000000000000000000600052601160045260246000fd5b600061288c826119c8565b91507fffffffffffffffffffffffffffffffffffffffffffffffffffffffffffffffff82036128be576128bd612852565b5b600182019050919050565b60006128d582846126ff565b915081905092915050565b7f455243313135353a206163636f756e747320616e6420696473206c656e67746860008201527f206d69736d617463680000000000000000000000000000000000000000000000602082015250565b600061293c602983611b5b565b9150612947826128e0565b604082019050919050565b6000602082019050818103600083015261296b8161292f565b9050919050565b7f4e487b7100000000000000000000000000000000000000000000000000000000600052603260045260246000fd5b7f416c6c20617272617973206d7573742068617665207468652073616d65206c6560008201527f6e67746800000000000000000000000000000000000000000000000000000000602082015250565b60006129fd602483611b5b565b9150612a08826129a1565b604082019050919050565b60006020820190508181036000830152612a2c816129f0565b9050919050565b7f455243313135353a2069647320616e6420616d6f756e7473206c656e6774682060008201527f6d69736d61746368000000000000000000000000000000000000000000000000602082015250565b6000612a8f602883611b5b565b9150612a9a82612a33565b604082019050919050565b60006020820190508181036000830152612abe81612a82565b9050919050565b7f455243313135353a207472616e7366657220746f20746865207a65726f20616460008201527f6472657373000000000000000000000000000000000000000000000000000000602082015250565b6000612b21602583611b5b565b9150612b2c82612ac5565b604082019050919050565b60006020820190508181036000830152612b5081612b14565b9050919050565b7f455243313135353a20696e73756666696369656e742062616c616e636520666f60008201527f72207472616e7366657200000000000000000000000000000000000000000000602082015250565b6000612bb3602a83611b5b565b9150612bbe82612b57565b604082019050919050565b60006020820190508181036000830152612be281612ba6565b9050919050565b6000612bf4826119c8565b9150612bff836119c8565b9250828201905080821115612c1757612c16612852565b5b92915050565b60006040820190508181036000830152612c3781856121c5565b90508181036020830152612c4b81846121c5565b90509392505050565b7f455243313135353a206d696e7420746f20746865207a65726f2061646472657360008201527f7300000000000000000000000000000000000000000000000000000000000000602082015250565b6000612cb0602183611b5b565b9150612cbb82612c54565b604082019050919050565b60006020820190508181036000830152612cdf81612ca3565b9050919050565b6000604082019050612cfb6000830185611a3e565b612d086020830184611a3e565b9392505050565b60006020601f8301049050919050565b600082821b905092915050565b600060088302612d5c7fffffffffffffffffffffffffffffffffffffffffffffffffffffffffffffffff82612d1f565b612d668683612d1f565b95508019841693508086168417925050509392505050565b6000819050919050565b6000612da3612d9e612d99846119c8565b612d7e565b6119c8565b9050919050565b6000819050919050565b612dbd83612d88565b612dd1612dc982612daa565b848454612d2c565b825550505050565b600090565b612de6612dd9565b612df1818484612db4565b505050565b5b81811015612e1557612e0a600082612dde565b600181019050612df7565b5050565b601f821115612e5a57612e2b81612667565b612e3484612d0f565b81016020851015612e43578190505b612e57612e4f85612d0f565b830182612df6565b50505b505050565b600082821c905092915050565b6000612e7d60001984600802612e5f565b1980831691505092915050565b6000612e968383612e6c565b9150826002028217905092915050565b612eaf82611b50565b67ffffffffffffffff811115612ec857612ec7611c07565b5b612ed2825461262b565b612edd828285612e19565b600060209050601f831160018114612f105760008415612efe578287015190505b612f088582612e8a565b865550612f70565b601f198416612f1e86612667565b60005b82811015612f4657848901518255600182019150602085019450602081019050612f21565b86831015612f635784890151612f5f601f891682612e6c565b8355505b6001600288020188555050505b505050505050565b7f455243313135353a2073657474696e6720617070726f76616c2073746174757360008201527f20666f722073656c660000000000000000000000000000000000000000000000602082015250565b6000612fd4602983611b5b565b9150612fdf82612f78565b604082019050919050565b6000602082019050818103600083015261300381612fc7565b9050919050565b600081519050919050565b600082825260208201905092915050565b60006130318261300a565b61303b8185613015565b935061304b818560208601611b6c565b61305481611b96565b840191505092915050565b600060a0820190506130746000830188612245565b6130816020830187612245565b818103604083015261309381866121c5565b905081810360608301526130a781856121c5565b905081810360808301526130bb8184613026565b90509695505050505050565b6000815190506130d681611a94565b92915050565b6000602082840312156130f2576130f1611960565b5b6000613100848285016130c7565b91505092915050565b60008160e01c9050919050565b600060033d11156131355760046000803e613132600051613109565b90505b90565b600060443d106131c55761314a611956565b60043d036004823e80513d602482011167ffffffffffffffff821117156131725750506131c5565b808201805167ffffffffffffffff81111561319057505050506131c5565b80602083010160043d0385018111156131ad5750505050506131c5565b6131bc82602001850186611c36565b82955050505050505b90565b7f455243313135353a207472616e7366657220746f206e6f6e2d4552433131353560008201527f526563656976657220696d706c656d656e746572000000000000000000000000602082015250565b6000613224603483611b5b565b915061322f826131c8565b604082019050919050565b6000602082019050818103600083015261325381613217565b9050919050565b7f455243313135353a204552433131353552656365697665722072656a6563746560008201527f6420746f6b656e73000000000000000000000000000000000000000000000000602082015250565b60006132b6602883611b5b565b91506132c18261325a565b604082019050919050565b600060208201905081810360008301526132e5816132a9565b9050919050565b600060a0820190506133016000830188612245565b61330e6020830187612245565b61331b6040830186611a3e565b6133286060830185611a3e565b818103608083015261333a8184613026565b9050969550505050505056fea2646970667358221220b113cf19e08898cb012c56b5fa892a3db2716fd418ac389addda816d36798a3064736f6c63430008120033",
  "linkReferences": {},
  "deployedLinkReferences": {}
}