{
  "_format": "hh-sol-artifact-1",
  "contractName": "Hackathon",
  "sourceName": "contracts/Hackathon.sol",
  "abi": [
    {
      "inputs": [],
      "stateMutability": "nonpayable",
      "type": "constructor"
    },
    {
      "anonymous": false,
      "inputs": [
        {
          "indexed": true,
          "internalType": "address",
          "name": "account",
          "type": "address"
        },
        {
          "indexed": true,
          "internalType": "address",
          "name": "operator",
          "type": "address"
        },
        {
          "indexed": false,
          "internalType": "bool",
          "name": "approved",
          "type": "bool"
        }
      ],
      "name": "ApprovalForAll",
      "type": "event"
    },
    {
      "anonymous": false,
      "inputs": [
        {
          "indexed": true,
          "internalType": "address",
          "name": "to",
          "type": "address"
        },
        {
          "indexed": true,
          "internalType": "uint256",
          "name": "id",
          "type": "uint256"
        },
        {
          "indexed": false,
          "internalType": "uint256",
          "name": "amount",
          "type": "uint256"
        }
      ],
      "name": "Sent",
      "type": "event"
    },
    {
      "anonymous": false,
      "inputs": [
        {
          "indexed": true,
          "internalType": "address",
          "name": "operator",
          "type": "address"
        },
        {
          "indexed": true,
          "internalType": "address",
          "name": "from",
          "type": "address"
        },
        {
          "indexed": true,
          "internalType": "address",
          "name": "to",
          "type": "address"
        },
        {
          "indexed": false,
          "internalType": "uint256[]",
          "name": "ids",
          "type": "uint256[]"
        },
        {
          "indexed": false,
          "internalType": "uint256[]",
          "name": "values",
          "type": "uint256[]"
        }
      ],
      "name": "TransferBatch",
      "type": "event"
    },
    {
      "anonymous": false,
      "inputs": [
        {
          "indexed": true,
          "internalType": "address",
          "name": "operator",
          "type": "address"
        },
        {
          "indexed": true,
          "internalType": "address",
          "name": "from",
          "type": "address"
        },
        {
          "indexed": true,
          "internalType": "address",
          "name": "to",
          "type": "address"
        },
        {
          "indexed": false,
          "internalType": "uint256",
          "name": "id",
          "type": "uint256"
        },
        {
          "indexed": false,
          "internalType": "uint256",
          "name": "value",
          "type": "uint256"
        }
      ],
      "name": "TransferSingle",
      "type": "event"
    },
    {
      "anonymous": false,
      "inputs": [
        {
          "indexed": false,
          "internalType": "string",
          "name": "value",
          "type": "string"
        },
        {
          "indexed": true,
          "internalType": "uint256",
          "name": "id",
          "type": "uint256"
        }
      ],
      "name": "URI",
      "type": "event"
    },
    {
      "inputs": [
        {
          "internalType": "address",
          "name": "account",
          "type": "address"
        },
        {
          "internalType": "uint256",
          "name": "id",
          "type": "uint256"
        }
      ],
      "name": "balanceOf",
      "outputs": [
        {
          "internalType": "uint256",
          "name": "",
          "type": "uint256"
        }
      ],
      "stateMutability": "view",
      "type": "function"
    },
    {
      "inputs": [
        {
          "internalType": "address[]",
          "name": "accounts",
          "type": "address[]"
        },
        {
          "internalType": "uint256[]",
          "name": "ids",
          "type": "uint256[]"
        }
      ],
      "name": "balanceOfBatch",
      "outputs": [
        {
          "internalType": "uint256[]",
          "name": "",
          "type": "uint256[]"
        }
      ],
      "stateMutability": "view",
      "type": "function"
    },
    {
      "inputs": [
        {
          "internalType": "address",
          "name": "account",
          "type": "address"
        },
        {
          "internalType": "address",
          "name": "operator",
          "type": "address"
        }
      ],
      "name": "isApprovedForAll",
      "outputs": [
        {
          "internalType": "bool",
          "name": "",
          "type": "bool"
        }
      ],
      "stateMutability": "view",
      "type": "function"
    },
    {
      "inputs": [
        {
          "internalType": "address",
          "name": "_owner",
          "type": "address"
        },
        {
          "internalType": "string",
          "name": "_ipfsLink",
          "type": "string"
        },
        {
          "internalType": "string",
          "name": "_taskId",
          "type": "string"
        },
        {
          "internalType": "string",
          "name": "_type",
          "type": "string"
        }
      ],
      "name": "mint",
      "outputs": [],
      "stateMutability": "nonpayable",
      "type": "function"
    },
    {
      "inputs": [
        {
          "internalType": "address[]",
          "name": "_owners",
          "type": "address[]"
        },
        {
          "internalType": "string",
          "name": "_ipfsLink",
          "type": "string"
        },
        {
          "internalType": "string",
          "name": "_taskId",
          "type": "string"
        },
        {
          "internalType": "string",
          "name": "_type",
          "type": "string"
        }
      ],
      "name": "mintBatch",
      "outputs": [],
      "stateMutability": "nonpayable",
      "type": "function"
    },
    {
      "inputs": [],
      "name": "owner",
      "outputs": [
        {
          "internalType": "address",
          "name": "",
          "type": "address"
        }
      ],
      "stateMutability": "view",
      "type": "function"
    },
    {
      "inputs": [
        {
          "internalType": "address",
          "name": "from",
          "type": "address"
        },
        {
          "internalType": "address",
          "name": "to",
          "type": "address"
        },
        {
          "internalType": "uint256[]",
          "name": "ids",
          "type": "uint256[]"
        },
        {
          "internalType": "uint256[]",
          "name": "amounts",
          "type": "uint256[]"
        },
        {
          "internalType": "bytes",
          "name": "data",
          "type": "bytes"
        }
      ],
      "name": "safeBatchTransferFrom",
      "outputs": [],
      "stateMutability": "nonpayable",
      "type": "function"
    },
    {
      "inputs": [
        {
          "internalType": "address",
          "name": "from",
          "type": "address"
        },
        {
          "internalType": "address",
          "name": "to",
          "type": "address"
        },
        {
          "internalType": "uint256",
          "name": "id",
          "type": "uint256"
        },
        {
          "internalType": "uint256",
          "name": "amount",
          "type": "uint256"
        },
        {
          "internalType": "bytes",
          "name": "data",
          "type": "bytes"
        }
      ],
      "name": "safeTransferFrom",
      "outputs": [],
      "stateMutability": "nonpayable",
      "type": "function"
    },
    {
      "inputs": [
        {
          "internalType": "address",
          "name": "operator",
          "type": "address"
        },
        {
          "internalType": "bool",
          "name": "approved",
          "type": "bool"
        }
      ],
      "name": "setApprovalForAll",
      "outputs": [],
      "stateMutability": "nonpayable",
      "type": "function"
    },
    {
      "inputs": [
        {
          "internalType": "bytes4",
          "name": "interfaceId",
          "type": "bytes4"
        }
      ],
      "name": "supportsInterface",
      "outputs": [
        {
          "internalType": "bool",
          "name": "",
          "type": "bool"
        }
      ],
      "stateMutability": "view",
      "type": "function"
    },
    {
      "inputs": [
        {
          "internalType": "uint256",
          "name": "tokenId",
          "type": "uint256"
        }
      ],
      "name": "uri",
      "outputs": [
        {
          "internalType": "string",
          "name": "",
          "type": "string"
        }
      ],
      "stateMutability": "view",
      "type": "function"
    }
  ],
  "bytecode": "0x6080604052604051806020016040528060008152506003908162000024919062000356565b5060006005553480156200003757600080fd5b506040518060400160405280600a81526020017f556e797465546f6b656e000000000000000000000000000000000000000000008152506200007f81620000c760201b60201c565b5033600660006101000a81548173ffffffffffffffffffffffffffffffffffffffff021916908373ffffffffffffffffffffffffffffffffffffffff1602179055506200043d565b8060029081620000d8919062000356565b5050565b600081519050919050565b7f4e487b7100000000000000000000000000000000000000000000000000000000600052604160045260246000fd5b7f4e487b7100000000000000000000000000000000000000000000000000000000600052602260045260246000fd5b600060028204905060018216806200015e57607f821691505b60208210810362000174576200017362000116565b5b50919050565b60008190508160005260206000209050919050565b60006020601f8301049050919050565b600082821b905092915050565b600060088302620001de7fffffffffffffffffffffffffffffffffffffffffffffffffffffffffffffffff826200019f565b620001ea86836200019f565b95508019841693508086168417925050509392505050565b6000819050919050565b6000819050919050565b600062000237620002316200022b8462000202565b6200020c565b62000202565b9050919050565b6000819050919050565b620002538362000216565b6200026b62000262826200023e565b848454620001ac565b825550505050565b600090565b6200028262000273565b6200028f81848462000248565b505050565b5b81811015620002b757620002ab60008262000278565b60018101905062000295565b5050565b601f8211156200030657620002d0816200017a565b620002db846200018f565b81016020851015620002eb578190505b62000303620002fa856200018f565b83018262000294565b50505b505050565b600082821c905092915050565b60006200032b600019846008026200030b565b1980831691505092915050565b600062000346838362000318565b9150826002028217905092915050565b6200036182620000dc565b67ffffffffffffffff8111156200037d576200037c620000e7565b5b62000389825462000145565b62000396828285620002bb565b600060209050601f831160018114620003ce5760008415620003b9578287015190505b620003c5858262000338565b86555062000435565b601f198416620003de866200017a565b60005b828110156200040857848901518255600182019150602085019450602081019050620003e1565b8683101562000428578489015162000424601f89168262000318565b8355505b6001600288020188555050505b505050505050565b6139a0806200044d6000396000f3fe608060405234801561001057600080fd5b50600436106100a85760003560e01c80634a0706be116100715780634a0706be146101755780634e1273f4146101915780638da5cb5b146101c1578063a22cb465146101df578063e985e9c5146101fb578063f242432a1461022b576100a8565b8062fdd58e146100ad57806301ffc9a7146100dd5780630e89341c1461010d5780632220e6881461013d5780632eb2c2d614610159575b600080fd5b6100c760048036038101906100c29190611c2f565b610247565b6040516100d49190611c7e565b60405180910390f35b6100f760048036038101906100f29190611cf1565b61030f565b6040516101049190611d39565b60405180910390f35b61012760048036038101906101229190611d54565b6103f1565b6040516101349190611e11565b60405180910390f35b61015760048036038101906101529190612030565b6104d6565b005b610173600480360381019061016e919061226b565b6105b2565b005b61018f600480360381019061018a919061233a565b610653565b005b6101ab60048036038101906101a691906123f5565b610806565b6040516101b8919061252b565b60405180910390f35b6101c961091f565b6040516101d6919061255c565b60405180910390f35b6101f960048036038101906101f491906125a3565b610945565b005b610215600480360381019061021091906125e3565b61095b565b6040516102229190611d39565b60405180910390f35b61024560048036038101906102409190612623565b6109ef565b005b60008073ffffffffffffffffffffffffffffffffffffffff168373ffffffffffffffffffffffffffffffffffffffff16036102b7576040517f08c379a00000000000000000000000000000000000000000000000000000000081526004016102ae9061272c565b60405180910390fd5b60008083815260200190815260200160002060008473ffffffffffffffffffffffffffffffffffffffff1673ffffffffffffffffffffffffffffffffffffffff16815260200190815260200160002054905092915050565b60007fd9b67a26000000000000000000000000000000000000000000000000000000007bffffffffffffffffffffffffffffffffffffffffffffffffffffffff1916827bffffffffffffffffffffffffffffffffffffffffffffffffffffffff191614806103da57507f0e89341c000000000000000000000000000000000000000000000000000000007bffffffffffffffffffffffffffffffffffffffffffffffffffffffff1916827bffffffffffffffffffffffffffffffffffffffffffffffffffffffff1916145b806103ea57506103e982610a90565b5b9050919050565b606060006004600084815260200190815260200160002080546104139061277b565b80601f016020809104026020016040519081016040528092919081815260200182805461043f9061277b565b801561048c5780601f106104615761010080835404028352916020019161048c565b820191906000526020600020905b81548152906001019060200180831161046f57829003601f168201915b5050505050905060008151116104aa576104a583610afa565b6104ce565b6003816040516020016104be929190612880565b6040516020818303038152906040525b915050919050565b600660009054906101000a900473ffffffffffffffffffffffffffffffffffffffff1673ffffffffffffffffffffffffffffffffffffffff163373ffffffffffffffffffffffffffffffffffffffff1614610566576040517f08c379a000000000000000000000000000000000000000000000000000000000815260040161055d906128f0565b60405180910390fd5b60005b84518110156105ab5761059885828151811061058857610587612910565b5b6020026020010151858585610653565b80806105a39061296e565b915050610569565b5050505050565b6105ba610b8e565b73ffffffffffffffffffffffffffffffffffffffff168573ffffffffffffffffffffffffffffffffffffffff16148061060057506105ff856105fa610b8e565b61095b565b5b61063f576040517f08c379a000000000000000000000000000000000000000000000000000000000815260040161063690612a28565b60405180910390fd5b61064c8585858585610b96565b5050505050565b600660009054906101000a900473ffffffffffffffffffffffffffffffffffffffff1673ffffffffffffffffffffffffffffffffffffffff163373ffffffffffffffffffffffffffffffffffffffff16146106e3576040517f08c379a00000000000000000000000000000000000000000000000000000000081526004016106da906128f0565b60405180910390fd5b600560008154809291906106f69061296e565b9190505550600061072983838660405160200161071593929190612e02565b604051602081830303815290604052610eb7565b90506107696040518060400160405280601181526020017f0a2d2d2d2d2d204a534f4e202d2d2d2d2d00000000000000000000000000000081525061104e565b6107728161104e565b6107b06040518060400160405280601181526020017f2d2d2d2d2d2d2d2d2d2d2d2d2d2d2d2d0a00000000000000000000000000000081525061104e565b6000816040516020016107c39190612ec1565b60405160208183030381529060405290506107f2866005546001604051806020016040528060008152506110e7565b6107fe60055482611297565b505050505050565b6060815183511461084c576040517f08c379a000000000000000000000000000000000000000000000000000000000815260040161084390612f55565b60405180910390fd5b6000835167ffffffffffffffff81111561086957610868611e38565b5b6040519080825280602002602001820160405280156108975781602001602082028036833780820191505090505b50905060005b8451811015610914576108e48582815181106108bc576108bb612910565b5b60200260200101518583815181106108d7576108d6612910565b5b6020026020010151610247565b8282815181106108f7576108f6612910565b5b6020026020010181815250508061090d9061296e565b905061089d565b508091505092915050565b600660009054906101000a900473ffffffffffffffffffffffffffffffffffffffff1681565b610957610950610b8e565b83836112fc565b5050565b6000600160008473ffffffffffffffffffffffffffffffffffffffff1673ffffffffffffffffffffffffffffffffffffffff16815260200190815260200160002060008373ffffffffffffffffffffffffffffffffffffffff1673ffffffffffffffffffffffffffffffffffffffff16815260200190815260200160002060009054906101000a900460ff16905092915050565b6109f7610b8e565b73ffffffffffffffffffffffffffffffffffffffff168573ffffffffffffffffffffffffffffffffffffffff161480610a3d5750610a3c85610a37610b8e565b61095b565b5b610a7c576040517f08c379a0000000000000000000000000000000000000000000000000000000008152600401610a7390612a28565b60405180910390fd5b610a898585858585611468565b5050505050565b60007f01ffc9a7000000000000000000000000000000000000000000000000000000007bffffffffffffffffffffffffffffffffffffffffffffffffffffffff1916827bffffffffffffffffffffffffffffffffffffffffffffffffffffffff1916149050919050565b606060028054610b099061277b565b80601f0160208091040260200160405190810160405280929190818152602001828054610b359061277b565b8015610b825780601f10610b5757610100808354040283529160200191610b82565b820191906000526020600020905b815481529060010190602001808311610b6557829003601f168201915b50505050509050919050565b600033905090565b8151835114610bda576040517f08c379a0000000000000000000000000000000000000000000000000000000008152600401610bd190612fe7565b60405180910390fd5b600073ffffffffffffffffffffffffffffffffffffffff168473ffffffffffffffffffffffffffffffffffffffff1603610c49576040517f08c379a0000000000000000000000000000000000000000000000000000000008152600401610c4090613079565b60405180910390fd5b6000610c53610b8e565b9050610c63818787878787611703565b60005b8451811015610e14576000858281518110610c8457610c83612910565b5b602002602001015190506000858381518110610ca357610ca2612910565b5b60200260200101519050600080600084815260200190815260200160002060008b73ffffffffffffffffffffffffffffffffffffffff1673ffffffffffffffffffffffffffffffffffffffff16815260200190815260200160002054905081811015610d44576040517f08c379a0000000000000000000000000000000000000000000000000000000008152600401610d3b9061310b565b60405180910390fd5b81810360008085815260200190815260200160002060008c73ffffffffffffffffffffffffffffffffffffffff1673ffffffffffffffffffffffffffffffffffffffff168152602001908152602001600020819055508160008085815260200190815260200160002060008b73ffffffffffffffffffffffffffffffffffffffff1673ffffffffffffffffffffffffffffffffffffffff1681526020019081526020016000206000828254610df9919061312b565b9250508190555050505080610e0d9061296e565b9050610c66565b508473ffffffffffffffffffffffffffffffffffffffff168673ffffffffffffffffffffffffffffffffffffffff168273ffffffffffffffffffffffffffffffffffffffff167f4a39dc06d4c0dbc64b70af90fd698a233a518aa5d07e595d983b8c0526c8f7fb8787604051610e8b92919061315f565b60405180910390a4610ea181878787878761170b565b610eaf818787878787611713565b505050505050565b606060008251905060008103610edf5760405180602001604052806000815250915050611049565b60006003600283610ef0919061312b565b610efa91906131c5565b6004610f0691906131f6565b90506000602082610f17919061312b565b67ffffffffffffffff811115610f3057610f2f611e38565b5b6040519080825280601f01601f191660200182016040528015610f625781602001600182028036833780820191505090505b509050600060405180606001604052806040815260200161392b604091399050600181016020830160005b868110156110065760038101905062ffffff818a015116603f8160121c168401518060081b905060ff603f83600c1c1686015116810190508060081b905060ff603f8360061c1686015116810190508060081b905060ff603f831686015116810190508060e01b90508084526004840193505050610f8d565b50600386066001811461102057600281146110305761103b565b613d3d60f01b600283035261103b565b603d60f81b60018303525b508484525050819450505050505b919050565b6110e4816040516024016110629190611e11565b6040516020818303038152906040527f41304fac000000000000000000000000000000000000000000000000000000007bffffffffffffffffffffffffffffffffffffffffffffffffffffffff19166020820180517bffffffffffffffffffffffffffffffffffffffffffffffffffffffff83818316178352505050506118ea565b50565b600073ffffffffffffffffffffffffffffffffffffffff168473ffffffffffffffffffffffffffffffffffffffff1603611156576040517f08c379a000000000000000000000000000000000000000000000000000000000815260040161114d906132aa565b60405180910390fd5b6000611160610b8e565b9050600061116d85611913565b9050600061117a85611913565b905061118b83600089858589611703565b8460008088815260200190815260200160002060008973ffffffffffffffffffffffffffffffffffffffff1673ffffffffffffffffffffffffffffffffffffffff16815260200190815260200160002060008282546111ea919061312b565b925050819055508673ffffffffffffffffffffffffffffffffffffffff16600073ffffffffffffffffffffffffffffffffffffffff168473ffffffffffffffffffffffffffffffffffffffff167fc3d58168c5ae7397731d063d5bbf3d657854427343f4c083240f7aacaa2d0f6289896040516112689291906132ca565b60405180910390a461127f8360008985858961170b565b61128e8360008989898961198d565b50505050505050565b806004600084815260200190815260200160002090816112b7919061348a565b50817f6bb7ff708619ba0610cba295a58592e0451dee2622938c8755667688daf3529b6112e3846103f1565b6040516112f09190611e11565b60405180910390a25050565b8173ffffffffffffffffffffffffffffffffffffffff168373ffffffffffffffffffffffffffffffffffffffff160361136a576040517f08c379a0000000000000000000000000000000000000000000000000000000008152600401611361906135ce565b60405180910390fd5b80600160008573ffffffffffffffffffffffffffffffffffffffff1673ffffffffffffffffffffffffffffffffffffffff16815260200190815260200160002060008473ffffffffffffffffffffffffffffffffffffffff1673ffffffffffffffffffffffffffffffffffffffff16815260200190815260200160002060006101000a81548160ff0219169083151502179055508173ffffffffffffffffffffffffffffffffffffffff168373ffffffffffffffffffffffffffffffffffffffff167f17307eab39ab6107e8899845ad3d59bd9653f200f220920489ca2b5937696c318360405161145b9190611d39565b60405180910390a3505050565b600073ffffffffffffffffffffffffffffffffffffffff168473ffffffffffffffffffffffffffffffffffffffff16036114d7576040517f08c379a00000000000000000000000000000000000000000000000000000000081526004016114ce90613079565b60405180910390fd5b60006114e1610b8e565b905060006114ee85611913565b905060006114fb85611913565b905061150b838989858589611703565b600080600088815260200190815260200160002060008a73ffffffffffffffffffffffffffffffffffffffff1673ffffffffffffffffffffffffffffffffffffffff168152602001908152602001600020549050858110156115a2576040517f08c379a00000000000000000000000000000000000000000000000000000000081526004016115999061310b565b60405180910390fd5b85810360008089815260200190815260200160002060008b73ffffffffffffffffffffffffffffffffffffffff1673ffffffffffffffffffffffffffffffffffffffff168152602001908152602001600020819055508560008089815260200190815260200160002060008a73ffffffffffffffffffffffffffffffffffffffff1673ffffffffffffffffffffffffffffffffffffffff1681526020019081526020016000206000828254611657919061312b565b925050819055508773ffffffffffffffffffffffffffffffffffffffff168973ffffffffffffffffffffffffffffffffffffffff168573ffffffffffffffffffffffffffffffffffffffff167fc3d58168c5ae7397731d063d5bbf3d657854427343f4c083240f7aacaa2d0f628a8a6040516116d49291906132ca565b60405180910390a46116ea848a8a86868a61170b565b6116f8848a8a8a8a8a61198d565b505050505050505050565b505050505050565b505050505050565b6117328473ffffffffffffffffffffffffffffffffffffffff16611b64565b156118e2578373ffffffffffffffffffffffffffffffffffffffff1663bc197c8187878686866040518663ffffffff1660e01b8152600401611778959493929190613643565b6020604051808303816000875af19250505080156117b457506040513d601f19601f820116820180604052508101906117b191906136c0565b60015b611859576117c06136fa565b806308c379a00361181c57506117d461371c565b806117df575061181e565b806040517f08c379a00000000000000000000000000000000000000000000000000000000081526004016118139190611e11565b60405180910390fd5b505b6040517f08c379a00000000000000000000000000000000000000000000000000000000081526004016118509061381e565b60405180910390fd5b63bc197c8160e01b7bffffffffffffffffffffffffffffffffffffffffffffffffffffffff1916817bffffffffffffffffffffffffffffffffffffffffffffffffffffffff1916146118e0576040517f08c379a00000000000000000000000000000000000000000000000000000000081526004016118d7906138b0565b60405180910390fd5b505b505050505050565b60008151905060006a636f6e736f6c652e6c6f679050602083016000808483855afa5050505050565b60606000600167ffffffffffffffff81111561193257611931611e38565b5b6040519080825280602002602001820160405280156119605781602001602082028036833780820191505090505b509050828160008151811061197857611977612910565b5b60200260200101818152505080915050919050565b6119ac8473ffffffffffffffffffffffffffffffffffffffff16611b64565b15611b5c578373ffffffffffffffffffffffffffffffffffffffff1663f23a6e6187878686866040518663ffffffff1660e01b81526004016119f29594939291906138d0565b6020604051808303816000875af1925050508015611a2e57506040513d601f19601f82011682018060405250810190611a2b91906136c0565b60015b611ad357611a3a6136fa565b806308c379a003611a965750611a4e61371c565b80611a595750611a98565b806040517f08c379a0000000000000000000000000000000000000000000000000000000008152600401611a8d9190611e11565b60405180910390fd5b505b6040517f08c379a0000000000000000000000000000000000000000000000000000000008152600401611aca9061381e565b60405180910390fd5b63f23a6e6160e01b7bffffffffffffffffffffffffffffffffffffffffffffffffffffffff1916817bffffffffffffffffffffffffffffffffffffffffffffffffffffffff191614611b5a576040517f08c379a0000000000000000000000000000000000000000000000000000000008152600401611b51906138b0565b60405180910390fd5b505b505050505050565b6000808273ffffffffffffffffffffffffffffffffffffffff163b119050919050565b6000604051905090565b600080fd5b600080fd5b600073ffffffffffffffffffffffffffffffffffffffff82169050919050565b6000611bc682611b9b565b9050919050565b611bd681611bbb565b8114611be157600080fd5b50565b600081359050611bf381611bcd565b92915050565b6000819050919050565b611c0c81611bf9565b8114611c1757600080fd5b50565b600081359050611c2981611c03565b92915050565b60008060408385031215611c4657611c45611b91565b5b6000611c5485828601611be4565b9250506020611c6585828601611c1a565b9150509250929050565b611c7881611bf9565b82525050565b6000602082019050611c936000830184611c6f565b92915050565b60007fffffffff0000000000000000000000000000000000000000000000000000000082169050919050565b611cce81611c99565b8114611cd957600080fd5b50565b600081359050611ceb81611cc5565b92915050565b600060208284031215611d0757611d06611b91565b5b6000611d1584828501611cdc565b91505092915050565b60008115159050919050565b611d3381611d1e565b82525050565b6000602082019050611d4e6000830184611d2a565b92915050565b600060208284031215611d6a57611d69611b91565b5b6000611d7884828501611c1a565b91505092915050565b600081519050919050565b600082825260208201905092915050565b60005b83811015611dbb578082015181840152602081019050611da0565b60008484015250505050565b6000601f19601f8301169050919050565b6000611de382611d81565b611ded8185611d8c565b9350611dfd818560208601611d9d565b611e0681611dc7565b840191505092915050565b60006020820190508181036000830152611e2b8184611dd8565b905092915050565b600080fd5b7f4e487b7100000000000000000000000000000000000000000000000000000000600052604160045260246000fd5b611e7082611dc7565b810181811067ffffffffffffffff82111715611e8f57611e8e611e38565b5b80604052505050565b6000611ea2611b87565b9050611eae8282611e67565b919050565b600067ffffffffffffffff821115611ece57611ecd611e38565b5b602082029050602081019050919050565b600080fd5b6000611ef7611ef284611eb3565b611e98565b90508083825260208201905060208402830185811115611f1a57611f19611edf565b5b835b81811015611f435780611f2f8882611be4565b845260208401935050602081019050611f1c565b5050509392505050565b600082601f830112611f6257611f61611e33565b5b8135611f72848260208601611ee4565b91505092915050565b600080fd5b600067ffffffffffffffff821115611f9b57611f9a611e38565b5b611fa482611dc7565b9050602081019050919050565b82818337600083830152505050565b6000611fd3611fce84611f80565b611e98565b905082815260208101848484011115611fef57611fee611f7b565b5b611ffa848285611fb1565b509392505050565b600082601f83011261201757612016611e33565b5b8135612027848260208601611fc0565b91505092915050565b6000806000806080858703121561204a57612049611b91565b5b600085013567ffffffffffffffff81111561206857612067611b96565b5b61207487828801611f4d565b945050602085013567ffffffffffffffff81111561209557612094611b96565b5b6120a187828801612002565b935050604085013567ffffffffffffffff8111156120c2576120c1611b96565b5b6120ce87828801612002565b925050606085013567ffffffffffffffff8111156120ef576120ee611b96565b5b6120fb87828801612002565b91505092959194509250565b600067ffffffffffffffff82111561212257612121611e38565b5b602082029050602081019050919050565b600061214661214184612107565b611e98565b9050808382526020820190506020840283018581111561216957612168611edf565b5b835b81811015612192578061217e8882611c1a565b84526020840193505060208101905061216b565b5050509392505050565b600082601f8301126121b1576121b0611e33565b5b81356121c1848260208601612133565b91505092915050565b600067ffffffffffffffff8211156121e5576121e4611e38565b5b6121ee82611dc7565b9050602081019050919050565b600061220e612209846121ca565b611e98565b90508281526020810184848401111561222a57612229611f7b565b5b612235848285611fb1565b509392505050565b600082601f83011261225257612251611e33565b5b81356122628482602086016121fb565b91505092915050565b600080600080600060a0868803121561228757612286611b91565b5b600061229588828901611be4565b95505060206122a688828901611be4565b945050604086013567ffffffffffffffff8111156122c7576122c6611b96565b5b6122d38882890161219c565b935050606086013567ffffffffffffffff8111156122f4576122f3611b96565b5b6123008882890161219c565b925050608086013567ffffffffffffffff81111561232157612320611b96565b5b61232d8882890161223d565b9150509295509295909350565b6000806000806080858703121561235457612353611b91565b5b600061236287828801611be4565b945050602085013567ffffffffffffffff81111561238357612382611b96565b5b61238f87828801612002565b935050604085013567ffffffffffffffff8111156123b0576123af611b96565b5b6123bc87828801612002565b925050606085013567ffffffffffffffff8111156123dd576123dc611b96565b5b6123e987828801612002565b91505092959194509250565b6000806040838503121561240c5761240b611b91565b5b600083013567ffffffffffffffff81111561242a57612429611b96565b5b61243685828601611f4d565b925050602083013567ffffffffffffffff81111561245757612456611b96565b5b6124638582860161219c565b9150509250929050565b600081519050919050565b600082825260208201905092915050565b6000819050602082019050919050565b6124a281611bf9565b82525050565b60006124b48383612499565b60208301905092915050565b6000602082019050919050565b60006124d88261246d565b6124e28185612478565b93506124ed83612489565b8060005b8381101561251e57815161250588826124a8565b9750612510836124c0565b9250506001810190506124f1565b5085935050505092915050565b6000602082019050818103600083015261254581846124cd565b905092915050565b61255681611bbb565b82525050565b6000602082019050612571600083018461254d565b92915050565b61258081611d1e565b811461258b57600080fd5b50565b60008135905061259d81612577565b92915050565b600080604083850312156125ba576125b9611b91565b5b60006125c885828601611be4565b92505060206125d98582860161258e565b9150509250929050565b600080604083850312156125fa576125f9611b91565b5b600061260885828601611be4565b925050602061261985828601611be4565b9150509250929050565b600080600080600060a0868803121561263f5761263e611b91565b5b600061264d88828901611be4565b955050602061265e88828901611be4565b945050604061266f88828901611c1a565b935050606061268088828901611c1a565b925050608086013567ffffffffffffffff8111156126a1576126a0611b96565b5b6126ad8882890161223d565b9150509295509295909350565b7f455243313135353a2061646472657373207a65726f206973206e6f742061207660008201527f616c6964206f776e657200000000000000000000000000000000000000000000602082015250565b6000612716602a83611d8c565b9150612721826126ba565b604082019050919050565b6000602082019050818103600083015261274581612709565b9050919050565b7f4e487b7100000000000000000000000000000000000000000000000000000000600052602260045260246000fd5b6000600282049050600182168061279357607f821691505b6020821081036127a6576127a561274c565b5b50919050565b600081905092915050565b60008190508160005260206000209050919050565b600081546127d98161277b565b6127e381866127ac565b945060018216600081146127fe576001811461281357612846565b60ff1983168652811515820286019350612846565b61281c856127b7565b60005b8381101561283e5781548189015260018201915060208101905061281f565b838801955050505b50505092915050565b600061285a82611d81565b61286481856127ac565b9350612874818560208601611d9d565b80840191505092915050565b600061288c82856127cc565b9150612898828461284f565b91508190509392505050565b7f4f6e6c79206f776e65722063616e206d696e7400000000000000000000000000600082015250565b60006128da601383611d8c565b91506128e5826128a4565b602082019050919050565b60006020820190508181036000830152612909816128cd565b9050919050565b7f4e487b7100000000000000000000000000000000000000000000000000000000600052603260045260246000fd5b7f4e487b7100000000000000000000000000000000000000000000000000000000600052601160045260246000fd5b600061297982611bf9565b91507fffffffffffffffffffffffffffffffffffffffffffffffffffffffffffffffff82036129ab576129aa61293f565b5b600182019050919050565b7f455243313135353a2063616c6c6572206973206e6f7420746f6b656e206f776e60008201527f6572206f7220617070726f766564000000000000000000000000000000000000602082015250565b6000612a12602e83611d8c565b9150612a1d826129b6565b604082019050919050565b60006020820190508181036000830152612a4181612a05565b9050919050565b7f7b2261747472696275746573223a5b7b22646973706c61795f74797065223a2260008201527f6e756d626572222c2274726169745f74797065223a226964222c2276616c756560208201527f223a000000000000000000000000000000000000000000000000000000000000604082015250565b6000612aca6042836127ac565b9150612ad582612a48565b604282019050919050565b7f7d2c207b2274726169745f74797065223a2254797065222c2276616c7565223a60008201527f2200000000000000000000000000000000000000000000000000000000000000602082015250565b6000612b3c6021836127ac565b9150612b4782612ae0565b602182019050919050565b7f227d5d2c20226e616d65223a2274657374000000000000000000000000000000600082015250565b6000612b886011836127ac565b9150612b9382612b52565b601182019050919050565b7f222c2273796d626f6c223a227465737400000000000000000000000000000000600082015250565b6000612bd46010836127ac565b9150612bdf82612b9e565b601082019050919050565b7f222c226465736372697074696f6e223a224e46547320617474657374696e672060008201527f746f20746865697220636f6e747269627574696f6e20696e207468652044414f60208201527f73207265636f7264656420627920556e7974652e205769746820556e7974652c60408201527f206d656d626572732063616e20656173696c79207265636f72642070726f706f60608201527f73616c732c20636f6e747269627574696f6e7320616e6420707261697365206360808201527f6f6d6d656e7473207573696e6720736c61736820636f6d6d616e64732e20576560a08201527f2063616e20616c736f2073656e6420455243323020746f6b656e732c204e465460c08201527f206f7220574c20646570656e64696e67206f6e2077686174206973206265696e60e08201527f67207265636f726465642e204d6f726520696e666f3a2068747470733a2f2f756101008201527f6e7974652e7465616d2f222c22696d616765223a20220000000000000000000061012082015250565b6000612d79610136836127ac565b9150612d8482612bea565b61013682019050919050565b7f222c2265787465726e616c5f75726c223a202268747470733a2f2f626574612e60008201527f756e7974652e7465616d2f227d00000000000000000000000000000000000000602082015250565b6000612dec602d836127ac565b9150612df782612d90565b602d82019050919050565b6000612e0d82612abd565b9150612e19828661284f565b9150612e2482612b2f565b9150612e30828561284f565b9150612e3b82612b7b565b9150612e4682612bc7565b9150612e5182612d6b565b9150612e5d828461284f565b9150612e6882612ddf565b9150819050949350505050565b7f646174613a6170706c69636174696f6e2f6a736f6e3b6261736536342c000000600082015250565b6000612eab601d836127ac565b9150612eb682612e75565b601d82019050919050565b6000612ecc82612e9e565b9150612ed8828461284f565b915081905092915050565b7f455243313135353a206163636f756e747320616e6420696473206c656e67746860008201527f206d69736d617463680000000000000000000000000000000000000000000000602082015250565b6000612f3f602983611d8c565b9150612f4a82612ee3565b604082019050919050565b60006020820190508181036000830152612f6e81612f32565b9050919050565b7f455243313135353a2069647320616e6420616d6f756e7473206c656e6774682060008201527f6d69736d61746368000000000000000000000000000000000000000000000000602082015250565b6000612fd1602883611d8c565b9150612fdc82612f75565b604082019050919050565b6000602082019050818103600083015261300081612fc4565b9050919050565b7f455243313135353a207472616e7366657220746f20746865207a65726f20616460008201527f6472657373000000000000000000000000000000000000000000000000000000602082015250565b6000613063602583611d8c565b915061306e82613007565b604082019050919050565b6000602082019050818103600083015261309281613056565b9050919050565b7f455243313135353a20696e73756666696369656e742062616c616e636520666f60008201527f72207472616e7366657200000000000000000000000000000000000000000000602082015250565b60006130f5602a83611d8c565b915061310082613099565b604082019050919050565b60006020820190508181036000830152613124816130e8565b9050919050565b600061313682611bf9565b915061314183611bf9565b92508282019050808211156131595761315861293f565b5b92915050565b6000604082019050818103600083015261317981856124cd565b9050818103602083015261318d81846124cd565b90509392505050565b7f4e487b7100000000000000000000000000000000000000000000000000000000600052601260045260246000fd5b60006131d082611bf9565b91506131db83611bf9565b9250826131eb576131ea613196565b5b828204905092915050565b600061320182611bf9565b915061320c83611bf9565b925082820261321a81611bf9565b915082820484148315176132315761323061293f565b5b5092915050565b7f455243313135353a206d696e7420746f20746865207a65726f2061646472657360008201527f7300000000000000000000000000000000000000000000000000000000000000602082015250565b6000613294602183611d8c565b915061329f82613238565b604082019050919050565b600060208201905081810360008301526132c381613287565b9050919050565b60006040820190506132df6000830185611c6f565b6132ec6020830184611c6f565b9392505050565b60006020601f8301049050919050565b600082821b905092915050565b6000600883026133407fffffffffffffffffffffffffffffffffffffffffffffffffffffffffffffffff82613303565b61334a8683613303565b95508019841693508086168417925050509392505050565b6000819050919050565b600061338761338261337d84611bf9565b613362565b611bf9565b9050919050565b6000819050919050565b6133a18361336c565b6133b56133ad8261338e565b848454613310565b825550505050565b600090565b6133ca6133bd565b6133d5818484613398565b505050565b5b818110156133f9576133ee6000826133c2565b6001810190506133db565b5050565b601f82111561343e5761340f816127b7565b613418846132f3565b81016020851015613427578190505b61343b613433856132f3565b8301826133da565b50505b505050565b600082821c905092915050565b600061346160001984600802613443565b1980831691505092915050565b600061347a8383613450565b9150826002028217905092915050565b61349382611d81565b67ffffffffffffffff8111156134ac576134ab611e38565b5b6134b6825461277b565b6134c18282856133fd565b600060209050601f8311600181146134f457600084156134e2578287015190505b6134ec858261346e565b865550613554565b601f198416613502866127b7565b60005b8281101561352a57848901518255600182019150602085019450602081019050613505565b868310156135475784890151613543601f891682613450565b8355505b6001600288020188555050505b505050505050565b7f455243313135353a2073657474696e6720617070726f76616c2073746174757360008201527f20666f722073656c660000000000000000000000000000000000000000000000602082015250565b60006135b8602983611d8c565b91506135c38261355c565b604082019050919050565b600060208201905081810360008301526135e7816135ab565b9050919050565b600081519050919050565b600082825260208201905092915050565b6000613615826135ee565b61361f81856135f9565b935061362f818560208601611d9d565b61363881611dc7565b840191505092915050565b600060a082019050613658600083018861254d565b613665602083018761254d565b818103604083015261367781866124cd565b9050818103606083015261368b81856124cd565b9050818103608083015261369f818461360a565b90509695505050505050565b6000815190506136ba81611cc5565b92915050565b6000602082840312156136d6576136d5611b91565b5b60006136e4848285016136ab565b91505092915050565b60008160e01c9050919050565b600060033d11156137195760046000803e6137166000516136ed565b90505b90565b600060443d106137a95761372e611b87565b60043d036004823e80513d602482011167ffffffffffffffff821117156137565750506137a9565b808201805167ffffffffffffffff81111561377457505050506137a9565b80602083010160043d0385018111156137915750505050506137a9565b6137a082602001850186611e67565b82955050505050505b90565b7f455243313135353a207472616e7366657220746f206e6f6e2d4552433131353560008201527f526563656976657220696d706c656d656e746572000000000000000000000000602082015250565b6000613808603483611d8c565b9150613813826137ac565b604082019050919050565b60006020820190508181036000830152613837816137fb565b9050919050565b7f455243313135353a204552433131353552656365697665722072656a6563746560008201527f6420746f6b656e73000000000000000000000000000000000000000000000000602082015250565b600061389a602883611d8c565b91506138a58261383e565b604082019050919050565b600060208201905081810360008301526138c98161388d565b9050919050565b600060a0820190506138e5600083018861254d565b6138f2602083018761254d565b6138ff6040830186611c6f565b61390c6060830185611c6f565b818103608083015261391e818461360a565b9050969550505050505056fe4142434445464748494a4b4c4d4e4f505152535455565758595a6162636465666768696a6b6c6d6e6f707172737475767778797a303132333435363738392b2fa26469706673582212206ab2154f354864766bff5563ba81c84ffb02474e4a006dc6b2ab0860eb131ab464736f6c63430008120033",
  "linkReferences": {},
  "deployedLinkReferences": {}
}