{
  "_format": "hh-sol-artifact-1",
  "contractName": "Hackathon",
  "sourceName": "contracts/Hackathon.sol",
  "abi": [
    {
      "inputs": [],
      "stateMutability": "nonpayable",
      "type": "constructor"
    },
    {
      "anonymous": false,
      "inputs": [
        {
          "indexed": true,
          "internalType": "address",
          "name": "account",
          "type": "address"
        },
        {
          "indexed": true,
          "internalType": "address",
          "name": "operator",
          "type": "address"
        },
        {
          "indexed": false,
          "internalType": "bool",
          "name": "approved",
          "type": "bool"
        }
      ],
      "name": "ApprovalForAll",
      "type": "event"
    },
    {
      "anonymous": false,
      "inputs": [
        {
          "indexed": true,
          "internalType": "address",
          "name": "to",
          "type": "address"
        },
        {
          "indexed": true,
          "internalType": "uint256",
          "name": "id",
          "type": "uint256"
        },
        {
          "indexed": false,
          "internalType": "uint256",
          "name": "amount",
          "type": "uint256"
        }
      ],
      "name": "Sent",
      "type": "event"
    },
    {
      "anonymous": false,
      "inputs": [
        {
          "indexed": true,
          "internalType": "address",
          "name": "operator",
          "type": "address"
        },
        {
          "indexed": true,
          "internalType": "address",
          "name": "from",
          "type": "address"
        },
        {
          "indexed": true,
          "internalType": "address",
          "name": "to",
          "type": "address"
        },
        {
          "indexed": false,
          "internalType": "uint256[]",
          "name": "ids",
          "type": "uint256[]"
        },
        {
          "indexed": false,
          "internalType": "uint256[]",
          "name": "values",
          "type": "uint256[]"
        }
      ],
      "name": "TransferBatch",
      "type": "event"
    },
    {
      "anonymous": false,
      "inputs": [
        {
          "indexed": true,
          "internalType": "address",
          "name": "operator",
          "type": "address"
        },
        {
          "indexed": true,
          "internalType": "address",
          "name": "from",
          "type": "address"
        },
        {
          "indexed": true,
          "internalType": "address",
          "name": "to",
          "type": "address"
        },
        {
          "indexed": false,
          "internalType": "uint256",
          "name": "id",
          "type": "uint256"
        },
        {
          "indexed": false,
          "internalType": "uint256",
          "name": "value",
          "type": "uint256"
        }
      ],
      "name": "TransferSingle",
      "type": "event"
    },
    {
      "anonymous": false,
      "inputs": [
        {
          "indexed": false,
          "internalType": "string",
          "name": "value",
          "type": "string"
        },
        {
          "indexed": true,
          "internalType": "uint256",
          "name": "id",
          "type": "uint256"
        }
      ],
      "name": "URI",
      "type": "event"
    },
    {
      "inputs": [
        {
          "internalType": "address",
          "name": "account",
          "type": "address"
        },
        {
          "internalType": "uint256",
          "name": "id",
          "type": "uint256"
        }
      ],
      "name": "balanceOf",
      "outputs": [
        {
          "internalType": "uint256",
          "name": "",
          "type": "uint256"
        }
      ],
      "stateMutability": "view",
      "type": "function"
    },
    {
      "inputs": [
        {
          "internalType": "address[]",
          "name": "accounts",
          "type": "address[]"
        },
        {
          "internalType": "uint256[]",
          "name": "ids",
          "type": "uint256[]"
        }
      ],
      "name": "balanceOfBatch",
      "outputs": [
        {
          "internalType": "uint256[]",
          "name": "",
          "type": "uint256[]"
        }
      ],
      "stateMutability": "view",
      "type": "function"
    },
    {
      "inputs": [
        {
          "internalType": "address",
          "name": "account",
          "type": "address"
        },
        {
          "internalType": "address",
          "name": "operator",
          "type": "address"
        }
      ],
      "name": "isApprovedForAll",
      "outputs": [
        {
          "internalType": "bool",
          "name": "",
          "type": "bool"
        }
      ],
      "stateMutability": "view",
      "type": "function"
    },
    {
      "inputs": [
        {
          "internalType": "address",
          "name": "_owner",
          "type": "address"
        },
        {
          "internalType": "string",
          "name": "_ipfsLink",
          "type": "string"
        },
        {
          "internalType": "string",
          "name": "_taskId",
          "type": "string"
        }
      ],
      "name": "mint",
      "outputs": [],
      "stateMutability": "nonpayable",
      "type": "function"
    },
    {
      "inputs": [
        {
          "internalType": "address[]",
          "name": "_owner",
          "type": "address[]"
        },
        {
          "internalType": "string[]",
          "name": "_ipfsLinks",
          "type": "string[]"
        },
        {
          "internalType": "string[]",
          "name": "_taskIds",
          "type": "string[]"
        }
      ],
      "name": "mintBatch",
      "outputs": [],
      "stateMutability": "nonpayable",
      "type": "function"
    },
    {
      "inputs": [],
      "name": "owner",
      "outputs": [
        {
          "internalType": "address",
          "name": "",
          "type": "address"
        }
      ],
      "stateMutability": "view",
      "type": "function"
    },
    {
      "inputs": [
        {
          "internalType": "address",
          "name": "from",
          "type": "address"
        },
        {
          "internalType": "address",
          "name": "to",
          "type": "address"
        },
        {
          "internalType": "uint256[]",
          "name": "ids",
          "type": "uint256[]"
        },
        {
          "internalType": "uint256[]",
          "name": "amounts",
          "type": "uint256[]"
        },
        {
          "internalType": "bytes",
          "name": "data",
          "type": "bytes"
        }
      ],
      "name": "safeBatchTransferFrom",
      "outputs": [],
      "stateMutability": "nonpayable",
      "type": "function"
    },
    {
      "inputs": [
        {
          "internalType": "address",
          "name": "from",
          "type": "address"
        },
        {
          "internalType": "address",
          "name": "to",
          "type": "address"
        },
        {
          "internalType": "uint256",
          "name": "id",
          "type": "uint256"
        },
        {
          "internalType": "uint256",
          "name": "amount",
          "type": "uint256"
        },
        {
          "internalType": "bytes",
          "name": "data",
          "type": "bytes"
        }
      ],
      "name": "safeTransferFrom",
      "outputs": [],
      "stateMutability": "nonpayable",
      "type": "function"
    },
    {
      "inputs": [
        {
          "internalType": "address",
          "name": "operator",
          "type": "address"
        },
        {
          "internalType": "bool",
          "name": "approved",
          "type": "bool"
        }
      ],
      "name": "setApprovalForAll",
      "outputs": [],
      "stateMutability": "nonpayable",
      "type": "function"
    },
    {
      "inputs": [
        {
          "internalType": "bytes4",
          "name": "interfaceId",
          "type": "bytes4"
        }
      ],
      "name": "supportsInterface",
      "outputs": [
        {
          "internalType": "bool",
          "name": "",
          "type": "bool"
        }
      ],
      "stateMutability": "view",
      "type": "function"
    },
    {
      "inputs": [
        {
          "internalType": "uint256",
          "name": "tokenId",
          "type": "uint256"
        }
      ],
      "name": "uri",
      "outputs": [
        {
          "internalType": "string",
          "name": "",
          "type": "string"
        }
      ],
      "stateMutability": "view",
      "type": "function"
    }
  ],
  "bytecode": "0x6080604052604051806020016040528060008152506003908162000024919062000356565b5060006005553480156200003757600080fd5b506040518060400160405280600a81526020017f556e797465546f6b656e000000000000000000000000000000000000000000008152506200007f81620000c760201b60201c565b5033600660006101000a81548173ffffffffffffffffffffffffffffffffffffffff021916908373ffffffffffffffffffffffffffffffffffffffff1602179055506200043d565b8060029081620000d8919062000356565b5050565b600081519050919050565b7f4e487b7100000000000000000000000000000000000000000000000000000000600052604160045260246000fd5b7f4e487b7100000000000000000000000000000000000000000000000000000000600052602260045260246000fd5b600060028204905060018216806200015e57607f821691505b60208210810362000174576200017362000116565b5b50919050565b60008190508160005260206000209050919050565b60006020601f8301049050919050565b600082821b905092915050565b600060088302620001de7fffffffffffffffffffffffffffffffffffffffffffffffffffffffffffffffff826200019f565b620001ea86836200019f565b95508019841693508086168417925050509392505050565b6000819050919050565b6000819050919050565b600062000237620002316200022b8462000202565b6200020c565b62000202565b9050919050565b6000819050919050565b620002538362000216565b6200026b62000262826200023e565b848454620001ac565b825550505050565b600090565b6200028262000273565b6200028f81848462000248565b505050565b5b81811015620002b757620002ab60008262000278565b60018101905062000295565b5050565b601f8211156200030657620002d0816200017a565b620002db846200018f565b81016020851015620002eb578190505b62000303620002fa856200018f565b83018262000294565b50505b505050565b600082821c905092915050565b60006200032b600019846008026200030b565b1980831691505092915050565b600062000346838362000318565b9150826002028217905092915050565b6200036182620000dc565b67ffffffffffffffff8111156200037d576200037c620000e7565b5b62000389825462000145565b62000396828285620002bb565b600060209050601f831160018114620003ce5760008415620003b9578287015190505b620003c5858262000338565b86555062000435565b601f198416620003de866200017a565b60005b828110156200040857848901518255600182019150602085019450602081019050620003e1565b8683101562000428578489015162000424601f89168262000318565b8355505b6001600288020188555050505b505050505050565b613b26806200044d6000396000f3fe608060405234801561001057600080fd5b50600436106100a85760003560e01c80634e1273f4116100715780634e1273f4146101755780638da5cb5b146101a557806399071190146101c3578063a22cb465146101df578063e985e9c5146101fb578063f242432a1461022b576100a8565b8062fdd58e146100ad57806301ffc9a7146100dd5780630980978c1461010d5780630e89341c146101295780632eb2c2d614610159575b600080fd5b6100c760048036038101906100c29190611caf565b610247565b6040516100d49190611cfe565b60405180910390f35b6100f760048036038101906100f29190611d71565b61030f565b6040516101049190611db9565b60405180910390f35b610127600480360381019061012291906120c3565b6103f1565b005b610143600480360381019061013e919061216a565b610550565b6040516101509190612216565b60405180910390f35b610173600480360381019061016e919061239c565b610635565b005b61018f600480360381019061018a919061246b565b6106d6565b60405161019c91906125a1565b60405180910390f35b6101ad6107ef565b6040516101ba91906125d2565b60405180910390f35b6101dd60048036038101906101d891906125ed565b610815565b005b6101f960048036038101906101f491906126a4565b6109c5565b005b610215600480360381019061021091906126e4565b6109db565b6040516102229190611db9565b60405180910390f35b61024560048036038101906102409190612724565b610a6f565b005b60008073ffffffffffffffffffffffffffffffffffffffff168373ffffffffffffffffffffffffffffffffffffffff16036102b7576040517f08c379a00000000000000000000000000000000000000000000000000000000081526004016102ae9061282d565b60405180910390fd5b60008083815260200190815260200160002060008473ffffffffffffffffffffffffffffffffffffffff1673ffffffffffffffffffffffffffffffffffffffff16815260200190815260200160002054905092915050565b60007fd9b67a26000000000000000000000000000000000000000000000000000000007bffffffffffffffffffffffffffffffffffffffffffffffffffffffff1916827bffffffffffffffffffffffffffffffffffffffffffffffffffffffff191614806103da57507f0e89341c000000000000000000000000000000000000000000000000000000007bffffffffffffffffffffffffffffffffffffffffffffffffffffffff1916827bffffffffffffffffffffffffffffffffffffffffffffffffffffffff1916145b806103ea57506103e982610b10565b5b9050919050565b600660009054906101000a900473ffffffffffffffffffffffffffffffffffffffff1673ffffffffffffffffffffffffffffffffffffffff163373ffffffffffffffffffffffffffffffffffffffff1614610481576040517f08c379a000000000000000000000000000000000000000000000000000000000815260040161047890612899565b60405180910390fd5b81518351148015610493575080518251145b6104d2576040517f08c379a00000000000000000000000000000000000000000000000000000000081526004016104c99061292b565b60405180910390fd5b60005b835181101561054a576105378482815181106104f4576104f361294b565b5b602002602001015184838151811061050f5761050e61294b565b5b602002602001015184848151811061052a5761052961294b565b5b6020026020010151610815565b8080610542906129a9565b9150506104d5565b50505050565b6060600060046000848152602001908152602001600020805461057290612a20565b80601f016020809104026020016040519081016040528092919081815260200182805461059e90612a20565b80156105eb5780601f106105c0576101008083540402835291602001916105eb565b820191906000526020600020905b8154815290600101906020018083116105ce57829003601f168201915b5050505050905060008151116106095761060483610b7a565b61062d565b60038160405160200161061d929190612b25565b6040516020818303038152906040525b915050919050565b61063d610c0e565b73ffffffffffffffffffffffffffffffffffffffff168573ffffffffffffffffffffffffffffffffffffffff16148061068357506106828561067d610c0e565b6109db565b5b6106c2576040517f08c379a00000000000000000000000000000000000000000000000000000000081526004016106b990612bbb565b60405180910390fd5b6106cf8585858585610c16565b5050505050565b6060815183511461071c576040517f08c379a000000000000000000000000000000000000000000000000000000000815260040161071390612c4d565b60405180910390fd5b6000835167ffffffffffffffff81111561073957610738611dea565b5b6040519080825280602002602001820160405280156107675781602001602082028036833780820191505090505b50905060005b84518110156107e4576107b485828151811061078c5761078b61294b565b5b60200260200101518583815181106107a7576107a661294b565b5b6020026020010151610247565b8282815181106107c7576107c661294b565b5b602002602001018181525050806107dd906129a9565b905061076d565b508091505092915050565b600660009054906101000a900473ffffffffffffffffffffffffffffffffffffffff1681565b600660009054906101000a900473ffffffffffffffffffffffffffffffffffffffff1673ffffffffffffffffffffffffffffffffffffffff163373ffffffffffffffffffffffffffffffffffffffff16146108a5576040517f08c379a000000000000000000000000000000000000000000000000000000000815260040161089c90612899565b60405180910390fd5b600560008154809291906108b8906129a9565b919050555060006108e982846040516020016108d5929190613027565b604051602081830303815290604052610f37565b90506109296040518060400160405280601181526020017f0a2d2d2d2d2d204a534f4e202d2d2d2d2d0000000000000000000000000000008152506110ce565b610932816110ce565b6109706040518060400160405280601181526020017f2d2d2d2d2d2d2d2d2d2d2d2d2d2d2d2d0a0000000000000000000000000000008152506110ce565b60008160405160200161098391906130d9565b60405160208183030381529060405290506109b285600554600160405180602001604052806000815250611167565b6109be60055482611317565b5050505050565b6109d76109d0610c0e565b838361137c565b5050565b6000600160008473ffffffffffffffffffffffffffffffffffffffff1673ffffffffffffffffffffffffffffffffffffffff16815260200190815260200160002060008373ffffffffffffffffffffffffffffffffffffffff1673ffffffffffffffffffffffffffffffffffffffff16815260200190815260200160002060009054906101000a900460ff16905092915050565b610a77610c0e565b73ffffffffffffffffffffffffffffffffffffffff168573ffffffffffffffffffffffffffffffffffffffff161480610abd5750610abc85610ab7610c0e565b6109db565b5b610afc576040517f08c379a0000000000000000000000000000000000000000000000000000000008152600401610af390612bbb565b60405180910390fd5b610b0985858585856114e8565b5050505050565b60007f01ffc9a7000000000000000000000000000000000000000000000000000000007bffffffffffffffffffffffffffffffffffffffffffffffffffffffff1916827bffffffffffffffffffffffffffffffffffffffffffffffffffffffff1916149050919050565b606060028054610b8990612a20565b80601f0160208091040260200160405190810160405280929190818152602001828054610bb590612a20565b8015610c025780601f10610bd757610100808354040283529160200191610c02565b820191906000526020600020905b815481529060010190602001808311610be557829003601f168201915b50505050509050919050565b600033905090565b8151835114610c5a576040517f08c379a0000000000000000000000000000000000000000000000000000000008152600401610c519061316d565b60405180910390fd5b600073ffffffffffffffffffffffffffffffffffffffff168473ffffffffffffffffffffffffffffffffffffffff1603610cc9576040517f08c379a0000000000000000000000000000000000000000000000000000000008152600401610cc0906131ff565b60405180910390fd5b6000610cd3610c0e565b9050610ce3818787878787611783565b60005b8451811015610e94576000858281518110610d0457610d0361294b565b5b602002602001015190506000858381518110610d2357610d2261294b565b5b60200260200101519050600080600084815260200190815260200160002060008b73ffffffffffffffffffffffffffffffffffffffff1673ffffffffffffffffffffffffffffffffffffffff16815260200190815260200160002054905081811015610dc4576040517f08c379a0000000000000000000000000000000000000000000000000000000008152600401610dbb90613291565b60405180910390fd5b81810360008085815260200190815260200160002060008c73ffffffffffffffffffffffffffffffffffffffff1673ffffffffffffffffffffffffffffffffffffffff168152602001908152602001600020819055508160008085815260200190815260200160002060008b73ffffffffffffffffffffffffffffffffffffffff1673ffffffffffffffffffffffffffffffffffffffff1681526020019081526020016000206000828254610e7991906132b1565b9250508190555050505080610e8d906129a9565b9050610ce6565b508473ffffffffffffffffffffffffffffffffffffffff168673ffffffffffffffffffffffffffffffffffffffff168273ffffffffffffffffffffffffffffffffffffffff167f4a39dc06d4c0dbc64b70af90fd698a233a518aa5d07e595d983b8c0526c8f7fb8787604051610f0b9291906132e5565b60405180910390a4610f2181878787878761178b565b610f2f818787878787611793565b505050505050565b606060008251905060008103610f5f57604051806020016040528060008152509150506110c9565b60006003600283610f7091906132b1565b610f7a919061334b565b6004610f86919061337c565b90506000602082610f9791906132b1565b67ffffffffffffffff811115610fb057610faf611dea565b5b6040519080825280601f01601f191660200182016040528015610fe25781602001600182028036833780820191505090505b5090506000604051806060016040528060408152602001613ab1604091399050600181016020830160005b868110156110865760038101905062ffffff818a015116603f8160121c168401518060081b905060ff603f83600c1c1686015116810190508060081b905060ff603f8360061c1686015116810190508060081b905060ff603f831686015116810190508060e01b9050808452600484019350505061100d565b5060038606600181146110a057600281146110b0576110bb565b613d3d60f01b60028303526110bb565b603d60f81b60018303525b508484525050819450505050505b919050565b611164816040516024016110e29190612216565b6040516020818303038152906040527f41304fac000000000000000000000000000000000000000000000000000000007bffffffffffffffffffffffffffffffffffffffffffffffffffffffff19166020820180517bffffffffffffffffffffffffffffffffffffffffffffffffffffffff838183161783525050505061196a565b50565b600073ffffffffffffffffffffffffffffffffffffffff168473ffffffffffffffffffffffffffffffffffffffff16036111d6576040517f08c379a00000000000000000000000000000000000000000000000000000000081526004016111cd90613430565b60405180910390fd5b60006111e0610c0e565b905060006111ed85611993565b905060006111fa85611993565b905061120b83600089858589611783565b8460008088815260200190815260200160002060008973ffffffffffffffffffffffffffffffffffffffff1673ffffffffffffffffffffffffffffffffffffffff168152602001908152602001600020600082825461126a91906132b1565b925050819055508673ffffffffffffffffffffffffffffffffffffffff16600073ffffffffffffffffffffffffffffffffffffffff168473ffffffffffffffffffffffffffffffffffffffff167fc3d58168c5ae7397731d063d5bbf3d657854427343f4c083240f7aacaa2d0f6289896040516112e8929190613450565b60405180910390a46112ff8360008985858961178b565b61130e83600089898989611a0d565b50505050505050565b806004600084815260200190815260200160002090816113379190613610565b50817f6bb7ff708619ba0610cba295a58592e0451dee2622938c8755667688daf3529b61136384610550565b6040516113709190612216565b60405180910390a25050565b8173ffffffffffffffffffffffffffffffffffffffff168373ffffffffffffffffffffffffffffffffffffffff16036113ea576040517f08c379a00000000000000000000000000000000000000000000000000000000081526004016113e190613754565b60405180910390fd5b80600160008573ffffffffffffffffffffffffffffffffffffffff1673ffffffffffffffffffffffffffffffffffffffff16815260200190815260200160002060008473ffffffffffffffffffffffffffffffffffffffff1673ffffffffffffffffffffffffffffffffffffffff16815260200190815260200160002060006101000a81548160ff0219169083151502179055508173ffffffffffffffffffffffffffffffffffffffff168373ffffffffffffffffffffffffffffffffffffffff167f17307eab39ab6107e8899845ad3d59bd9653f200f220920489ca2b5937696c31836040516114db9190611db9565b60405180910390a3505050565b600073ffffffffffffffffffffffffffffffffffffffff168473ffffffffffffffffffffffffffffffffffffffff1603611557576040517f08c379a000000000000000000000000000000000000000000000000000000000815260040161154e906131ff565b60405180910390fd5b6000611561610c0e565b9050600061156e85611993565b9050600061157b85611993565b905061158b838989858589611783565b600080600088815260200190815260200160002060008a73ffffffffffffffffffffffffffffffffffffffff1673ffffffffffffffffffffffffffffffffffffffff16815260200190815260200160002054905085811015611622576040517f08c379a000000000000000000000000000000000000000000000000000000000815260040161161990613291565b60405180910390fd5b85810360008089815260200190815260200160002060008b73ffffffffffffffffffffffffffffffffffffffff1673ffffffffffffffffffffffffffffffffffffffff168152602001908152602001600020819055508560008089815260200190815260200160002060008a73ffffffffffffffffffffffffffffffffffffffff1673ffffffffffffffffffffffffffffffffffffffff16815260200190815260200160002060008282546116d791906132b1565b925050819055508773ffffffffffffffffffffffffffffffffffffffff168973ffffffffffffffffffffffffffffffffffffffff168573ffffffffffffffffffffffffffffffffffffffff167fc3d58168c5ae7397731d063d5bbf3d657854427343f4c083240f7aacaa2d0f628a8a604051611754929190613450565b60405180910390a461176a848a8a86868a61178b565b611778848a8a8a8a8a611a0d565b505050505050505050565b505050505050565b505050505050565b6117b28473ffffffffffffffffffffffffffffffffffffffff16611be4565b15611962578373ffffffffffffffffffffffffffffffffffffffff1663bc197c8187878686866040518663ffffffff1660e01b81526004016117f89594939291906137c9565b6020604051808303816000875af192505050801561183457506040513d601f19601f820116820180604052508101906118319190613846565b60015b6118d957611840613880565b806308c379a00361189c57506118546138a2565b8061185f575061189e565b806040517f08c379a00000000000000000000000000000000000000000000000000000000081526004016118939190612216565b60405180910390fd5b505b6040517f08c379a00000000000000000000000000000000000000000000000000000000081526004016118d0906139a4565b60405180910390fd5b63bc197c8160e01b7bffffffffffffffffffffffffffffffffffffffffffffffffffffffff1916817bffffffffffffffffffffffffffffffffffffffffffffffffffffffff191614611960576040517f08c379a000000000000000000000000000000000000000000000000000000000815260040161195790613a36565b60405180910390fd5b505b505050505050565b60008151905060006a636f6e736f6c652e6c6f679050602083016000808483855afa5050505050565b60606000600167ffffffffffffffff8111156119b2576119b1611dea565b5b6040519080825280602002602001820160405280156119e05781602001602082028036833780820191505090505b50905082816000815181106119f8576119f761294b565b5b60200260200101818152505080915050919050565b611a2c8473ffffffffffffffffffffffffffffffffffffffff16611be4565b15611bdc578373ffffffffffffffffffffffffffffffffffffffff1663f23a6e6187878686866040518663ffffffff1660e01b8152600401611a72959493929190613a56565b6020604051808303816000875af1925050508015611aae57506040513d601f19601f82011682018060405250810190611aab9190613846565b60015b611b5357611aba613880565b806308c379a003611b165750611ace6138a2565b80611ad95750611b18565b806040517f08c379a0000000000000000000000000000000000000000000000000000000008152600401611b0d9190612216565b60405180910390fd5b505b6040517f08c379a0000000000000000000000000000000000000000000000000000000008152600401611b4a906139a4565b60405180910390fd5b63f23a6e6160e01b7bffffffffffffffffffffffffffffffffffffffffffffffffffffffff1916817bffffffffffffffffffffffffffffffffffffffffffffffffffffffff191614611bda576040517f08c379a0000000000000000000000000000000000000000000000000000000008152600401611bd190613a36565b60405180910390fd5b505b505050505050565b6000808273ffffffffffffffffffffffffffffffffffffffff163b119050919050565b6000604051905090565b600080fd5b600080fd5b600073ffffffffffffffffffffffffffffffffffffffff82169050919050565b6000611c4682611c1b565b9050919050565b611c5681611c3b565b8114611c6157600080fd5b50565b600081359050611c7381611c4d565b92915050565b6000819050919050565b611c8c81611c79565b8114611c9757600080fd5b50565b600081359050611ca981611c83565b92915050565b60008060408385031215611cc657611cc5611c11565b5b6000611cd485828601611c64565b9250506020611ce585828601611c9a565b9150509250929050565b611cf881611c79565b82525050565b6000602082019050611d136000830184611cef565b92915050565b60007fffffffff0000000000000000000000000000000000000000000000000000000082169050919050565b611d4e81611d19565b8114611d5957600080fd5b50565b600081359050611d6b81611d45565b92915050565b600060208284031215611d8757611d86611c11565b5b6000611d9584828501611d5c565b91505092915050565b60008115159050919050565b611db381611d9e565b82525050565b6000602082019050611dce6000830184611daa565b92915050565b600080fd5b6000601f19601f8301169050919050565b7f4e487b7100000000000000000000000000000000000000000000000000000000600052604160045260246000fd5b611e2282611dd9565b810181811067ffffffffffffffff82111715611e4157611e40611dea565b5b80604052505050565b6000611e54611c07565b9050611e608282611e19565b919050565b600067ffffffffffffffff821115611e8057611e7f611dea565b5b602082029050602081019050919050565b600080fd5b6000611ea9611ea484611e65565b611e4a565b90508083825260208201905060208402830185811115611ecc57611ecb611e91565b5b835b81811015611ef55780611ee18882611c64565b845260208401935050602081019050611ece565b5050509392505050565b600082601f830112611f1457611f13611dd4565b5b8135611f24848260208601611e96565b91505092915050565b600067ffffffffffffffff821115611f4857611f47611dea565b5b602082029050602081019050919050565b600080fd5b600067ffffffffffffffff821115611f7957611f78611dea565b5b611f8282611dd9565b9050602081019050919050565b82818337600083830152505050565b6000611fb1611fac84611f5e565b611e4a565b905082815260208101848484011115611fcd57611fcc611f59565b5b611fd8848285611f8f565b509392505050565b600082601f830112611ff557611ff4611dd4565b5b8135612005848260208601611f9e565b91505092915050565b600061202161201c84611f2d565b611e4a565b9050808382526020820190506020840283018581111561204457612043611e91565b5b835b8181101561208b57803567ffffffffffffffff81111561206957612068611dd4565b5b8086016120768982611fe0565b85526020850194505050602081019050612046565b5050509392505050565b600082601f8301126120aa576120a9611dd4565b5b81356120ba84826020860161200e565b91505092915050565b6000806000606084860312156120dc576120db611c11565b5b600084013567ffffffffffffffff8111156120fa576120f9611c16565b5b61210686828701611eff565b935050602084013567ffffffffffffffff81111561212757612126611c16565b5b61213386828701612095565b925050604084013567ffffffffffffffff81111561215457612153611c16565b5b61216086828701612095565b9150509250925092565b6000602082840312156121805761217f611c11565b5b600061218e84828501611c9a565b91505092915050565b600081519050919050565b600082825260208201905092915050565b60005b838110156121d15780820151818401526020810190506121b6565b60008484015250505050565b60006121e882612197565b6121f281856121a2565b93506122028185602086016121b3565b61220b81611dd9565b840191505092915050565b6000602082019050818103600083015261223081846121dd565b905092915050565b600067ffffffffffffffff82111561225357612252611dea565b5b602082029050602081019050919050565b600061227761227284612238565b611e4a565b9050808382526020820190506020840283018581111561229a57612299611e91565b5b835b818110156122c357806122af8882611c9a565b84526020840193505060208101905061229c565b5050509392505050565b600082601f8301126122e2576122e1611dd4565b5b81356122f2848260208601612264565b91505092915050565b600067ffffffffffffffff82111561231657612315611dea565b5b61231f82611dd9565b9050602081019050919050565b600061233f61233a846122fb565b611e4a565b90508281526020810184848401111561235b5761235a611f59565b5b612366848285611f8f565b509392505050565b600082601f83011261238357612382611dd4565b5b813561239384826020860161232c565b91505092915050565b600080600080600060a086880312156123b8576123b7611c11565b5b60006123c688828901611c64565b95505060206123d788828901611c64565b945050604086013567ffffffffffffffff8111156123f8576123f7611c16565b5b612404888289016122cd565b935050606086013567ffffffffffffffff81111561242557612424611c16565b5b612431888289016122cd565b925050608086013567ffffffffffffffff81111561245257612451611c16565b5b61245e8882890161236e565b9150509295509295909350565b6000806040838503121561248257612481611c11565b5b600083013567ffffffffffffffff8111156124a05761249f611c16565b5b6124ac85828601611eff565b925050602083013567ffffffffffffffff8111156124cd576124cc611c16565b5b6124d9858286016122cd565b9150509250929050565b600081519050919050565b600082825260208201905092915050565b6000819050602082019050919050565b61251881611c79565b82525050565b600061252a838361250f565b60208301905092915050565b6000602082019050919050565b600061254e826124e3565b61255881856124ee565b9350612563836124ff565b8060005b8381101561259457815161257b888261251e565b975061258683612536565b925050600181019050612567565b5085935050505092915050565b600060208201905081810360008301526125bb8184612543565b905092915050565b6125cc81611c3b565b82525050565b60006020820190506125e760008301846125c3565b92915050565b60008060006060848603121561260657612605611c11565b5b600061261486828701611c64565b935050602084013567ffffffffffffffff81111561263557612634611c16565b5b61264186828701611fe0565b925050604084013567ffffffffffffffff81111561266257612661611c16565b5b61266e86828701611fe0565b9150509250925092565b61268181611d9e565b811461268c57600080fd5b50565b60008135905061269e81612678565b92915050565b600080604083850312156126bb576126ba611c11565b5b60006126c985828601611c64565b92505060206126da8582860161268f565b9150509250929050565b600080604083850312156126fb576126fa611c11565b5b600061270985828601611c64565b925050602061271a85828601611c64565b9150509250929050565b600080600080600060a086880312156127405761273f611c11565b5b600061274e88828901611c64565b955050602061275f88828901611c64565b945050604061277088828901611c9a565b935050606061278188828901611c9a565b925050608086013567ffffffffffffffff8111156127a2576127a1611c16565b5b6127ae8882890161236e565b9150509295509295909350565b7f455243313135353a2061646472657373207a65726f206973206e6f742061207660008201527f616c6964206f776e657200000000000000000000000000000000000000000000602082015250565b6000612817602a836121a2565b9150612822826127bb565b604082019050919050565b600060208201905081810360008301526128468161280a565b9050919050565b7f4f6e6c79206f776e65722063616e206d696e7400000000000000000000000000600082015250565b60006128836013836121a2565b915061288e8261284d565b602082019050919050565b600060208201905081810360008301526128b281612876565b9050919050565b7f416c6c20617272617973206d7573742068617665207468652073616d65206c6560008201527f6e67746800000000000000000000000000000000000000000000000000000000602082015250565b60006129156024836121a2565b9150612920826128b9565b604082019050919050565b6000602082019050818103600083015261294481612908565b9050919050565b7f4e487b7100000000000000000000000000000000000000000000000000000000600052603260045260246000fd5b7f4e487b7100000000000000000000000000000000000000000000000000000000600052601160045260246000fd5b60006129b482611c79565b91507fffffffffffffffffffffffffffffffffffffffffffffffffffffffffffffffff82036129e6576129e561297a565b5b600182019050919050565b7f4e487b7100000000000000000000000000000000000000000000000000000000600052602260045260246000fd5b60006002820490506001821680612a3857607f821691505b602082108103612a4b57612a4a6129f1565b5b50919050565b600081905092915050565b60008190508160005260206000209050919050565b60008154612a7e81612a20565b612a888186612a51565b94506001821660008114612aa35760018114612ab857612aeb565b60ff1983168652811515820286019350612aeb565b612ac185612a5c565b60005b83811015612ae357815481890152600182019150602081019050612ac4565b838801955050505b50505092915050565b6000612aff82612197565b612b098185612a51565b9350612b198185602086016121b3565b80840191505092915050565b6000612b318285612a71565b9150612b3d8284612af4565b91508190509392505050565b7f455243313135353a2063616c6c6572206973206e6f7420746f6b656e206f776e60008201527f6572206f7220617070726f766564000000000000000000000000000000000000602082015250565b6000612ba5602e836121a2565b9150612bb082612b49565b604082019050919050565b60006020820190508181036000830152612bd481612b98565b9050919050565b7f455243313135353a206163636f756e747320616e6420696473206c656e67746860008201527f206d69736d617463680000000000000000000000000000000000000000000000602082015250565b6000612c376029836121a2565b9150612c4282612bdb565b604082019050919050565b60006020820190508181036000830152612c6681612c2a565b9050919050565b7f7b2261747472696275746573223a5b7b22646973706c61795f74797065223a2260008201527f6e756d626572222c2274726169745f74797065223a226964222c2276616c756560208201527f223a000000000000000000000000000000000000000000000000000000000000604082015250565b6000612cef604283612a51565b9150612cfa82612c6d565b604282019050919050565b7f7d2c207b2274726169745f74797065223a2250726f6a656374222c2276616c7560008201527f65223a2274657374000000000000000000000000000000000000000000000000602082015250565b6000612d61602883612a51565b9150612d6c82612d05565b602882019050919050565b7f227d5d2c20226e616d65223a2274657374000000000000000000000000000000600082015250565b6000612dad601183612a51565b9150612db882612d77565b601182019050919050565b7f222c2273796d626f6c223a227465737400000000000000000000000000000000600082015250565b6000612df9601083612a51565b9150612e0482612dc3565b601082019050919050565b7f222c226465736372697074696f6e223a224e46547320617474657374696e672060008201527f746f20746865697220636f6e747269627574696f6e20696e207468652044414f60208201527f73207265636f7264656420627920556e7974652e205769746820556e7974652c60408201527f206d656d626572732063616e20656173696c79207265636f72642070726f706f60608201527f73616c732c20636f6e747269627574696f6e7320616e6420707261697365206360808201527f6f6d6d656e7473207573696e6720736c61736820636f6d6d616e64732e20576560a08201527f2063616e20616c736f2073656e6420455243323020746f6b656e732c204e465460c08201527f206f7220574c20646570656e64696e67206f6e2077686174206973206265696e60e08201527f67207265636f726465642e204d6f726520696e666f3a2068747470733a2f2f756101008201527f6e7974652e7465616d2f222c22696d616765223a20220000000000000000000061012082015250565b6000612f9e61013683612a51565b9150612fa982612e0f565b61013682019050919050565b7f222c2265787465726e616c5f75726c223a202268747470733a2f2f626574612e60008201527f756e7974652e7465616d2f227d00000000000000000000000000000000000000602082015250565b6000613011602d83612a51565b915061301c82612fb5565b602d82019050919050565b600061303282612ce2565b915061303e8285612af4565b915061304982612d54565b915061305482612da0565b915061305f82612dec565b915061306a82612f90565b91506130768284612af4565b915061308182613004565b91508190509392505050565b7f646174613a6170706c69636174696f6e2f6a736f6e3b6261736536342c000000600082015250565b60006130c3601d83612a51565b91506130ce8261308d565b601d82019050919050565b60006130e4826130b6565b91506130f08284612af4565b915081905092915050565b7f455243313135353a2069647320616e6420616d6f756e7473206c656e6774682060008201527f6d69736d61746368000000000000000000000000000000000000000000000000602082015250565b60006131576028836121a2565b9150613162826130fb565b604082019050919050565b600060208201905081810360008301526131868161314a565b9050919050565b7f455243313135353a207472616e7366657220746f20746865207a65726f20616460008201527f6472657373000000000000000000000000000000000000000000000000000000602082015250565b60006131e96025836121a2565b91506131f48261318d565b604082019050919050565b60006020820190508181036000830152613218816131dc565b9050919050565b7f455243313135353a20696e73756666696369656e742062616c616e636520666f60008201527f72207472616e7366657200000000000000000000000000000000000000000000602082015250565b600061327b602a836121a2565b91506132868261321f565b604082019050919050565b600060208201905081810360008301526132aa8161326e565b9050919050565b60006132bc82611c79565b91506132c783611c79565b92508282019050808211156132df576132de61297a565b5b92915050565b600060408201905081810360008301526132ff8185612543565b905081810360208301526133138184612543565b90509392505050565b7f4e487b7100000000000000000000000000000000000000000000000000000000600052601260045260246000fd5b600061335682611c79565b915061336183611c79565b9250826133715761337061331c565b5b828204905092915050565b600061338782611c79565b915061339283611c79565b92508282026133a081611c79565b915082820484148315176133b7576133b661297a565b5b5092915050565b7f455243313135353a206d696e7420746f20746865207a65726f2061646472657360008201527f7300000000000000000000000000000000000000000000000000000000000000602082015250565b600061341a6021836121a2565b9150613425826133be565b604082019050919050565b600060208201905081810360008301526134498161340d565b9050919050565b60006040820190506134656000830185611cef565b6134726020830184611cef565b9392505050565b60006020601f8301049050919050565b600082821b905092915050565b6000600883026134c67fffffffffffffffffffffffffffffffffffffffffffffffffffffffffffffffff82613489565b6134d08683613489565b95508019841693508086168417925050509392505050565b6000819050919050565b600061350d61350861350384611c79565b6134e8565b611c79565b9050919050565b6000819050919050565b613527836134f2565b61353b61353382613514565b848454613496565b825550505050565b600090565b613550613543565b61355b81848461351e565b505050565b5b8181101561357f57613574600082613548565b600181019050613561565b5050565b601f8211156135c45761359581612a5c565b61359e84613479565b810160208510156135ad578190505b6135c16135b985613479565b830182613560565b50505b505050565b600082821c905092915050565b60006135e7600019846008026135c9565b1980831691505092915050565b600061360083836135d6565b9150826002028217905092915050565b61361982612197565b67ffffffffffffffff81111561363257613631611dea565b5b61363c8254612a20565b613647828285613583565b600060209050601f83116001811461367a5760008415613668578287015190505b61367285826135f4565b8655506136da565b601f19841661368886612a5c565b60005b828110156136b05784890151825560018201915060208501945060208101905061368b565b868310156136cd57848901516136c9601f8916826135d6565b8355505b6001600288020188555050505b505050505050565b7f455243313135353a2073657474696e6720617070726f76616c2073746174757360008201527f20666f722073656c660000000000000000000000000000000000000000000000602082015250565b600061373e6029836121a2565b9150613749826136e2565b604082019050919050565b6000602082019050818103600083015261376d81613731565b9050919050565b600081519050919050565b600082825260208201905092915050565b600061379b82613774565b6137a5818561377f565b93506137b58185602086016121b3565b6137be81611dd9565b840191505092915050565b600060a0820190506137de60008301886125c3565b6137eb60208301876125c3565b81810360408301526137fd8186612543565b905081810360608301526138118185612543565b905081810360808301526138258184613790565b90509695505050505050565b60008151905061384081611d45565b92915050565b60006020828403121561385c5761385b611c11565b5b600061386a84828501613831565b91505092915050565b60008160e01c9050919050565b600060033d111561389f5760046000803e61389c600051613873565b90505b90565b600060443d1061392f576138b4611c07565b60043d036004823e80513d602482011167ffffffffffffffff821117156138dc57505061392f565b808201805167ffffffffffffffff8111156138fa575050505061392f565b80602083010160043d03850181111561391757505050505061392f565b61392682602001850186611e19565b82955050505050505b90565b7f455243313135353a207472616e7366657220746f206e6f6e2d4552433131353560008201527f526563656976657220696d706c656d656e746572000000000000000000000000602082015250565b600061398e6034836121a2565b915061399982613932565b604082019050919050565b600060208201905081810360008301526139bd81613981565b9050919050565b7f455243313135353a204552433131353552656365697665722072656a6563746560008201527f6420746f6b656e73000000000000000000000000000000000000000000000000602082015250565b6000613a206028836121a2565b9150613a2b826139c4565b604082019050919050565b60006020820190508181036000830152613a4f81613a13565b9050919050565b600060a082019050613a6b60008301886125c3565b613a7860208301876125c3565b613a856040830186611cef565b613a926060830185611cef565b8181036080830152613aa48184613790565b9050969550505050505056fe4142434445464748494a4b4c4d4e4f505152535455565758595a6162636465666768696a6b6c6d6e6f707172737475767778797a303132333435363738392b2fa26469706673582212205f3f803c30772974ebf7f48ed9577a0a283ec76df3f9bb70ea3014581285bd0d64736f6c63430008120033",
  "linkReferences": {},
  "deployedLinkReferences": {}
}